S011000053455F45564D5F53442E737265633E
S11300000C9472000C9494000C9494000C9494003E
S11300100C9494000C9494000C9494000C9494000C
S11300200C9494000C9494000C9494000C949400FC
S11300300C9494000C9494000C9494000C949400EC
S11300400C9494000C9494000C9494000C949400DC
S11300500C9494000C9494000C9494000C949400CC
S11300600C9494000C940F310C9494000C94940010
S11300700C9494000C9494000C9494000C949400AC
S11300800C9494000C9494000C9494000C9494009C
S11300900C9494000C9494000C9494000C9494008C
S11300A00C9494000C9494000C9494000C9494007C
S11300B00C9494000C9494000C9494000C9494006C
S11300C00C9494000C9494000C9494000C9494005C
S11300D00C9494000C9494000C9494000C9494004C
S11300E00C94940011241FBECFEFD1E2DEBFCDBF2C
S11300F000E00CBF14E0A0E0B2E0E8EDF1E700E0BE
S11301000BBF02C007900D92AE3DB107D9F71BBEDD
S113011018E0AEEDB4E001C01D92AF3DB107E1F7C8
S11301200E9495320C94EA380C940000E0ECF0E064
S1130130908195FFFDCF8093C6000895CF93DF9300
S1130140EC018881882331F021960E9496008991E0
S11301508823D9F7DF91CF910895CF93DF9360E19E
S113016077E20E94C038EC01862F80630E949600DB
S1130170CE0168EE73E00E94C038EC01862F8063E4
S11301800E949600CE0164E670E00E94C038EC0143
S1130190862F80630E949600CE016AE070E00E9480
S11301A0C038C82F862F80630E9496008C2F8063EE
S11301B00E949600DF91CF910895ECEBF0E08081EE
S11301C0846980830895ECEBF0E0108294EA9083D4
S11301D090819923ECF79091B900987F9830A1F41D
S11301E08093BB0084E88093BC00ECEBF0E080815A
S11301F08823ECF79091B900987F983139F081E029
S1130200903429F480E0089581E0089580E0089511
S11302108093BB0084E88093BC00ECEBF0E0808129
S11302208823ECF79091B900987F81E0983209F423
S113023080E00895DF92EF92FF920F931F93CF9384
S1130240DF93C62F072FD42FD52E79010E94E30008
S11302508823E1F4802F0E9408018C2F0E9408015A
S1130260E114F10479F00D2F1D2DC0E0D0E0F80168
S113027081918F010E940801882351F42196CE15A3
S1130280DF05A9F70E94DD0080E003C081E001C022
S113029081E0DF91CF911F910F91FF90EF90DF905C
S11302A0089584EC8093BC00ECEBF0E0808188231B
S11302B0ECF78091BB00089584E88093BC00ECEBDC
S11302C0F0E080818823ECF78091BB000895AF9221
S11302D0BF92CF92DF92EF92FF920F931F93CF932F
S11302E0DF93C82FE62E072F5A0169010E94E3000D
S11302F0882339F5802F0E9408018E2D0E94080161
S11303008C2F81600E94E3008823E9F4E6012197A1
S113031069F0750100E010E00E945101F70181933A
S11303207F010F5F1F4F0C171D07B0F3E6012197E4
S1130330CA0DDB1D0E945C0188830E94DD0080E001
S113034003C081E001C081E0DF91CF911F910F9143
S1130350FF90EF90DF90CF90BF90AF900895EF9211
S1130360FF920F931F93CF93DF93FC01808180341E
S113037009F03FC0EE24FF246894E1F8EE0EFF1E5E
S1130380028110E00F5F1F4F6091DB047091DC0469
S1130390E181F0E0CFEDD4E0EE0FFF1FEC0FFD1F85
S11303A07183608380EAA70198010E941A018091F9
S11303B0DB049091DC040196800F911F9093DC0480
S11303C08093DB048FEF9FE1ACE181509040A0402B
S11303D0E1F700C0000080EA90E060E071E0AE0167
S11303E020E430E00E948F0380E092E00E949E00AF
S11303F0F70180818F3399F5C181D0E0CC0FDD1FE7
S1130400C152DB4F6881798108ED18E080EAA801C8
S113041021E030E00E946701AFEFB9E51197F1F7F1
S113042000C00000E090D808FF24688179816F5FE4
S11304307F4F80EAA80197010E946701E114F1044B
S113044071F0C0E0F801EC0FF11D808190E00E9492
S11304509600CF5F8C2F90E08E159F0598F3DF9167
S1130460CF911F910F91FF90EF9008958F929F92DB
S1130470AF92BF92DF92EF92FF920F931F93CF93AD
S1130480DF934B01C82FD0E0CC0FDD1FC152DB4FEF
S11304906881798108ED18E080EAA80121E030E064
S11304A00E946701D090D8088FEF9FE9A5E08150A2
S11304B09040A040E1F700C00000688179816F5F3F
S11304C07F4F80EAA8012D2D30E00E9467010F2E96
S11304D0FEE9AF2EF0E0BF2EF02D83E092E0F501AF
S11304E019950F2EF6E9EF2EF0E0FF2EF02D8AE09D
S11304F090E0F70119958CE192E0F5011995C4019A
S11305000E94AD008AE090E0F701199588E292E03C
S1130510F50119958AE090E0F7011995DD2071F055
S1130520E8012196DA94CD0DD11DD8018D918D016C
S113053090E0F70119950C171D07B9F78AE090E0D0
S1130540F701199583E092E0F50119958AE090E0AE
S1130550F70119958AE090E0F70119958AE090E097
S1130560F70119958AE090E0F7011995DF91CF9191
S11305701F910F91FF90EF90DF90BF90AF909F90ED
S11305808F9008958FEF81B9539A549A5B98579A34
S1130590569A989A999AEAE0F1E090819D7F908327
S11305A090819B7F9083A198A09AEBE0F1E09081E9
S11305B0926090839081946090839D9AA59A17B8D5
S11305C088B9229AF8940E94AF38089587E78093F7
S11305D0C4001092C50088E98093C1000895E0EC3E
S11305E0F0E080818823ECF78091C600089582B9F9
S11305F05F985E9A8FEF93E20197F1F700C00000D5
S11306005E980895FC018081882371F0319682B947
S11306105F9A5E9A8FEF93E20197F1F700C00000B2
S11306205E988191882399F7089582B95F9A5E9ABA
S11306308FEF93E20197F1F700C000005E980895F0
S11306402AE030E0B9010E94C0389093CE0880932C
S1130650CD08CB01B9010E94C038EBECF8E08083EF
S11306609183805D82B95F9A5E9A8FEF93E20197DE
S1130670F1F700C000005E988091CD08805D82B9DA
S11306805F9A5E9A8FEF93E20197F1F700C0000042
S11306905E980895CF93DF93E3EDF8E0EF01289798
S11306A02AE030E0B9010E94C03892938293862FE9
S11306B0972FEC17FD07B1F7EBECF8E02896808153
S11306C03296805D82B95F9A5E9A8FEF93E20197CA
S11306D0F1F700C000005E98EC17FD0781F7DF9189
S11306E0CF91089585E08093B80084E08093BC00A6
S11306F00895ECEBF0E084EA808380818F7D808331
S113070080818823ECF708958093BB0084E880936C
S1130710BC00ECEBF0E080818823ECF70895CF92E5
S1130720DF92EF92FF921F93CF93DF93C82FE62EB1
S1130730172F6A01D22F0E9479038C2F0E94840301
S113074080911106882314F40E94DD008091110623
S113075088238CF3812F0E9484038E2D0E948403AE
S1130760ED2EFF240894E108F108FF20CCF010E0FE
S1130770C12FD0E0CC0FDD1FCC0DDD1D89810E947F
S1130780840388810E9484038FEF93EB0197F1F730
S113079000C000001F5F812F90E0E816F90644F7BF
S11307A00E94DD008FEF93EB0197F1F700C000008A
S11307B0DF91CF911F91FF90EF90DF90CF9008953C
S11307C0813021F484EC8093BC0005C0882319F4A3
S11307D084E88093BC00ECEBF0E080818823ECF7A4
S11307E08091BB008093F90508951F93CF93DF9305
S11307F0C82FD62F172F0E9479038C2F0E948403B1
S1130800812F0E9484038D2F0E9484030E94DD00A7
S11308108FEF91E10197F1F700C000000E94790386
S11308208C2F8F5F0E94840380E00E94E0030E946B
S1130830DD008091F905DF91CF911F910895CF9349
S1130840DF93C82FD92F0E94790380EA0E94840382
S11308508D2F0E9484038C2F0E9484030E94DD004C
S11308608FEF91E10197F1F700C000000E94790336
S113087081EA0E94840381E00E94E0032091F9054B
S1130880922F80E090936205809361050E94E003BB
S11308902091F9058091610590916205820F911D67
S11308A090936205809361050E94DD00DF91CF91F2
S11308B00895FF920F931F93CF93DF93C82F062FB2
S11308C0F72ED42F152F0E9479038C2F0E948403B6
S11308D080911106882314F40E94DD008091110692
S11308E088238CF38F2D0E948403802F0E9484031D
S11308F0812F0E9484038D2F0E9484030E94DD00B7
S11309008FEF93EB0197F1F700C00000DF91CF91D7
S11309101F910F91FF900895AF92BF92CF92DF92F3
S1130920EF92FF920F931F93CF93DF936B015A01C2
S11309308A01EB01C05CDF4F7B01C7010E941F04E9
S11309408091610590916205D8018D939D938D01ED
S1130950E2E0F0E0EE0EFF1E8FEF93EB0197F1F76C
S113096000C00000EC16FD0641F78FEF9FE1ACE1FB
S113097081509040A040E1F700C00000E501C05C58
S1130980DF4F86010E571F4FC7010E941F0480913D
S113099061059091620589939993A2E0B0E0EA0E13
S11309A0FB1EEFEFF3EB3197F1F700C00000E01608
S11309B0F10651F7DF91CF911F910F91FF90EF90C6
S11309C0DF90CF90BF90AF900895EF92FF920F9376
S11309D01F93CF93DF93182FF62E072FE42EC9EB26
S11309E0D0E00E947903812F0E9484038881887F4C
S11309F0803211F40E94DD008881887F803289F37F
S1130A0086EE90E00197F1F70000802F0E948403A6
S1130A108F2D0E9484038E2D0E9484030E94DD008A
S1130A208FEF93EB0197F1F700C00000DF91CF91B6
S1130A301F910F91FF90EF9008950F931F93CF9301
S1130A40DF93182F062FC9EBD0E00E947903812F82
S1130A500E9484038881887F803211F40E94DD0023
S1130A608881887F803289F386EE90E00197F1F7E0
S1130A700000802F0E9484030E94DD00DF91CF914B
S1130A801F910F9108951F93CF93DF93C82FD92FF0
S1130A90162F80911006823409F05CC081E00E9418
S1130AA0F7028BE392E00E9402038C2F9D2F0E9499
S1130AB01F048FEF9FE9A5E081509040A040E1F72B
S1130AC000C000008091EC05843451F480916105EC
S1130AD0909162050296909362058093610509C026
S1130AE080916105909162050196909362058093CF
S1130AF06105409161055091620580EA6C2F7D2F5C
S1130B000E9459048091FF0581508093FF058091D4
S1130B100706882349F480915C0890915D0801964A
S1130B2090935D0880935C0881E080930706809130
S1130B30110680628093110680E8612F0E941D05D2
S1130B40A19AA09860915C0870915D08812F0E9421
S1130B50360229C080910706882319F481E0809326
S1130B6007068091110680628093110680915208D5
S1130B7090E0880F991FFC01E459FA4FC083D18398
S1130B806C2F0E94DC38809152088F5F809352084A
S1130B908091FF0581508093FF0580E8612F0E94BA
S1130BA01D05A19AA098DF91CF911F91089580917E
S1130BB0630580FF04C080E861E00E941D058CECA1
S1130BC091E00197F1F700C000008091630581FF77
S1130BD004C080E862E00E941D058CEC91E001975E
S1130BE0F1F700C000008091630582FF04C080E833
S1130BF063E00E941D058CEC91E00197F1F700C0C1
S1130C0000008091630583FF04C080E864E00E94D3
S1130C101D058CEC91E00197F1F700C00000809174
S1130C20630584FF04C080E865E00E941D058CEC28
S1130C3091E00197F1F700C000008091630585FF02
S1130C4004C080E866E00E941D058CEC91E00197E9
S1130C50F1F700C000008091630586FF04C080E8BE
S1130C6067E00E941D058CEC91E00197F1F700C04C
S1130C70000080916305882324F480E868E00E94E2
S1130C801D058CEC91E00197F1F700C00000809104
S1130C90470680FF04C080E869E00E941D058CECD3
S1130CA091E00197F1F700C000008091470681FFB1
S1130CB004C080E86AE00E941D058CEC91E0019775
S1130CC0F1F700C000008091470682FF04C080E86D
S1130CD06BE00E941D058CEC91E00197F1F700C0D8
S1130CE000008091470683FF04C080E86CE00E9406
S1130CF01D058CEC91E00197F1F700C00000809194
S1130D00470684FF04C080E86DE00E941D058CEC5A
S1130D1091E00197F1F700C000008091470685FF3C
S1130D2004C080E86EE00E941D058CEC91E0019700
S1130D30F1F700C000008091470686FF04C080E8F8
S1130D406FE00E941D058CEC91E00197F1F700C063
S1130D50000080914706882324F480E860E10E9423
S1130D601D058CEC91E00197F1F700C00000809123
S1130D700D0680FF04C080E861E10E941D058CEC33
S1130D8091E00197F1F700C0000080910D0681FF0A
S1130D9004C080E862E10E941D058CEC91E001979B
S1130DA0F1F700C0000080910D0682FF04C080E8C6
S1130DB063E10E941D058CEC91E00197F1F700C0FE
S1130DC0000080910D0683FF04C080E864E10E9466
S1130DD01D058CEC91E00197F1F700C000008091B3
S1130DE00D0684FF04C080E865E10E941D058CECBB
S1130DF091E00197F1F700C0000080910D0685FF96
S1130E0004C080E866E10E941D058CEC91E0019726
S1130E10F1F700C0000080910D0686FF04C080E851
S1130E2067E10E941D058CEC91E00197F1F700C089
S1130E30000080910D06882324F480E868E10E9474
S1130E401D058CEC91E00197F1F700C00000809142
S1130E50600580FF04C080E869E10E941D058CECF8
S1130E6091E00197F1F700C000008091600581FFD7
S1130E7004C080E86AE10E941D058CEC91E00197B2
S1130E80F1F700C000008091600582FF04C080E893
S1130E906BE10E941D058CEC91E00197F1F700C015
S1130EA000008091600583FF04C080E86CE10E942B
S1130EB01D058CEC91E00197F1F700C000008091D2
S1130EC0600584FF04C080E86DE10E941D058CEC80
S1130ED091E00197F1F700C000008091600585FF63
S1130EE004C080E86EE10E941D058CEC91E001973E
S1130EF0F1F700C000008091600586FF04C080E81F
S1130F006FE10E941D058CEC91E00197F1F700C0A0
S1130F10000080916005882324F480E860E20E9448
S1130F201D058CEC91E00197F1F700C00000809161
S1130F30C80880FF04C080E861E20E941D058CECB3
S1130F4091E00197F1F700C000008091C80881FF8B
S1130F5004C080E862E20E941D058CEC91E00197D8
S1130F60F1F700C000008091C80882FF04C080E847
S1130F7063E20E941D058CEC91E00197F1F700C03B
S1130F8000008091C80883FF04C080E864E20E94E6
S1130F901D058CEC91E00197F1F700C000008091F1
S1130FA0C80884FF04C080E865E20E941D058CEC3B
S1130FB091E00197F1F700C000008091C80885FF17
S1130FC004C080E866E20E941D058CEC91E0019764
S1130FD0F1F700C000008091C80886FF04C080E8D3
S1130FE067E20E941D058CEC91E00197F1F700C0C7
S1130FF000008091C808882324F480E868E20E94F5
S11310001D058CEC91E00197F1F700C00000809180
S1131010CA0880FF04C080E869E20E941D058CECC8
S113102091E00197F1F700C000008091CA0881FFA8
S113103004C080E86AE20E941D058CEC91E00197EF
S1131040F1F700C000008091CA0882FF04C080E864
S11310506BE20E941D058CEC91E00197F1F700C052
S113106000008091CA0883FF04C080E86CE20E94FB
S11310701D058CEC91E00197F1F700C00000809110
S1131080CA0884FF04C080E86DE20E941D058CEC50
S113109091E00197F1F700C000008091CA0885FF34
S11310A004C080E86EE20E941D058CEC91E001977B
S11310B0F1F700C000008091CA0886FF04C080E8F0
S11310C06FE20E941D058CEC91E00197F1F700C0DE
S11310D000008091CA08882324F480E860E30E9419
S11310E01D058CEC91E00197F1F700C000008091A0
S11310F0670580FF04C080E861E30E941D058CEC55
S113110091E00197F1F700C000008091670581FF2D
S113111004C080E862E30E941D058CEC91E0019715
S1131120F1F700C000008091670582FF04C080E8E9
S113113063E30E941D058CEC91E00197F1F700C078
S113114000008091670583FF04C080E864E30E9487
S11311501D058CEC91E00197F1F700C0000080912F
S1131160670584FF04C080E865E30E941D058CECDC
S113117091E00197F1F700C000008091670585FFB9
S113118004C080E866E30E941D058CEC91E00197A1
S1131190F1F700C000008091670586FF04C080E875
S11311A067E30E941D058CEC91E00197F1F700C004
S11311B0000080916705882324F480E868E30E9496
S11311C01D058CEC91E00197F1F700C000008091BF
S11311D0540880FF04C080E869E30E941D058CEC7C
S11311E091E00197F1F700C000008091540881FF5D
S11311F004C080E86AE30E941D058CEC91E001972D
S1131200F1F700C000008091540882FF04C080E818
S11312106BE30E941D058CEC91E00197F1F700C08F
S113122000008091540883FF04C080E86CE30E94AE
S11312301D058CEC91E00197F1F700C0000080914E
S1131240540884FF04C080E86DE30E941D058CEC03
S113125091E00197F1F700C000008091540885FFE8
S113126004C080E86EE30E941D058CEC91E00197B8
S1131270F1F700C000008091540886FF04C080E8A4
S11312806FE30E941D058CEC91E00197F1F700C01B
S1131290000080915408882324F480E860E40E94CC
S11312A01D058CEC91E00197F1F700C00000089552
S11312B02F923F924F925F926F927F928F929F9262
S11312C0AF92BF92CF92DF92EF92FF920F931F9350
S11312D0CF93DF930F92CDB7DEB780EA60E870E07A
S11312E00E94F5038F70898380EA60E870E00E94B1
S11312F0F503E82E80EA60E870E00E94F503829529
S11313008F709E2D9F70582E590E80EA60E870E011
S11313100E94F503D82E80EA60E870E00E94F5038D
S113132082958F709D2D9F70E82EE90E80EA61E80A
S113133070E00E94F5038F707E2C780E80EA60E8DE
S113134070E00E94F503D82E80EA60E870E00E9405
S1131350F503E82EE694E694E694E6949D2D9F70BA
S1131360E90E80EA61E870E00E94F5038F70E80EF0
S113137080EA61E870E00E94F50382958F709E2CEC
S1131380980E80EA60E870E00E94F503D82E80EAA7
S113139060E870E00E94F503E82EE694E694E69493
S11313A0E6949D2D9F70E90E80EA61E870E00E944A
S11313B0F5038F70E80E80EA61E870E00E94F5039F
S11313C082958F70E80E80EA62E870E00E94F5036F
S11313D08F70AE2CA80E80EA60E870E00E94F503DE
S11313E0D82E80EA60E870E00E94F503E82EE694C7
S11313F0E694E694E6949D2D9F70E90E80EA61E8F8
S113140070E00E94F5038F70E80E80EA61E870E0F6
S11314100E94F50382958F70E80E80EA62E870E01E
S11314200E94F5038F70E80E80EA62E870E00E9483
S1131430F50382958F708E2C880E80EA60E870E048
S11314400E94F503D82E80EA60E870E00E94F5035C
S1131450E82EE694E694E694E6949D2D9F70E90EBA
S113146080EA61E870E00E94F5038F70E80E80EA7C
S113147061E870E00E94F50382958F70E80E80EABF
S113148062E870E00E94F5038F70E80E80EA62E87B
S113149070E00E94F50382958F70E80E80EA63E89D
S11314A070E00E94F5038F706E2C680E80EA60E88D
S11314B070E00E94F503D82E80EA60E870E00E9494
S11314C0F503E82EE694E694E694E6949D2D9F7049
S11314D0E90E80EA61E870E00E94F5038F70E80E7F
S11314E080EA61E870E00E94F50382958F70E80E4F
S11314F080EA62E870E00E94F5038F70E80E80EAEB
S113150062E870E00E94F50382958F70E80E80EA2D
S113151063E870E00E94F5038F70E80E80EA63E8E8
S113152070E00E94F50382958F70E80E8091110699
S113153085FD2CC080EA68E870E00E94F503B82EAF
S113154080EA69E870E00E94F503C82E80EA6AE840
S113155070E00E94F503F82E80EA6BE870E00E94C8
S1131560F503282E80EA6CE870E00E94F503382E1B
S113157080EA6DE870E00E94F503182F80EA6EE8B7
S113158070E00E94F503082F0C94CF2F8091110670
S113159085FD02C00C94CF2F80EA65EA70E00E94BA
S11315A0F503B82E80EA66EA70E00E94F503C82EBF
S11315B080EA67EA70E00E94F503F82E80EA68EAA0
S11315C070E00E94F503282E80EA69EA70E00E9428
S11315D0F503382E80EA6AEA70E00E94F503182FBA
S11315E080EA6BEA70E00E94F503082F0E94D70599
S11315F00C94CF2F40915C0850915D0880EA68E913
S113160070E00E9459044091630580EA6DE970E03E
S11316100E94E5044091470680EA6EE970E00E946A
S1131620E50440910D0680EA6FE970E00E94E5044C
S11316304091600580EA60EA70E00E94E504409110
S1131640C80880EA61EA70E00E94E5044091CA0893
S113165080EA62EA70E00E94E5044091670580EA4E
S113166063EA70E00E94E5044091540880EA64EA69
S113167070E00E94E50480EA65EA70E04B2D0E9468
S1131680E50480EA66EA70E04C2D0E94E50480EAF5
S113169067EA70E04F2D0E94E50480EA68EA70E092
S11316A0422D0E94E50480EA69EA70E0432D0E941D
S11316B0E50480EA6AEA70E0412F0E94E50480EACA
S11316C06BEA70E0402F0E94E5044091480880EAEC
S11316D06EEA70E00E94E5044091FF0580EA6DEA3D
S11316E070E00E94E50480EA60EB70E040915208EB
S11316F00E94E5044091110680EA6FEA70E00E94BE
S1131700E50481E00E94F70287E492E00E9402036C
S113171080EC0E94F7028091FF0590E00E944A034A
S1131720A09AA1988091FF05882371F5E9E0F1E082
S113173086B180FD0CC086B181FD09C086B182FDF1
S113174006C086B183FD03C0808181FDF1CF8FEF98
S11317509FE9A5E081509040A040E1F700C000005F
S11317608091090181FD10C0E9E0F1E0808181FFF1
S1131770FDCF80E860E00E941D051092FF0581E026
S1131780809307060C94D92F8091FF05882311F4C8
S11317900C94CF2FE9E0F1E086B180FD0CC086B156
S11317A081FD09C086B182FD06C086B183FD03C0F8
S11317B0808181FDF1CF8FEF9FE9A5E081509040BA
S11317C0A040E1F700C0000086B180FF41C086B1AF
S11317D081FD3EC086B182FD3BC086B183FD38C029
S11317E083B190E08F709070009791F58091F60529
S11317F0882371F18091630580FD2AC09981992322
S113180071F0BB2061F08091630581608093630572
S113181080E090E061E00E944305BA9419C0809191
S1131820640590916505009799F480914808882390
S113183079F08091630581608093630580E090E096
S113184061E00E94430580914808815080934808D4
S113185086B180FF53C086B181FD50C086B182FD40
S11318604DC086B183FD4AC083B18F70813009F0C9
S113187045C08091F605823008F440C0809163052C
S113188081FD3CC0A981A23070F0BB20E9F08091B9
S11318906305826080936305BA9482E090E062E01D
S11318A00E9443052BC0B1E0B51570F4CC2061F063
S11318B08091630582608093630582E090E062E03A
S11318C00E944305CA941AC08091640590916505ED
S11318D08230910598F480914808882379F08091AA
S11318E0630582608093630582E090E062E00E9479
S11318F043058091480881508093480886B180FF51
S113190053C086B181FD50C086B182FD4DC086B101
S113191083FD4AC083B18F70823009F045C0809145
S1131920F605833008F440C08091630582FD3CC015
S1131930E981E33070F0BB20E9F0809163058460B5
S11319408093630584E090E063E00E944305BA94C9
S11319502BC0F2E0F51570F4CC2061F080916305A2
S113196084608093630584E090E063E00E94430513
S1131970CA941AC0809164059091650583309105DD
S113198098F480914808882379F0809163058460F5
S11319908093630584E090E063E00E9443058091B6
S11319A0480881508093480886B180FF67C086B19B
S11319B081FD64C086B182FD61C086B183FD5EC0D5
S11319C083B18F70833009F059C08091F60584305B
S11319D008F454C08091630583FD50C0898184302C
S11319E070F0BB20E9F08091630588608093630503
S11319F086E090E064E00E944305BA943FC093E01F
S1131A00951588F4CC2001F180916305886080935A
S1131A10630586E090E064E00E944305CA942EC00A
S1131A20A3E0A51588F0B3E0B71570F4FF2061F0CA
S1131A308091630588608093630586E090E064E0AC
S1131A400E944305FA941AC080916405909165053B
S1131A508430910598F480914808882379F0809126
S1131A60630588608093630586E090E064E00E94EB
S1131A7043058091480881508093480886B180FFCF
S1131A8067C086B181FD64C086B182FD61C086B144
S1131A9083FD5EC083B18F70843009F059C080919A
S1131AA0F605853008F454C08091630584FD50C068
S1131AB0E981E53070F0BB20E9F080916305806135
S1131AC08093630588E090E065E00E944305BA9442
S1131AD03FC0F4E0F51588F4CC2001F18091630552
S1131AE080618093630588E090E065E00E9443058F
S1131AF0CA942EC084E0851588F094E0971570F49C
S1131B00FF2061F08091630580618093630588E024
S1131B1090E065E00E944305FA941AC08091640540
S1131B20909165058530910598F480914808882343
S1131B3079F08091630580618093630588E090E08B
S1131B4065E00E94430580914808815080934808CD
S1131B5086B180FF67C086B181FD64C086B182FD15
S1131B6061C086B183FD5EC083B18F70853009F09A
S1131B7059C08091F605863008F454C080916305FD
S1131B8085FD50C0A981A63070F0BB20E9F080919A
S1131B9063058062809363058AE090E066E00E94BA
S1131BA04305BA943FC0B5E0B51588F4CC2001F1E3
S1131BB0809163058062809363058AE090E066E02B
S1131BC00E944305CA942EC0E5E0E51588F0F5E0CF
S1131BD0F71570F4FF2061F08091630580628093B3
S1131BE063058AE090E066E00E944305FA941AC017
S1131BF080916405909165058630910598F48091F3
S1131C004808882379F08091630580628093630596
S1131C108AE090E066E00E94430580914808815084
S1131C208093480886B180FF7BC086B181FD78C06F
S1131C3086B182FD75C086B183FD72C083B18F7099
S1131C40863009F06DC08091F605873008F468C0CD
S1131C508091630586FD64C08981873070F0BB2064
S1131C60E9F0809163058064809363058CE090E0E3
S1131C7067E00E944305BA9453C096E0951588F432
S1131C80CC2001F1809163058064809363058CE02E
S1131C9090E067E00E944305CA9442C0A6E0A515FF
S1131CA088F0B6E0B71588F4FF2001F18091630550
S1131CB08064809363058CE090E067E00E944305B4
S1131CC0FA942EC0E6E0E71588F0F6E0F91570F412
S1131CD0222061F0809163058064809363058CE029
S1131CE090E067E00E9443052A941AC0809164053D
S1131CF0909165058730910598F480914808882370
S1131D0079F0809163058064809363058CE090E0B2
S1131D1067E00E94430580914808815080934808F9
S1131D2086B180FF90C086B181FD8DC086B182FDF1
S1131D308AC086B183FD87C083B18F70873009F074
S1131D4082C08091F605883008F47DC080916305D7
S1131D5088230CF478C08981883070F0BB20E9F0C6
S1131D60809163058068809363058EE090E068E06D
S1131D700E944305BA9467C097E0951588F4CC2077
S1131D8001F1809163058068809363058EE090E0A3
S1131D9068E00E944305CA9456C0A7E0A51588F0E0
S1131DA0B7E0B71588F4FF2001F1809163058068DE
S1131DB0809363058EE090E068E00E944305FA9406
S1131DC042C0E7E0E71588F0F7E0F91588F422202F
S1131DD001F1809163058068809363058EE090E053
S1131DE068E00E9443052A942EC087E0891588F094
S1131DF097E09A1570F4332061F080916305806850
S1131E00809363058EE090E068E00E9443053A9475
S1131E101AC080916405909165058830910598F405
S1131E2080914808882379F08091630580688093C5
S1131E3063058EE090E068E00E94430580914808C5
S1131E4081508093480886B180FF8FC086B181FDA0
S1131E508CC086B182FD89C086B183FD86C083B102
S1131E608F70883009F081C08091F605893008F4BC
S1131E707CC08091470680FD78C0A981A93070F0AC
S1131E80BB20E9F08091470681608093470680E19A
S1131E9090E069E00E944305BA9467C0B8E0B515C4
S1131EA088F4CC2001F18091470681608093470635
S1131EB080E190E069E00E944305CA9456C0E8E0DE
S1131EC0E51588F0F8E0F71588F4FF2001F180911A
S1131ED0470681608093470680E190E069E00E94B4
S1131EE04305FA9442C088E0871588F098E0991574
S1131EF088F4222001F1809147068160809347068F
S1131F0080E190E069E00E9443052A942EC0A8E095
S1131F10A91588F0B8E0BA1570F4332061F0809107
S1131F20470681608093470680E190E069E00E9463
S1131F3043053A941AC080916405909165058930EF
S1131F40910598F480914808882379F08091470698
S1131F5081608093470680E190E069E00E94430538
S1131F608091480881508093480886B180FF8FC0D3
S1131F7086B181FD8CC086B182FD89C086B183FDA6
S1131F8086C083B18F70893009F081C08091F605D5
S1131F908A3008F47CC08091470681FD78C0E981CD
S1131FA0EA3070F0BB20E9F08091470682608093AC
S1131FB0470682E190E06AE00E944305BA9467C054
S1131FC0F9E0F51588F4CC2001F180914706826090
S1131FD08093470682E190E06AE00E944305CA9438
S1131FE056C089E0851588F099E0971588F4FF209C
S1131FF001F18091470682608093470682E190E078
S11320006AE00E944305FA9442C0A9E0A71588F04B
S1132010B9E0B91588F4222001F180914706826065
S11320208093470682E190E06AE00E9443052A9487
S11320302EC0E9E0E91588F0F9E0FA1570F43320D0
S113204061F08091470682608093470682E190E0C8
S11320506AE00E9443053A941AC080916405909105
S113206065058A30910598F480914808882379F0B1
S11320708091470682608093470682E190E06AE09F
S11320800E9443058091480881508093480886B196
S113209080FFA3C086B181FDA0C086B182FD9DC032
S11320A086B183FD9AC083B18F708A3009F095C0E0
S11320B08091F6058B3008F490C08091470682FD2C
S11320C08CC089818B3070F0BB20E9F08091470689
S11320D084608093470684E190E06BE00E944305AE
S11320E0BA947BC09AE0951588F4CC2001F18091D4
S11320F0470684608093470684E190E06BE00E9489
S11321004305CA946AC0AAE0A51588F0BAE0B715D9
S113211088F4FF2001F1809147068460809347068C
S113212084E190E06BE00E944305FA9456C0EAE033
S1132130E71588F0FAE0F91588F4222001F180917E
S1132140470684608093470684E190E06BE00E9438
S113215043052A9442C08AE0891588F09AE09A15CA
S113216088F4332001F18091470684608093470608
S113217084E190E06BE00E9443053A942EC0AAE00B
S1132180AA1588F0BAE0B81570F4112361F08091B3
S1132190470684608093470684E190E06BE00E94E8
S11321A0430511501AC080916405909165058B30E8
S11321B0910598F480914808882379F08091470626
S11321C084608093470684E190E06BE00E944305BD
S11321D08091480881508093480886B180FFA3C04D
S11321E086B181FDA0C086B182FD9DC086B183FD0C
S11321F09AC083B18F708B3009F095C08091F60539
S11322008C3008F490C08091470683FD8CC0E9812E
S1132210EC3070F0BB20E9F0809147068860809331
S1132220470686E190E06CE00E944305BA947BC0C7
S1132230FBE0F51588F4CC2001F180914706886015
S11322408093470686E190E06CE00E944305CA94BF
S11322506AC08BE0851588F09BE0971588F4FF2011
S113226001F18091470688608093470686E190E0FB
S11322706CE00E944305FA9456C0ABE0A71588F0C1
S1132280BBE0B91588F4222001F1809147068860EB
S11322908093470686E190E06CE00E9443052A940F
S11322A042C0EBE0E91588F0FBE0FA1588F433202E
S11322B001F18091470688608093470686E190E0AB
S11322C06CE00E9443053A942EC08BE08A1588F096
S11322D09BE0981570F4112361F0809147068860A3
S11322E08093470686E190E06CE00E94430511501C
S11322F01AC080916405909165058C30910598F41D
S113230080914808882379F08091470688608093FB
S1132310470686E190E06CE00E94430580914808FE
S113232081508093480886B180FFB7C086B181FD93
S1132330B4C086B182FDB1C086B183FDAEC083B1A5
S11323408F708C3009F0A9C08091F6058D3008F4A7
S1132350A4C08091470684FDA0C0A981AD3070F06F
S1132360BB20E9F08091470680618093470688E1AD
S113237090E06DE00E944305BA948FC0BCE0B515AF
S113238088F4CC2001F18091470680618093470650
S113239088E190E06DE00E944305CA947EC0ECE0C1
S11323A0E51588F0FCE0F71588F4FF2001F1809131
S11323B0470680618093470688E190E06DE00E94C3
S11323C04305FA946AC08CE0871588F09CE099155F
S11323D088F4222001F180914706806180934706AA
S11323E088E190E06DE00E9443052A9456C0ACE079
S11323F0A91588F0BCE0BA1588F4332001F1809166
S1132400470680618093470688E190E06DE00E9472
S113241043053A9442C0ECE0EA1588F0FCE0F81574
S113242088F4112301F18091470680618093470667
S113243088E190E06DE00E94430511502EC08CE0CD
S1132440881588F09CE0961570F4002361F0809163
S1132450470680618093470688E190E06DE00E9422
S1132460430501501AC080916405909165058D3033
S1132470910598F480914808882379F08091470663
S113248080618093470688E190E06DE00E944305F7
S11324908091480881508093480886B180FFB7C076
S11324A086B181FDB4C086B182FDB1C086B183FD21
S11324B0AEC083B18F708D3009F0A9C08091F6054C
S11324C08E3008F4A4C08091470685FDA0C0A98180
S11324D0AE3070F0BB20E9F08091470680628093B3
S11324E047068AE190E06EE00E944305BA948FC0EB
S11324F0BDE0B51588F4CC2001F1809147068062D7
S1132500809347068AE190E06EE00E944305CA94F6
S11325107EC0EDE0E51588F0FDE0F71588F4FF20B6
S113252001F1809147068062809347068AE190E03A
S11325306EE00E944305FA946AC08DE0871588F026
S11325409DE0991588F4222001F18091470680626C
S1132550809347068AE190E06EE00E9443052A9446
S113256056C0ADE0A91588F0BDE0BA1588F4332053
S113257001F1809147068062809347068AE190E0EA
S11325806EE00E9443053A9442C0EDE0EA1588F0FB
S1132590FDE0F81588F4112301F18091470680626B
S11325A0809347068AE190E06EE00E944305115053
S11325B02EC08DE0881588F09DE0961570F40023F8
S11325C061F0809147068062809347068AE190E03B
S11325D06EE00E94430501501AC0809164059091F9
S11325E065058E30910598F480914808882379F028
S11325F0809147068062809347068AE190E06EE00E
S11326000E9443058091480881508093480886B110
S113261080FFB7C086B181FDB4C086B182FDB1C070
S113262086B183FDAEC083B18F708E3009F0A9C02E
S11326308091F6058F3008F4A4C08091470686FD8A
S1132640A0C0A981AF3070F0BB20E9F080914706AB
S11326508064809347068CE190E06FE00E9443051C
S1132660BA948FC0BEE0B51588F4CC2001F18091F6
S113267047068064809347068CE190E06FE00E94F7
S11326804305CA947EC0EEE0E51588F0FEE0F71538
S113269088F4FF2001F18091470680648093470607
S11326A08CE190E06FE00E944305FA946AC08EE0EA
S11326B0871588F09EE0991588F4222001F1809115
S11326C047068064809347068CE190E06FE00E94A7
S11326D043052A9456C0AEE0A91588F0BEE0BA15A9
S11326E088F4332001F18091470680648093470683
S11326F08CE190E06FE00E9443053A9442C0EEE022
S1132700EA1588F0FEE0F81588F4112301F18091B0
S113271047068064809347068CE190E06FE00E9456
S1132720430511502EC08EE0881588F09EE0961562
S113273070F4002361F0809147068064809347061B
S11327408CE190E06FE00E94430501501AC0809133
S11327506405909165058F30910598F4809148083F
S1132760882379F0809147068064809347068CE142
S113277090E06FE00E944305809148088150809367
S1132780480886B180FFA4C086B181FDA1C086B18E
S113279082FD9EC086B183FD9BC083B18F708F3054
S11327A009F096C08091F605803108F491C08091BB
S11327B0470688230CF48CC0AFE0A51570F4CC2038
S11327C0E9F0809147068068809347068EE190E0A7
S11327D060E10E944305CA947BC0BFE0B71588F44A
S11327E0FF2001F1809147068068809347068EE1BF
S11327F090E060E10E944305FA946AC0EFE0E715B7
S113280088F0FFE0F91588F4222001F18091470651
S11328108068809347068EE190E060E10E94430562
S11328202A9456C08FE0891588F09FE09A1588F4A1
S1132830332001F1809147068068809347068EE13A
S113284090E060E10E9443053A9442C0AFE0AA15CB
S113285088F0BFE0B81588F4112301F18091470690
S11328608068809347068EE190E060E10E94430512
S113287011502EC0EFE0E81588F0FFE0F61570F473
S1132880002361F0809147068068809347068EE1BB
S113289090E060E10E94430501501AC080916405F4
S11328A0909165058031910598F4809148088823BA
S11328B079F0809147068068809347068EE190E026
S11328C060E10E9443058091480881508093480844
S11328D086B181FFA5C086B180FDA2C086B182FD0C
S11328E09FC086B183FD9CC083B190E08F709070CF
S11328F0009709F095C08091F605813108F490C0E5
S113290080910D0680FD8CC080E1851570F4CC208B
S1132910E9F080910D06816080930D0680E290E0DD
S113292061E10E944305CA947BC090E1971588F445
S1132930FF2001F180910D06816080930D0680E2F5
S113294090E061E10E944305FA946AC0A0E1A715F2
S113295088F0B0E1B91588F4222001F180910D06C8
S1132960816080930D0680E290E061E10E9443055E
S11329702A9456C0E0E1E91588F0F0E1FA1588F4EC
S1132980332001F180910D06816080930D0680E271
S113299090E061E10E9443053A9442C080E18A15C7
S11329A088F090E1981588F4112301F180910D06C7
S11329B0816080930D0680E290E061E10E9443050E
S11329C011502EC0A0E1A81588F0B0E1B61570F43E
S11329D0002361F080910D06816080930D0680E2F2
S11329E090E061E10E94430501501AC080916405A2
S11329F0909165058131910598F480914808882368
S1132A0079F080910D06816080930D0680E290E05C
S1132A1061E10E94430580914808815080934808F1
S1132A2086B181FFA3C086B180FDA0C086B182FDBE
S1132A309DC086B183FD9AC083B18F70813009F047
S1132A4095C08091F605823108F490C080910D06FE
S1132A5081FD8CC0E1E1E51570F4CC20E9F08091B2
S1132A600D06826080930D0682E290E062E10E948E
S1132A704305CA947BC0F1E1F71588F4FF2001F106
S1132A8080910D06826080930D0682E290E062E1FF
S1132A900E944305FA946AC081E1871588F091E1A8
S1132AA0991588F4222001F180910D0682608093AB
S1132AB00D0682E290E062E10E9443052A9456C02A
S1132AC0A1E1A91588F0B1E1BA1588F4332001F128
S1132AD080910D06826080930D0682E290E062E1AF
S1132AE00E9443053A9442C0E1E1EA1588F0F1E11D
S1132AF0F81588F4112301F180910D06826080930A
S1132B000D0682E290E062E10E94430511502EC05E
S1132B1081E1881588F091E1961570F4002361F045
S1132B2080910D06826080930D0682E290E062E15E
S1132B300E94430501501AC0809164059091650577
S1132B408231910598F480914808882379F0809126
S1132B500D06826080930D0682E290E062E10E949D
S1132B6043058091480881508093480886B181FFCD
S1132B70A3C086B180FDA0C086B182FD9DC086B190
S1132B8083FD9AC083B18F70823009F095C0809123
S1132B90F605833108F490C080910D0682FD8CC047
S1132BA0A2E1A51570F4CC20E9F080910D068460B3
S1132BB080930D0684E290E063E10E944305CA9489
S1132BC07BC0B2E1B71588F4FF2001F180910D06B6
S1132BD0846080930D0684E290E063E10E944305E3
S1132BE0FA946AC0E2E1E71588F0F2E1F91588F495
S1132BF0222001F180910D06846080930D0684E209
S1132C0090E063E10E9443052A9456C082E189154D
S1132C1088F092E19A1588F4332001F180910D0631
S1132C20846080930D0684E290E063E10E94430592
S1132C303A9442C0A2E1AA1588F0B2E1B81588F42A
S1132C40112301F180910D06846080930D0684E2C6
S1132C5090E063E10E94430511502EC0E2E1E815C3
S1132C6088F0F2E1F61570F4002361F080910D060E
S1132C70846080930D0684E290E063E10E94430542
S1132C8001501AC0809164059091650583319105C6
S1132C9098F480914808882379F080910D06846027
S1132CA080930D0684E290E063E10E9443058091E5
S1132CB0480881508093480886B181FFA3C086B13B
S1132CC080FDA0C086B182FD9DC086B183FD9AC0FF
S1132CD083B18F70833009F095C08091F6058431FB
S1132CE008F490C080910D0683FD8CC083E18515A6
S1132CF070F4CC20E9F080910D06886080930D0675
S1132D0086E290E064E10E944305CA947BC093E1AB
S1132D10971588F4FF2001F180910D068860809357
S1132D200D0686E290E064E10E944305FA946AC0CD
S1132D30A3E1A71588F0B3E1B91588F4222001F1C5
S1132D4080910D06886080930D0686E290E064E130
S1132D500E9443052A9456C0E3E1E91588F0F3E1A3
S1132D60FA1588F4332001F180910D068860809370
S1132D700D0686E290E064E10E9443053A9442C065
S1132D8083E18A1588F093E1981588F4112301F101
S1132D9080910D06886080930D0686E290E064E1E0
S1132DA00E94430511502EC0A3E1A81588F0B3E199
S1132DB0B61570F4002361F080910D06886080934D
S1132DC00D0686E290E064E10E94430501501AC0BA
S1132DD080916405909165058431910598F4809102
S1132DE04808882379F080910D06886080930D0649
S1132DF086E290E064E10E94430580914808815096
S1132E008093480886B181FFA3C086B180FDA0C02D
S1132E1086B182FD9DC086B183FD9AC083B18F7057
S1132E20843009F095C08091F605853108F490C08E
S1132E3080910D0684FD8CC0E4E1E51570F4CC208E
S1132E40E9F080910D06806180930D0688E290E0A0
S1132E5065E10E944305CA947BC0F4E1F71588F448
S1132E60FF2001F180910D06806180930D0688E2B8
S1132E7090E065E10E944305FA946AC084E18715F5
S1132E8088F094E1991588F4222001F180910D06CF
S1132E90806180930D0688E290E065E10E9443051D
S1132EA02A9456C0A4E1A91588F0B4E1BA1588F4AF
S1132EB0332001F180910D06806180930D0688E234
S1132EC090E065E10E9443053A9442C0E4E1EA15CA
S1132ED088F0F4E1F81588F4112301F180910D06CE
S1132EE0806180930D0688E290E065E10E944305CD
S1132EF011502EC084E1881588F094E1961570F481
S1132F00002361F080910D06806180930D0688E2B4
S1132F1090E065E10E94430501501AC08091640568
S1132F20909165058531910598F48091480888232E
S1132F3079F080910D06806180930D0688E290E01F
S1132F4065E10E94430580914808815080934808B8
S1132F5086B181FFA3C086B180FDA0C086B182FD89
S1132F609DC086B183FD9AC083B18F70853009F00E
S1132F7095C08091F605863108F490C080910D06C5
S1132F8085FD8CC0A5E1A51570F4CC20E9F08091F5
S1132F900D06806280930D068AE290E066E10E944D
S1132FA04305CA947BC0B4E1B71570F4FF2061F007
S1132FB080910D06806280930D068AE290E066E1BE
S1132FC00E944305FA946AC0E5E1E71588F0F4E14C
S1132FD0F91570F4222061F080910D0680628093CF
S1132FE00D068AE290E066E10E9443052A9456C0E9
S1132FF085E1891588F094E19A1570F4332061F025
S113300080910D06806280930D068AE290E066E16D
S11330100E9443053A9442C0A5E1AA1588F0B4E1A0
S1133020B81570F4112361F080910D0680628093CD
S11330300D068AE290E066E10E94430511502EC01D
S1133040E5E1E81588F0F4E1F61570F4002361F089
S113305080910D06806280930D068AE290E066E11D
S11330600E94430501501AC0809164059091650542
S11330708631910598F480914808882379F08091ED
S11330800D06806280930D068AE290E066E10E945C
S113309043058091480881508093480886B181FF98
S11330A0B7C086B180FDB4C086B182FDB1C086B11F
S11330B083FDAEC083B18F70863009F0A9C08091C2
S11330C0F605873108F4A4C080910D0686FDA0C0E2
S11330D086E1851570F4CC20E9F080910D068064BA
S11330E080930D068CE290E067E10E944305CA9448
S11330F08FC096E1971588F4FF2001F180910D06A9
S1133100806480930D068CE290E067E10E944305A1
S1133110FA947EC0A6E1A71588F0B6E1B91588F443
S1133120222001F180910D06806480930D068CE2CB
S113313090E067E10E9443052A946AC0E6E1E9153C
S113314088F0F6E1FA1588F4332001F180910D0638
S1133150806480930D068CE290E067E10E94430551
S11331603A9456C086E18A1588F096E1981588F459
S1133170112301F180910D06806480930D068CE289
S113318090E067E10E944305115042C0A6E1A815F2
S113319088F0B6E1B61588F4002301F180910D069C
S11331A0806480930D068CE290E067E10E94430501
S11331B001502EC0E6E1E61588F0F6E1FE1570F444
S11331C0442061F080910D06806480930D068CE2AA
S11331D090E067E10E9443054A941AC08091640517
S11331E0909165058731910598F48091480888236A
S11331F079F080910D06806480930D068CE290E056
S113320067E10E94430580914808815080934808F3
S113321086B181FFA4C086B180FDA1C086B182FDC4
S11332209EC086B183FD9BC083B18F70873009F047
S113323096C08091F605883108F491C080910D06FE
S113324088230CF48CC087E1851570F4CC20E9F058
S113325080910D06806880930D068EE290E068E10F
S11332600E944305CA947BC097E1971588F4FF2018
S113327001F180910D06806880930D068EE290E046
S113328068E10E944305FA946AC0A7E1A71588F093
S1133290B7E1B91588F4222001F180910D06806808
S11332A080930D068EE290E068E10E9443052A9423
S11332B056C0E7E1E91588F0F7E1FA1588F4332000
S11332C001F180910D06806880930D068EE290E0F6
S11332D068E10E9443053A9442C087E18A1588F068
S11332E097E1981588F4112301F180910D06806807
S11332F080930D068EE290E068E10E944305115030
S11333002EC0A7E1A81588F0B7E1B61570F4002324
S113331061F080910D06806880930D068EE290E046
S113332068E10E94430501501AC0809164059091A0
S113333065058831910598F480914808882379F0CF
S113334080910D06806880930D068EE290E068E11E
S11333500E9443058091480881508093480886B1B3
S113336081FFA3C086B180FDA0C086B182FD9DC04F
S113337086B183FD9AC083B18F70883009F095C0FF
S11333808091F605893108F490C08091600580FD34
S11333908CC0E8E1E51570F4CC20E9F0809160057B
S11333A081608093600580E390E069E10E944305B9
S11333B0CA947BC0F8E1F71588F4FF2001F18091ED
S11333C0600581608093600580E390E069E10E947C
S11333D04305FA946AC088E1871588F098E1991545
S11333E088F4222001F1809160058160809360055A
S11333F080E390E069E10E9443052A9456C0A8E165
S1133400A91588F0B8E1BA1588F4332001F1809148
S1133410600581608093600580E390E069E10E942B
S113342043053A9442C0E8E1EA1588F0F8E1F8155A
S113343088F4112301F18091600581608093600517
S113344080E390E069E10E94430511502EC088E1B9
S1133450881588F098E1961570F4002361F0809146
S1133460600581608093600580E390E069E10E94DB
S1133470430501501AC08091640590916505893116
S1133480910598F480914808882379F0809160052B
S113349081608093600580E390E069E10E944305C8
S11334A08091480881508093480886B181FFB7C055
S11334B086B180FDB4C086B182FDB1C086B183FD02
S11334C0AEC083B18F70893009F0A9C08091F60530
S11334D08A3108F4A4C08091600581FDA0C0A9E1EF
S11334E0A51570F4CC20E9F080916005826080938A
S11334F0600582E390E06AE10E944305CA948FC0AC
S1133500B9E1B71588F4FF2001F18091600582606C
S11335108093600582E390E06AE10E944305FA9497
S11335207EC0E9E1E71588F0F9E1F91588F4222075
S113353001F18091600582608093600582E390E0F0
S11335406AE10E9443052A946AC089E1891588F0DA
S113355099E19A1588F4332001F180916005826025
S11335608093600582E390E06AE10E9443053A9407
S113357056C0A9E1AA1588F0B9E1B81588F4112359
S113358001F18091600582608093600582E390E0A0
S11335906AE10E944305115042C0E9E1E81588F050
S11335A0F9E1F61588F4002301F180916005826049
S11335B08093600582E390E06AE10E944305015034
S11335C02EC089E1861588F099E19E1570F4442097
S11335D061F08091600582608093600582E390E0F1
S11335E06AE10E9443054A941AC08091640590914F
S11335F065058A31910598F480914808882379F00B
S11336008091600582608093600582E390E06AE1C6
S11336100E9443058091480881508093480886B1F0
S113362081FFA3C086B180FDA0C086B182FD9DC08C
S113363086B183FD9AC083B18F708A3009F095C03A
S11336408091F6058B3108F490C08091600582FD6D
S11336508CC0AAE1A51570F4CC20E9F08091600536
S113366084608093600584E390E06BE10E944305ED
S1133670CA947BC0BAE1B71588F4FF2001F18091A8
S1133680600584608093600584E390E06BE10E94B0
S11336904305FA946AC0EAE1E71588F0FAE1F915FE
S11336A088F4222001F18091600584608093600594
S11336B084E390E06BE10E9443052A9456C08AE1BA
S11336C0891588F09AE19A1588F4332001F18091E4
S11336D0600584608093600584E390E06BE10E9460
S11336E043053A9442C0AAE1AA1588F0BAE1B81594
S11336F088F4112301F18091600584608093600552
S113370084E390E06BE10E94430511502EC0EAE18E
S1133710E81588F0FAE1F61570F4002361F0809161
S1133720600584608093600584E390E06BE10E940F
S1133730430501501AC080916405909165058B3151
S1133740910598F480914808882379F08091600568
S113375084608093600584E390E06BE10E944305FC
S11337608091480881508093480886B181FFA3C0A6
S113377086B180FDA0C086B182FD9DC086B183FD67
S11337809AC083B18F708B3009F095C08091F60593
S11337908C3108F490C08091600583FD8CC08BE16E
S11337A0851570F4CC20E9F08091600588608093E1
S11337B0600586E390E06CE10E944305CA947BC0F7
S11337C09BE1971588F4FF2001F1809160058860E2
S11337D08093600586E390E06CE10E944305FA94CF
S11337E06AC0ABE1A71588F0BBE1B91588F42220C3
S11337F001F18091600588608093600586E390E024
S11338006CE10E9443052A9456C0EBE1E91588F067
S1133810FBE1FA1588F4332001F18091600588609A
S11338208093600586E390E06CE10E9443053A943E
S113383042C08BE18A1588F09BE1981588F4112326
S113384001F18091600588608093600586E390E0D3
S11338506CE10E94430511502EC0ABE1A81588F01D
S1133860BBE1B61570F4002361F0809160058860B7
S11338708093600586E390E06CE10E94430501506B
S11338801AC080916405909165058C31910598F476
S113389080914808882379F080916005886080933E
S11338A0600586E390E06CE10E944305809148083E
S11338B081508093480886B181FFA3C086B180FD02
S11338C0A0C086B182FD9DC086B183FD9AC083B13C
S11338D08F708C3009F095C08091F6058D3108F415
S11338E090C08091600584FD8CC0ECE1E51570F416
S11338F0CC20E9F08091600580618093600588E3C5
S113390090E06DE10E944305CA947BC0FCE1F71589
S113391088F4FF2001F18091600580618093600547
S113392088E390E06DE10E944305FA946AC08CE15B
S1133930871588F09CE1991588F4222001F1809183
S1133940600580618093600588E390E06DE10E94EA
S113395043052A9456C0ACE1A91588F0BCE1BA1518
S113396088F4332001F180916005806180936005C3
S113397088E390E06DE10E9443053A9442C0ECE193
S1133980EA1588F0FCE1F81588F4112301F180911F
S1133990600580618093600588E390E06DE10E949A
S11339A0430511502EC08CE1881588F09CE19615D2
S11339B070F4002361F0809160058061809360055C
S11339C088E390E06DE10E94430501501AC08091A4
S11339D06405909165058D31910598F480914808AE
S11339E0882379F08091600580618093600588E385
S11339F090E06DE10E9443058091480881508093D6
S1133A00480886B181FFB7C086B180FDB4C086B1D5
S1133A1082FDB1C086B183FDAEC083B18F708D309D
S1133A2009F0A9C08091F6058E3108F4A4C08091F4
S1133A30600585FDA0C0ADE1A51570F4CC20E9F0CA
S1133A40809160058062809360058AE390E06EE176
S1133A500E944305CA948FC0BDE1B71588F4FF20C6
S1133A6001F1809160058062809360058AE390E0B3
S1133A706EE10E944305FA947EC0EDE1E71588F0FB
S1133A80FDE1F91588F4222001F18091600580623E
S1133A90809360058AE390E06EE10E9443052A94D6
S1133AA06AC08DE1891588F09DE19A1588F4332068
S1133AB001F1809160058062809360058AE390E063
S1133AC06EE10E9443053A9456C0ADE1AA1588F010
S1133AD0BDE1B81588F4112301F18091600580627D
S1133AE0809360058AE390E06EE10E9443051150E3
S1133AF042C0EDE1E81588F0FDE1F61588F40023F5
S1133B0001F1809160058062809360058AE390E012
S1133B106EE10E94430501502EC08DE1861588F0A8
S1133B209DE19E1570F4442061F0809160058062EF
S1133B30809360058AE390E06EE10E9443054A9415
S1133B401AC080916405909165058E31910598F4B1
S1133B5080914808882379F0809160058062809381
S1133B6060058AE390E06EE10E9443058091480875
S1133B7081508093480886B181FF94C086B180FD4E
S1133B8091C086B182FD8EC086B183FD8BC083B1A6
S1133B908F708E3009F086C08091F6058F3108F45D
S1133BA081C08091600586FD7DC0AEE1A51580F0E1
S1133BB0A71588F4FF2001F180916005806480934B
S1133BC060058CE390E06FE10E944305FA9414C011
S1133BD0BEE1B71588F0EEE1E91588F4222001F181
S1133BE0809160058064809360058CE390E06FE1D0
S1133BF00E9443052A9456C0FEE1F91588F08EE12F
S1133C008A1588F4332001F18091600580648093E3
S1133C1060058CE390E06FE10E9443053A9442C052
S1133C209EE19A1588F0AEE1A81588F4112301F1FC
S1133C30809160058064809360058CE390E06FE17F
S1133C400E94430511502EC0BEE1B81588F0EEE184
S1133C50E61570F4002361F0809160058064809320
S1133C6060058CE390E06FE10E94430501501AC0A7
S1133C7080916405909165058F31910598F4809148
S1133C804808882379F080916005806480936005FA
S1133C908CE390E06FE10E944305809148088150D5
S1133CA08093480886B181FF90C086B180FD8DC0A5
S1133CB086B182FD8AC086B183FD87C083B18F70CF
S1133CC08F3009F082C08091F605803208F47DC0FF
S1133CD08091600588230CF478C0FFE1F71570F437
S1133CE0FF20E9F0809160058068809360058EE391
S1133CF090E060E20E944305FA9411C08FE18915B7
S1133D0088F4222001F18091600580688093600529
S1133D108EE390E060E20E9443052A9456C09FE13E
S1133D20991588F0AFE1AA1588F4332001F1809148
S1133D3060058068809360058EE390E060E20E94F5
S1133D4043053A9442C0BFE1BA1588F0EFE1E815A3
S1133D5088F4112301F180916005806880936005E7
S1133D608EE390E060E20E94430511502EC0FFE113
S1133D70F81588F08FE1861570F4002361F08091C6
S1133D8060058068809360058EE390E060E20E94A5
S1133D90430501501AC080916405909165058032F5
S1133DA0910598F480914808882379F08091600502
S1133DB08068809360058EE390E060E20E94430592
S1133DC08091480881508093480886B180FD91C055
S1133DD086B181FD8EC086B182FF8BC086B183FD22
S1133DE088C083B190E08F709070009709F081C013
S1133DF08091F605813208F47CC08091C80880FD6A
S1133E0078C090E2971570F4FF20E9F08091C8081B
S1133E1081608093C80880E490E061E20E944305D9
S1133E20FA9467C0A0E2A91588F4222001F18091D8
S1133E30C80881608093C8082A9480E490E061E215
S1133E400E94430556C0B0E2B91588F0E0E2EA15D5
S1133E5088F4332001F18091C80881608093C808F8
S1133E603A9480E490E061E20E94430542C0F0E2AB
S1133E70FA1588F080E2881588F4112301F1809105
S1133E80C80881608093C808115080E490E061E222
S1133E900E9443052EC090E2981588F0A0E2A61572
S1133EA070F4002361F08091C80881608093C80891
S1133EB0015080E490E061E20E9443051AC08091C1
S1133EC06405909165058132910598F480914808C4
S1133ED0882379F08091C80881608093C80880E4C1
S1133EE090E061E20E9443058091480881508093EC
S1133EF0480886B180FD8FC086B181FD8CC086B133
S1133F0082FF89C086B183FD86C083B18F70813002
S1133F1009F081C08091F605823208F47CC080915A
S1133F20C80881FD78C0B1E2B71570F4FF20E9F04C
S1133F308091C80882608093C808FA9482E490E073
S1133F4062E20E94430567C0E1E2E91588F4222099
S1133F5001F18091C80882608093C8082A9482E4A1
S1133F6090E062E20E94430556C0F1E2F91588F040
S1133F7081E28A1588F4332001F18091C8088260B7
S1133F808093C8083A9482E490E062E20E94430578
S1133F9042C091E29A1588F0A1E2A81588F4112391
S1133FA001F18091C80882608093C808115082E4AE
S1133FB090E062E20E9443052EC0B1E2B81588F099
S1133FC0E1E2E61570F4002361F08091C808826094
S1133FD08093C808015082E490E062E20E944305A5
S1133FE01AC080916405909165058232910598F418
S1133FF080914808882379F08091C8088260809372
S1134000C80882E490E062E20E9443058091480877
S113401081508093480886B180FD8FC086B181FDB0
S11340208CC086B182FF89C086B183FD86C083B10E
S11340308F70823009F081C08091F605833208F4D4
S11340407CC08091C80882FD78C0F2E2F71570F454
S1134050FF20E9F08091C80884608093C808FA942E
S113406084E490E063E20E94430567C082E289151C
S113407088F4222001F18091C80884608093C808E4
S11340802A9484E490E063E20E94430556C092E2DD
S1134090991588F0A2E2AA1588F4332001F18091E1
S11340A0C80884608093C8083A9484E490E063E28A
S11340B00E94430542C0B2E2BA1588F0E2E2E81574
S11340C088F4112301F18091C80884608093C808A2
S11340D0115084E490E063E20E9443052EC0F2E2B2
S11340E0F81588F082E2861570F4002361F080915F
S11340F0C80884608093C808015084E490E063E2B7
S11341000E9443051AC0809164059091650583322D
S1134110910598F480914808882379F08091C80823
S113412084608093C80884E490E063E20E944305BD
S11341308091480881508093480886B180FD8FC0E3
S113414086B181FD8CC086B182FF89C086B183FDB2
S113415086C083B18F70833009F081C08091F605E9
S1134160843208F47CC08091C80883FD78C093E24F
S1134170971570F4FF20E9F08091C8088860809357
S1134180C808FA9486E490E064E20E94430567C09C
S1134190A3E2A91588F4222001F18091C80888605F
S11341A08093C8082A9486E490E064E20E94430560
S11341B056C0B3E2B91588F0E3E2EA1588F4332077
S11341C001F18091C80888608093C8083A9486E415
S11341D090E064E20E94430542C0F3E2FA1588F0DD
S11341E083E2881588F4112301F18091C80888605E
S11341F08093C808115086E490E064E20E9443056D
S11342002EC093E2981588F0A3E2A61570F400235B
S113421061F08091C80888608093C808015086E4E2
S113422090E064E20E9443051AC080916405909175
S113423065058432910598F480914808882379F0C3
S11342408091C80888608093C80886E490E064E29E
S11342500E9443058091480881508093480886B1A4
S113426080FD8FC086B181FD8CC086B182FF89C07C
S113427086B183FD86C083B18F70843009F081C01C
S11342808091F605853208F47CC08091C80884FDCD
S113429078C0B4E2B71570F4FF20E9F08091C80843
S11342A080618093C808FA9488E490E065E20E94F3
S11342B0430567C0E4E2E91588F4222001F1809106
S11342C0C80880618093C8082A9488E490E065E275
S11342D00E94430556C0F4E2F91588F084E28A1579
S11342E088F4332001F18091C80880618093C80864
S11342F03A9488E490E065E20E94430542C094E267
S11343009A1588F0A4E2A81588F4112301F180918C
S1134310C80880618093C808115088E490E065E281
S11343200E9443052EC0B4E2B81588F0E4E2E61515
S113433070F4002361F08091C80880618093C808FC
S1134340015088E490E065E20E9443051AC0809120
S11343506405909165058532910598F4809148082B
S1134360882379F08091C80880618093C80888E424
S113437090E065E20E944305809148088150809353
S1134380480886B180FD8FC086B181FD8CC086B19E
S113439082FF89C086B183FD86C083B18F7085306A
S11343A009F081C08091F605863208F47CC08091C2
S11343B0C80885FD78C0F5E2F71570F4FF20E9F030
S11343C08091C80880628093C808FA948AE490E0D7
S11343D066E20E94430567C085E2891588F42220BD
S11343E001F18091C80880628093C8082A948AE405
S11343F090E066E20E94430556C095E2991588F064
S1134400A5E2AA1588F4332001F18091C8088062DE
S11344108093C8083A948AE490E066E20E944305D7
S113442042C0B5E2BA1588F0E5E2E81588F4112334
S113443001F18091C80880628093C80811508AE411
S113444090E066E20E9443052EC0F5E2F81588F07C
S113445085E2861570F4002361F08091C8088062BB
S11344608093C80801508AE490E066E20E94430504
S11344701AC080916405909165058632910598F47F
S113448080914808882379F08091C80880628093DD
S1134490C8088AE490E066E20E94430580914808D7
S11344A081508093480886B180FD8FC086B181FD1C
S11344B08CC086B182FF89C086B183FD86C083B17A
S11344C08F70863009F081C08091F605873208F438
S11344D07CC08091C80886FD78C096E2971570F478
S11344E0FF20E9F08091C80880648093C808FA949A
S11344F08CE490E067E20E94430567C0A6E2A91538
S113450088F4222001F18091C80880648093C8084F
S11345102A948CE490E067E20E94430556C0B6E218
S1134520B91588F0E6E2EA1588F4332001F18091A8
S1134530C80880648093C8083A948CE490E067E2E9
S11345400E94430542C0F6E2FA1588F086E2881517
S113455088F4112301F18091C80880648093C8080D
S113456011508CE490E067E20E9443052EC096E26D
S1134570981588F0A6E2A61570F4002361F08091E6
S1134580C80880648093C80801508CE490E067E216
S11345900E9443051AC08091640590916505873295
S11345A0910598F480914808882379F08091C8088F
S11345B080648093C8088CE490E067E20E9443051D
S11345C08091480881508093480886B180FD90C04E
S11345D086B181FD8DC086B182FF8AC086B183FD1C
S11345E087C083B18F70873009F082C08091F6054F
S11345F0883208F47DC08091C80888230CF478C000
S1134600B7E2B71570F4FF20E9F08091C80880681C
S11346108093C808FA948EE490E068E20E9443050F
S113462067C0E7E2E91588F4222001F18091C80807
S113463080688093C8082A948EE490E068E20E941F
S1134640430556C0F7E2F91588F087E28A1588F425
S1134650332001F18091C80880688093C8083A9497
S11346608EE490E068E20E94430542C097E29A1506
S113467088F0A7E2A81588F4112301F18091C808F5
S113468080688093C80811508EE490E068E20E942C
S113469043052EC0B7E2B81588F0E7E2E61570F4DA
S11346A0002361F08091C80880688093C808015095
S11346B08EE490E068E20E9443051AC0809164058C
S11346C0909165058832910598F480914808882373
S11346D079F08091C80880688093C8088EE490E0DF
S11346E068E20E94430580914808815080934808FD
S11346F086B180FD8FC086B181FD8CC086B182FFFA
S113470089C086B183FD86C083B18F70883009F07B
S113471081C08091F605893208F47CC08091CA0872
S113472080FD78C0F8E2F71570F4FF20E9F080917D
S1134730CA0881608093CA08FA9480E590E069E22F
S11347400E94430567C088E2891588F4222001F19C
S11347508091CA0881608093CA082A9480E590E019
S113476069E20E94430556C098E2991588F0A8E2D0
S1134770AA1588F4332001F18091CA0881608093DE
S1134780CA083A9480E590E069E20E94430542C079
S1134790B8E2BA1588F0E8E2E81588F4112301F1CB
S11347A08091CA0881608093CA08115080E590E026
S11347B069E20E9443052EC0F8E2F81588F088E209
S11347C0861570F4002361F08091CA08816080939B
S11347D0CA08015080E590E069E20E9443051AC0CE
S11347E080916405909165058932910598F48091D2
S11347F04808882379F08091CA0881608093CA08A8
S113480080E590E069E20E94430580914808815068
S11348108093480886B180FD8FC086B181FD8CC02D
S113482086B182FF89C086B183FD86C083B18F7053
S1134830893009F081C08091F6058A3208F47CC081
S11348408091CA0881FD78C099E2971570F4FF2021
S1134850E9F08091CA0882608093CA08FA9482E5DC
S113486090E06AE20E94430567C0A9E2A91588F4B2
S1134870222001F18091CA0882608093CA082A9498
S113488082E590E06AE20E94430556C0B9E2B91598
S113489088F0E9E2EA1588F4332001F18091CA082E
S11348A082608093CA083A9482E590E06AE20E94AA
S11348B0430542C0F9E2FA1588F089E2881588F4C4
S11348C0112301F18091CA0882608093CA081150B3
S11348D082E590E06AE20E9443052EC099E29815B1
S11348E088F0A9E2A61570F4002361F08091CA084B
S11348F082608093CA08015082E590E06AE20E94D7
S113490043051AC080916405909165058A3291052A
S113491098F480914808882379F08091CA088260CD
S11349208093CA0882E590E06AE20E944305809180
S1134930480881508093480886B180FD8FC086B1B5
S113494081FD8CC086B182FF89C086B183FD86C09B
S113495083B18F708A3009F081C08091F6058B3263
S113496008F47CC08091CA0882FD78C0BAE2B71509
S113497070F4FF20E9F08091CA0884608093CA082B
S1134980FA9484E590E06BE20E94430567C0EAE292
S1134990E91588F4222001F18091CA08846080938B
S11349A0CA082A9484E590E06BE20E94430556C04D
S11349B0FAE2F91588F08AE28A1588F4332001F1C5
S11349C08091CA0884608093CA083A9484E590E090
S11349D06BE20E94430542C09AE29A1588F0AAE26B
S11349E0A81588F4112301F18091CA08846080938A
S11349F0CA08115084E590E06BE20E9443052EC082
S1134A00BAE2B81588F0EAE2E61570F4002361F022
S1134A108091CA0884608093CA08015084E590E0BC
S1134A206BE20E9443051AC080916405909165056C
S1134A308B32910598F480914808882379F080910D
S1134A40CA0884608093CA0884E590E06BE20E94FF
S1134A5043058091480881508093480886B180FDC1
S1134A608FC086B181FD8CC086B182FF89C086B1BA
S1134A7083FD86C083B18F708B3009F081C0809133
S1134A80F6058C3208F47CC08091CA0883FD78C096
S1134A90FBE2F71570F4FF20E9F08091CA08886002
S1134AA08093CA08FA9486E590E06CE20E9443057C
S1134AB067C08BE2891588F4222001F18091CA082D
S1134AC088608093CA082A9486E590E06CE20E948C
S1134AD0430556C09BE2991588F0ABE2AA1588F409
S1134AE0332001F18091CA0888608093CA083A94FF
S1134AF086E590E06CE20E94430542C0BBE2BA1531
S1134B0088F0EBE2E81588F4112301F18091CA08DA
S1134B1088608093CA08115086E590E06CE20E9498
S1134B2043052EC0FBE2F81588F08BE2861570F47D
S1134B30002361F08091CA0888608093CA080150FC
S1134B4086E590E06CE20E9443051AC080916405FA
S1134B50909165058C32910598F4809148088823DA
S1134B6079F08091CA0888608093CA0886E590E04D
S1134B706CE20E9443058091480881508093480864
S1134B8086B180FD8FC086B181FD8CC086B182FF65
S1134B9089C086B183FD86C083B18F708C3009F0E3
S1134BA081C08091F6058D3208F47CC08091CA08DA
S1134BB084FD78C09CE2971570F4FF20E9F08091A1
S1134BC0CA0880618093CA08FA9488E590E06DE28F
S1134BD00E94430567C0ACE2A91588F4222001F1C4
S1134BE08091CA0880618093CA082A9488E590E07D
S1134BF06DE20E94430556C0BCE2B91588F0ECE2B0
S1134C00EA1588F4332001F18091CA088061809309
S1134C10CA083A9488E590E06DE20E94430542C0D8
S1134C20FCE2FA1588F08CE2881588F4112301F16E
S1134C308091CA0880618093CA08115088E590E089
S1134C406DE20E9443052EC09CE2981588F0ACE208
S1134C50A61570F4002361F08091CA0880618093E6
S1134C60CA08015088E590E06DE20E9443051AC02D
S1134C7080916405909165058D32910598F4809139
S1134C804808882379F08091CA0880618093CA0813
S1134C9088E590E06DE20E944305809148088150C8
S1134CA08093480886B180FD80C086B181FD7DC0B7
S1134CB086B182FF7AC086B183FD77C083B18F70DD
S1134CC08D3009F072C08091F6058E3208F46DC003
S1134CD08091CA0885FD69C0BDE2B71580F0B91599
S1134CE088F4222001F18091CA0880628093CA0866
S1134CF02A948AE590E06EE20E94430556C0EDE2F4
S1134D00E91588F0FDE2FA1588F4332001F1809169
S1134D10CA0880628093CA083A948AE590E06EE2F9
S1134D200E94430542C08DE28A1588F09DE29815E1
S1134D3088F4112301F18091CA0880628093CA0823
S1134D4011508AE590E06EE20E9443052EC0ADE268
S1134D50A81588F0BDE2B61570F4002361F08091C7
S1134D60CA0880628093CA0801508AE590E06EE226
S1134D700E9443051AC080916405909165058E32A6
S1134D80910598F480914808882379F08091CA08A5
S1134D9080628093CA088AE590E06EE20E9443052F
S1134DA08091480881508093480886B180FD80C076
S1134DB086B181FD7DC086B182FF7AC086B183FD54
S1134DC077C083B18F708E3009F072C08091F60580
S1134DD08F3208F46DC08091CA0886FD69C0EEE286
S1134DE0E71580F0E91588F4222001F18091CA08C2
S1134DF080648093CA082A948CE590E06FE20E9454
S1134E00430556C0FEE2F91588F08EE28A1588F44F
S1134E10332001F18091CA0880648093CA083A94CF
S1134E208CE590E06FE20E94430542C09EE29A1531
S1134E3088F0AEE2A81588F4112301F18091CA0824
S1134E4080648093CA0811508CE590E06FE20E9460
S1134E5043052EC0BEE2B81588F0EEE2E61570F404
S1134E60002361F08091CA0880648093CA080150CD
S1134E708CE590E06FE20E9443051AC080916405BE
S1134E80909165058F32910598F4809148088823A4
S1134E9079F08091CA0880648093CA088CE590E018
S1134EA06FE20E944305809148088150809348082E
S1134EB086B180FD81C086B181FD7EC086B182FF4E
S1134EC07BC086B183FD78C083B18F708F3009F0C9
S1134ED073C08091F605803308F46EC08091CA08CF
S1134EE088230CF469C0FFE2F71580F0F91588F403
S1134EF0222001F18091CA0880688093CA082A940C
S1134F008EE590E060E30E94430556C08FE2891568
S1134F1088F09FE29A1588F4332001F18091CA0841
S1134F2080688093CA083A948EE590E060E30E941A
S1134F30430542C0AFE2AA1588F0BFE2B81588F471
S1134F40112301F18091CA0880688093CA08115026
S1134F508EE590E060E30E9443052EC0EFE2E81581
S1134F6088F0FFE2F61570F4002361F08091CA081E
S1134F7080688093CA0801508EE590E060E30E9447
S1134F8043051AC0809164059091650580339105AD
S1134F9098F480914808882379F08091CA08806841
S1134FA08093CA088EE590E060E30E9443058091F7
S1134FB0480881508093480886B180FD82C086B13C
S1134FC081FD7FC086B182FD7CC086B183FF79C03C
S1134FD083B190E08F709070009709F072C0809157
S1134FE0F605813308F46DC08091670580FD69C0C2
S1134FF080E3871580F0891588F4222001F18091DF
S113500067058160809367052A9480E690E061E3F8
S11350100E94430556C090E3991588F0A0E3AA15B1
S113502088F4332001F180916705816080936705DE
S11350303A9480E690E061E30E94430542C0B0E305
S1135040BA1588F0E0E3E81588F4112301F18091A2
S11350506705816080936705115080E690E061E305
S11350600E9443052EC0F0E3F81588F080E386150E
S113507070F4002361F08091670581608093670577
S1135080015080E690E061E30E9443051AC08091DC
S11350906405909165058133910598F480914808E1
S11350A0882379F08091670581608093670580E6A5
S11350B090E061E30E944305809148088150809309
S11350C0480886B180FD80C086B181FD7DC086B16F
S11350D082FD7AC086B183FF77C083B18F7081303F
S11350E009F072C08091F605823308F46DC0809196
S11350F0670581FD69C091E3971580F0991588F4DF
S1135100222001F1809167058260809367052A94CB
S113511082E690E062E30E94430556C0A1E3A9152C
S113512088F0B1E3BA1588F4332001F18091670562
S11351308260809367053A9482E690E062E30E947D
S1135140430542C0E1E3EA1588F0F1E3F81588F479
S1135150112301F1809167058260809367051150E6
S113516082E690E062E30E9443052EC081E3881545
S113517088F091E3961570F4002361F0809167053F
S1135180826080936705015082E690E062E30E94AA
S113519043051AC080916405909165058233910599
S11351A098F480914808882379F08091670582609B
S11351B08093670582E690E062E30E944305809154
S11351C0480881508093480886B180FD80C086B12C
S11351D081FD7DC086B182FD7AC086B183FF77C030
S11351E083B18F70823009F072C08091F6058333E9
S11351F008F46DC08091670582FD69C0A2E3A7151C
S113520080F0A91588F4222001F18091670584605B
S1135210809367052A9484E690E063E30E94430543
S113522056C0B2E3B91588F0E2E3EA1588F43320F6
S113523001F1809167058460809367053A9484E660
S113524090E063E30E94430542C0F2E3FA1588F05C
S113525082E3881588F4112301F180916705846045
S113526080936705115084E690E063E30E94430550
S11352702EC092E3981588F0A2E3A61570F40023DB
S113528061F080916705846080936705015084E62E
S113529090E063E30E9443051AC0809164059091F5
S11352A065058333910598F480914808882379F043
S11352B08091670584608093670584E690E063E3EA
S11352C00E9443058091480881508093480886B124
S11352D080FD80C086B181FD7DC086B182FD7AC02B
S11352E086B183FF77C083B18F70833009F072C0B9
S11352F08091F605843308F46DC08091670583FDC1
S113530069C0B3E3B71580F0B91588F4222001F120
S1135310809167058860809367052A9486E690E00B
S113532064E30E94430556C0E3E3E91588F0F3E320
S1135330FA1588F4332001F1809167058860809321
S113534067053A9486E690E064E30E94430542C010
S113535083E38A1588F093E3981588F4112301F107
S113536080916705886080936705115086E690E018
S113537064E30E9443052EC0A3E3A81588F0B3E3B9
S1135380B61570F4002361F08091670588608093FE
S11353906705015086E690E064E30E9443051AC065
S11353A080916405909165058433910598F480910A
S11353B04808882379F080916705886080936705A1
S11353C086E690E064E30E9443058091480881509A
S11353D08093480886B180FD80C086B181FD7DC080
S11353E086B182FD7AC086B183FF77C083B18F70A6
S11353F0843009F072C08091F605853308F46DC0DD
S11354008091670584FD69C0E4E3E71580F0E91540
S113541088F4222001F180916705806180936705FB
S11354202A9488E690E065E30E94430556C0F4E3BD
S1135430F91588F084E38A1588F4332001F180910A
S113544067058061809367053A9488E690E065E398
S11354500E94430542C094E39A1588F0A4E3A8157A
S113546088F4112301F180916705806180936705B9
S1135470115088E690E065E30E9443052EC0B4E332
S1135480B81588F0E4E3E61570F4002361F0809128
S11354906705806180936705015088E690E065E3C5
S11354A00E9443051AC08091640590916505853377
S11354B0910598F480914808882379F080916705D4
S11354C080618093670588E690E065E30E94430568
S11354D08091480881508093480886B180FD80C03F
S11354E086B181FD7DC086B182FD7AC086B183FF1D
S11354F077C083B18F70853009F072C08091F60552
S1135500863308F46DC08091670585FD69C0F5E3B5
S1135510F71580F0F91588F4222001F180916705D0
S11355208062809367052A948AE690E066E30E948D
S1135530430556C085E3891588F095E39A1588F4E8
S1135540332001F1809167058062809367053A9466
S11355508AE690E066E30E94430542C0A5E3AA15EB
S113556088F0B5E3B81588F4112301F1809167053B
S113557080628093670511508AE690E066E30E949A
S113558043052EC0E5E3E81588F0F5E3F61570F45D
S1135590002361F080916705806280936705015064
S11355A08AE690E066E30E9443051AC08091640590
S11355B0909165058633910598F480914808882375
S11355C079F0809167058062809367058AE690E0B0
S11355D066E30E94430580914808815080934808FF
S11355E086B180FD80C086B181FD7DC086B182FD1B
S11355F07AC086B183FF77C083B18F70863009F09B
S113560072C08091F605873308F46DC080916705F8
S113561086FD69C086E3871580F0891588F4222009
S113562001F1809167058064809367052A948CE674
S113563090E067E30E94430556C096E3991588F00D
S1135640A6E3AA1588F4332001F1809167058064EC
S1135650809367053A948CE690E067E30E944305E3
S113566042C0B6E3BA1588F0E6E3E81588F41123DE
S113567001F18091670580648093670511508CE681
S113568090E067E30E9443052EC0F6E3F81588F026
S113569086E3861570F4002361F0809167058064C9
S11356A08093670501508CE690E067E30E94430510
S11356B01AC080916405909165058733910598F42B
S11356C080914808882379F08091670580648093ED
S11356D067058CE690E067E30E94430580914808E3
S11356E081508093480886B180FD81C086B181FDD8
S11356F07EC086B182FD7BC086B183FF78C083B152
S11357008F70873009F073C08091F605883308F4F0
S11357106EC08091670588230CF469C097E39715E0
S113572080F0991588F4222001F180916705806842
S1135730809367052A948EE690E068E30E9443050F
S113574056C0A7E3A91588F0B7E3BA1588F4332047
S113575001F1809167058068809367053A948EE62D
S113576090E068E30E94430542C0E7E3EA1588F04D
S1135770F7E3F81588F4112301F180916705806837
S11357808093670511508EE690E068E30E9443051C
S11357902EC087E3881588F097E3961570F40023EC
S11357A061F08091670580688093670501508EE6FB
S11357B090E068E30E9443051AC0809164059091CB
S11357C065058833910598F480914808882379F019
S11357D0809167058068809367058EE690E068E3B2
S11357E00E9443058091480881508093480886B1FF
S11357F080FD80C086B181FD7DC086B182FD7AC006
S113580086B183FF77C083B18F70883009F072C08E
S11358108091F605893308F46DC08091540880FDA9
S113582069C0A8E3A71580F0A91588F4222001F126
S1135830809154088160809354082A9480E790E012
S113584069E30E94430556C0B8E3B91588F0E8E35C
S1135850EA1588F4332001F1809154088160809323
S113586054083A9480E790E069E30E94430542C0FB
S1135870F8E3FA1588F088E3881588F4112301F118
S113588080915408816080935408115080E790E01F
S113589069E30E9443052EC098E3981588F0A8E3B5
S11358A0A61570F4002361F0809154088160809300
S11358B05408015080E790E069E30E9443051AC050
S11358C080916405909165058933910598F48091E0
S11358D04808882379F080915408816080935408A3
S11358E080E790E069E30E94430580914808815075
S11358F08093480886B180FD80C086B181FD7DC05B
S113590086B182FD7AC086B183FF77C083B18F7080
S1135910893009F072C08091F6058A3308F46DC0AD
S11359208091540881FD69C0B9E3B71580F0B915B9
S113593088F4222001F180915408826080935408F5
S11359402A9482E790E06AE30E94430556C0E9E3A3
S1135950E91588F0F9E3FA1588F4332001F1809110
S113596054088260809354083A9482E790E06AE392
S11359700E94430542C089E38A1588F099E398158B
S113598088F4112301F180915408826080935408B3
S1135990115082E790E06AE30E9443052EC0A9E318
S11359A0A81588F0B9E3B61570F4002361F080916E
S11359B05408826080935408015082E790E06AE3BF
S11359C00E9443051AC080916405909165058A334D
S11359D0910598F480914808882379F080915408BF
S11359E082608093540882E790E06AE30E94430552
S11359F08091480881508093480886B180FD80C01A
S1135A0086B181FD7DC086B182FD7AC086B183FFF7
S1135A1077C083B18F708A3009F072C08091F60527
S1135A208B3308F46DC08091540882FD69C0EAE3A9
S1135A30E71580F0E91588F4222001F180915408DB
S1135A408460809354082A9484E790E06BE30E9476
S1135A50430556C0FAE3F91588F08AE38A1588F4F9
S1135A60332001F1809154088460809354083A945F
S1135A7084E790E06BE30E94430542C09AE39A15E1
S1135A8088F0AAE3A81588F4112301F18091540841
S1135A90846080935408115084E790E06BE30E9483
S1135AA043052EC0BAE3B81588F0EAE3E61570F4AE
S1135AB0002361F08091540884608093540801505D
S1135AC084E790E06BE30E9443051AC0809164056B
S1135AD0909165058B33910598F48091480888234B
S1135AE079F08091540884608093540884E790E0AE
S1135AF06BE30E94430580914808815080934808D5
S1135B0086B180FD80C086B181FD7DC086B182FDF5
S1135B107AC086B183FF77C083B18F708B3009F070
S1135B2072C08091F6058C3308F46DC080915408DE
S1135B3083FD69C0FBE3F71580F0F91588F4222092
S1135B4001F1809154088860809354082A9486E770
S1135B5090E06CE30E94430556C08BE3891588F0FE
S1135B609BE39A1588F4332001F1809154088860EE
S1135B70809354083A9486E790E06CE30E944305CE
S1135B8042C0ABE3AA1588F0BBE3B81588F411232F
S1135B9001F180915408886080935408115086E77D
S1135BA090E06CE30E9443052EC0EBE3E81588F017
S1135BB0FBE3F61570F4002361F0809154088860CB
S1135BC080935408015086E790E06CE30E944305FB
S1135BD01AC080916405909165058C33910598F401
S1135BE080914808882379F08091540888608093D4
S1135BF0540886E790E06CE30E94430580914808CE
S1135C0081508093480886B180FD6CC086B181FDC7
S1135C1069C086B182FD66C086B183FF63C083B16B
S1135C208F708C3009F05EC08091F6058D3308F4D6
S1135C3059C08091540884FD55C08CE3891580F0C7
S1135C408A1588F4332001F180915408806180938F
S1135C5054083A9488E790E06DE30E94430542C0FB
S1135C609CE39A1588F0ACE3A81588F4112301F19C
S1135C7080915408806180935408115088E790E023
S1135C806DE30E9443052EC0BCE3B81588F0ECE335
S1135C90E61570F4002361F08091540880618093CC
S1135CA05408015088E790E06DE30E9443051AC050
S1135CB080916405909165058D33910598F48091E8
S1135CC04808882379F080915408806180935408AF
S1135CD088E790E06DE30E94430580914808815075
S1135CE08093480886B180FD6CC086B181FD69C08F
