:100000000C9472000C9494000C9494000C94940042
:100010000C9494000C9494000C9494000C94940010
:100020000C9494000C9494000C9494000C94940000
:100030000C9494000C9494000C9494000C949400F0
:100040000C9494000C9494000C9494000C949400E0
:100050000C9494000C9494000C9494000C949400D0
:100060000C9494000C940B310C9494000C94940018
:100070000C9494000C9494000C9494000C949400B0
:100080000C9494000C9494000C9494000C949400A0
:100090000C9494000C9494000C9494000C94940090
:1000A0000C9494000C9494000C9494000C94940080
:1000B0000C9494000C9494000C9494000C94940070
:1000C0000C9494000C9494000C9494000C94940060
:1000D0000C9494000C9494000C9494000C94940050
:1000E0000C94940011241FBECFEFD1E2DEBFCDBF30
:1000F00000E00CBF14E0A0E0B2E0E0EDF1E700E0CA
:100100000BBF02C007900D92AE3DB107D9F71BBEE1
:1001100016E0AEEDB4E001C01D92AA34B107E1F7DC
:100120000E9491320C94E6380C940000E0ECF0E070
:10013000908195FFFDCF8093C6000895CF93DF9304
:10014000EC018881882331F021960E9496008991E4
:100150008823D9F7DF91CF910895CF93DF9360E1A2
:1001600077E20E94BC38EC01862F80630E949600E3
:10017000CE0168EE73E00E94BC38EC01862F8063EC
:100180000E949600CE0164E670E00E94BC38EC014B
:10019000862F80630E949600CE016AE070E00E9484
:1001A000BC38C82F862F80630E9496008C2F8063F6
:1001B0000E949600DF91CF910895ECEBF0E08081F2
:1001C000846980830895ECEBF0E0108294EA9083D8
:1001D00090819923ECF79091B900987F9830A1F421
:1001E0008093BB0084E88093BC00ECEBF0E080815E
:1001F0008823ECF79091B900987F983139F081E02D
:10020000903429F480E0089581E0089580E0089515
:100210008093BB0084E88093BC00ECEBF0E080812D
:100220008823ECF79091B900987F81E0983209F427
:1002300080E00895DF92EF92FF920F931F93CF9388
:10024000DF93C62F072FD42FD52E79010E94E3000C
:100250008823E1F4802F0E9408018C2F0E9408015E
:10026000E114F10479F00D2F1D2DC0E0D0E0F8016C
:1002700081918F010E940801882351F42196CE15A7
:10028000DF05A9F70E94DD0080E003C081E001C026
:1002900081E0DF91CF911F910F91FF90EF90DF9060
:1002A000089584EC8093BC00ECEBF0E0808188231F
:1002B000ECF78091BB00089584E88093BC00ECEBE0
:1002C000F0E080818823ECF78091BB000895AF9225
:1002D000BF92CF92DF92EF92FF920F931F93CF9333
:1002E000DF93C82FE62E072F5A0169010E94E30011
:1002F000882339F5802F0E9408018E2D0E94080165
:100300008C2F81600E94E3008823E9F4E6012197A5
:1003100069F0750100E010E00E945101F70181933E
:100320007F010F5F1F4F0C171D07B0F3E6012197E8
:10033000CA0DDB1D0E945C0188830E94DD0080E005
:1003400003C081E001C081E0DF91CF911F910F9147
:10035000FF90EF90DF90CF90BF90AF900895EF9215
:10036000FF920F931F93CF93DF93FC018081803422
:1003700009F03FC0EE24FF246894E1F8EE0EFF1E62
:10038000028110E00F5F1F4F6091DB047091DC046D
:10039000E181F0E0CFEDD4E0EE0FFF1FEC0FFD1F89
:1003A0007183608380EAA70198010E941A018091FD
:1003B000DB049091DC040196800F911F9093DC0484
:1003C0008093DB048FEF9FE1ACE181509040A0402F
:1003D000E1F700C0000080EA90E060E071E0AE016B
:1003E00020E430E00E948B0380E092E00E949E00B7
:1003F000F70180818F3399F5C181D0E0CC0FDD1FEB
:10040000C152DB4F6881798103E416E080EAA801DC
:1004100021E030E00E946701AFEFB9E51197F1F7F5
:1004200000C00000E0904306FF24688179816F5F7F
:100430007F4F80EAA80197010E946701E114F1044F
:1004400071F0C0E0F801EC0FF11D808190E00E9496
:100450009600CF5F8C2F90E08E159F0598F3DF916B
:10046000CF911F910F91FF90EF9008958F929F92DF
:10047000AF92BF92DF92EF92FF920F931F93CF93B1
:10048000DF934B01C82FD0E0CC0FDD1FC152DB4FF3
:100490006881798103E416E080EAA80121E030E078
:1004A0000E946701D09043068FEF9FE9A5E081503D
:1004B0009040A040E1F700C00000688179816F5F43
:1004C0007F4F80EAA8012D2D30E00E9467010F2E9A
:1004D000FEE9AF2EF0E0BF2EF02D83E092E0F501B3
:1004E00019950F2EF6E9EF2EF0E0FF2EF02D8AE0A1
:1004F00090E0F70119958CE192E0F5011995C4019E
:100500000E94AD008AE090E0F701199588E292E040
:10051000F50119958AE090E0F7011995DD2071F059
:10052000E8012196DA94CD0DD11DD8018D918D0170
:1005300090E0F70119950C171D07B9F78AE090E0D4
:10054000F701199583E092E0F50119958AE090E0B2
:10055000F70119958AE090E0F70119958AE090E09B
:10056000F70119958AE090E0F7011995DF91CF9195
:100570001F910F91FF90EF90DF90BF90AF909F90F1
:100580008F9008958FEF81B9539A549A5B98579A38
:10059000569A989A999AEAE0F1E090819D7F90832B
:1005A00090819B7F9083A198A09AEBE0F1E09081ED
:1005B000926090839081946090839D9AA59A17B8D9
:1005C00088B9089587E78093C4001092C50088E930
:1005D0008093C1000895E0ECF0E080818823ECF77F
:1005E0008091C600089582B95F985E9A8FEF93E27A
:1005F0000197F1F700C000005E980895FC0180812A
:10060000882371F0319682B95F9A5E9A8FEF93E2F8
:100610000197F1F700C000005E988191882399F757
:10062000089582B95F9A5E9A8FEF93E20197F1F78E
:1006300000C000005E9808952AE030E0B9010E94F1
:10064000BC3890933E0680933D06CB01B9010E94D1
:10065000BC38EBE3F6E080839183805D82B95F9ADA
:100660005E9A8FEF93E20197F1F700C000005E9869
:1006700080913D06805D82B95F9A5E9A8FEF93E22A
:100680000197F1F700C000005E980895CF93DF93C3
:10069000E3E4F6E0EF0128972AE030E0B9010E9498
:1006A000BC3892938293862F972FEC17FD07B1F7F2
:1006B000EBE3F6E0289680813296805D82B95F9AFE
:1006C0005E9A8FEF93E20197F1F700C000005E9809
:1006D000EC17FD0781F7DF91CF91089585E08093B6
:1006E000B80084E08093BC000895ECEBF0E084EA6D
:1006F000808380818F7D808380818823ECF70895BB
:100700008093BB0084E88093BC00ECEBF0E0808138
:100710008823ECF70895CF92DF92EF92FF921F9318
:10072000CF93DF93C82FE62E172F6A01D22F0E9496
:1007300075038C2F0E9480038091F705882314F4A1
:100740000E94DD008091F70588238CF3812F0E94A1
:1007500080038E2D0E948003ED2EFF240894E10873
:10076000F108FF20CCF010E0C12FD0E0CC0FDD1F4E
:10077000CC0DDD1D89810E94800388810E94800349
:100780008FEF93EB0197F1F700C000001F5F812FFF
:1007900090E0E816F90644F70E94DD008FEF93EB36
:1007A0000197F1F700C00000DF91CF911F91FF90FA
:1007B000EF90DF90CF900895813021F484EC809306
:1007C000BC0005C0882319F484E88093BC00ECEBDE
:1007D000F0E080818823ECF78091BB008093EB05EB
:1007E00008951F93CF93DF93C82FD62F172F0E9402
:1007F00075038C2F0E948003812F0E9480038D2F10
:100800000E9480030E94DD008FEF91E10197F1F7D4
:1008100000C000000E9475038C2F8F5F0E94800330
:1008200080E00E94DC030E94DD008091EB05DF91F7
:10083000CF911F910895CF93DF93C82FD92F0E9496
:10084000750380EA0E9480038D2F0E9480038C2F05
:100850000E9480030E94DD008FEF91E10197F1F784
:1008600000C000000E94750381EA0E94800381E0BD
:100870000E94DC032091EB05922F80E090936205AB
:10088000809361050E94DC032091EB058091610556
:1008900090916205820F911D90936205809361058E
:1008A0000E94DD00DF91CF910895FF920F931F9377
:1008B000CF93DF93C82F062FF72ED42F152F0E942A
:1008C00075038C2F0E9480038091F705882314F410
:1008D0000E94DD008091F70588238CF38F2D0E9404
:1008E0008003802F0E948003812F0E9480038D2F20
:1008F0000E9480030E94DD008FEF93EB0197F1F7D8
:1009000000C00000DF91CF911F910F91FF900895DB
:10091000AF92BF92CF92DF92EF92FF920F931F930D
:10092000CF93DF936B015A018A01EB01C05CDF4F6B
:100930007B01C7010E941B048091610590916205B3
:10094000D8018D939D938D01E2E0F0E0EE0EFF1E45
:100950008FEF93EB0197F1F700C00000EC16FD0656
:1009600041F78FEF9FE1ACE181509040A040E1F76B
:1009700000C00000E501C05CDF4F86010E571F4F2D
:10098000C7010E941B0480916105909162058993C3
:100990009993A2E0B0E0EA0EFB1EEFEFF3EB319784
:1009A000F1F700C00000E016F10651F7DF91CF919A
:1009B0001F910F91FF90EF90DF90CF90BF90AF907D
:1009C0000895EF92FF920F931F93CF93DF93182F09
:1009D000F62E072FE42EC9EBD0E00E947503812F7D
:1009E0000E9480038881887F803211F40E94DD009C
:1009F0008881887F803289F386EE90E00197F1F755
:100A00000000802F0E9480038F2D0E9480038E2D76
:100A10000E9480030E94DD008FEF93EB0197F1F7B6
:100A200000C00000DF91CF911F910F91FF90EF90D8
:100A300008950F931F93CF93DF93182F062FC9EBC1
:100A4000D0E00E947503812F0E9480038881887FF7
:100A5000803211F40E94DD008881887F803289F322
:100A600086EE90E00197F1F70000802F0E9480034E
:100A70000E94DD00DF91CF911F910F9108951F9388
:100A8000CF93DF93C82FD92F162F8091F60582348C
:100A900009F05CC081E00E94F3028BE392E00E94C7
:100AA000FE028C2F9D2F0E941B048FEF9FE9A5E073
:100AB00081509040A040E1F700C000008091E8051F
:100AC000843451F48091610590916205029690936F
:100AD00062058093610509C080916105909162056E
:100AE0000196909362058093610540916105509154
:100AF000620580EA6C2F7D2F0E9455048091ED05E0
:100B000081508093ED058091F105882349F480910F
:100B100035069091360601969093360680933506F9
:100B200081E08093F1058091F70580628093F7055D
:100B300080E8612F0E941905A19AA098609135065E
:100B400070913606812F0E94360229C08091F105EE
:100B5000882319F481E08093F1058091F705806284
:100B60008093F7058091320690E0880F991FFC0171
:100B7000E859FA4FC083D1836C2F0E94D8388091F6
:100B800032068F5F809332068091ED05815080930D
:100B9000ED0580E8612F0E941905A19AA098DF91C8
:100BA000CF911F9108958091630580FF04C080E874
:100BB00061E00E9419058CEC91E00197F1F700C00B
:100BC00000008091630581FF04C080E862E00E941C
:100BD00019058CEC91E00197F1F700C000008091BD
:100BE000630582FF04C080E863E00E9419058CEC75
:100BF00091E00197F1F700C000008091630583FF49
:100C000004C080E864E00E9419058CEC91E0019733
:100C1000F1F700C000008091630584FF04C080E804
:100C200065E00E9419058CEC91E00197F1F700C096
:100C300000008091630585FF04C080E866E00E94A3
:100C400019058CEC91E00197F1F700C0000080914C
:100C5000630586FF04C080E867E00E9419058CECFC
:100C600091E00197F1F700C00000809163058823AF
:100C700024F480E868E00E9419058CEC91E001976B
:100C8000F1F700C0000080912D0680FF04C080E8CD
:100C900069E00E9419058CEC91E00197F1F700C022
:100CA000000080912D0681FF04C080E86AE00E9468
:100CB00019058CEC91E00197F1F700C000008091DC
:100CC0002D0682FF04C080E86BE00E9419058CECC1
:100CD00091E00197F1F700C0000080912D0683FF9D
:100CE00004C080E86CE00E9419058CEC91E001974B
:100CF000F1F700C0000080912D0684FF04C080E859
:100D00006DE00E9419058CEC91E00197F1F700C0AD
:100D1000000080912D0685FF04C080E86EE00E94EF
:100D200019058CEC91E00197F1F700C0000080916B
:100D30002D0686FF04C080E86FE00E9419058CEC48
:100D400091E00197F1F700C0000080912D06882303
:100D500024F480E860E10E9419058CEC91E0019791
:100D6000F1F700C000008091F30580FF04C080E827
:100D700061E10E9419058CEC91E00197F1F700C048
:100D800000008091F30581FF04C080E862E10E94C9
:100D900019058CEC91E00197F1F700C000008091FB
:100DA000F30582FF04C080E863E10E9419058CEC22
:100DB00091E00197F1F700C000008091F30583FFF7
:100DC00004C080E864E10E9419058CEC91E0019771
:100DD000F1F700C000008091F30584FF04C080E8B3
:100DE00065E10E9419058CEC91E00197F1F700C0D4
:100DF00000008091F30585FF04C080E866E10E9451
:100E000019058CEC91E00197F1F700C0000080918A
:100E1000F30586FF04C080E867E10E9419058CECA9
:100E200091E00197F1F700C000008091F30588235D
:100E300024F480E868E10E9419058CEC91E00197A8
:100E4000F1F700C000008091600580FF04C080E8D9
:100E500069E10E9419058CEC91E00197F1F700C05F
:100E600000008091600581FF04C080E86AE10E9473
:100E700019058CEC91E00197F1F700C0000080911A
:100E8000600582FF04C080E86BE10E9419058CECCC
:100E900091E00197F1F700C000008091600583FFA9
:100EA00004C080E86CE10E9419058CEC91E0019788
:100EB000F1F700C000008091600584FF04C080E865
:100EC0006DE10E9419058CEC91E00197F1F700C0EB
:100ED00000008091600585FF04C080E86EE10E94FB
:100EE00019058CEC91E00197F1F700C000008091AA
:100EF000600586FF04C080E86FE10E9419058CEC54
:100F000091E00197F1F700C000008091600588230F
:100F100024F480E860E20E9419058CEC91E00197CE
:100F2000F1F700C000008091380680FF04C080E81F
:100F300061E20E9419058CEC91E00197F1F700C085
:100F400000008091380681FF04C080E862E20E94C0
:100F500019058CEC91E00197F1F700C00000809139
:100F6000380682FF04C080E863E20E9419058CEC19
:100F700091E00197F1F700C000008091380683FFEF
:100F800004C080E864E20E9419058CEC91E00197AE
:100F9000F1F700C000008091380684FF04C080E8AB
:100FA00065E20E9419058CEC91E00197F1F700C011
:100FB00000008091380685FF04C080E866E20E9448
:100FC00019058CEC91E00197F1F700C000008091C9
:100FD000380686FF04C080E867E20E9419058CECA1
:100FE00091E00197F1F700C0000080913806882356
:100FF00024F480E868E20E9419058CEC91E00197E6
:10100000F1F700C0000080913A0680FF04C080E83C
:1010100069E20E9419058CEC91E00197F1F700C09C
:10102000000080913A0681FF04C080E86AE20E94D5
:1010300019058CEC91E00197F1F700C00000809158
:101040003A0682FF04C080E86BE20E9419058CEC2E
:1010500091E00197F1F700C0000080913A0683FF0C
:1010600004C080E86CE20E9419058CEC91E00197C5
:10107000F1F700C0000080913A0684FF04C080E8C8
:101080006DE20E9419058CEC91E00197F1F700C028
:10109000000080913A0685FF04C080E86EE20E945D
:1010A00019058CEC91E00197F1F700C000008091E8
:1010B0003A0686FF04C080E86FE20E9419058CECB6
:1010C00091E00197F1F700C0000080913A06882373
:1010D00024F480E860E30E9419058CEC91E001970C
:1010E000F1F700C000008091670580FF04C080E830
:1010F00061E30E9419058CEC91E00197F1F700C0C3
:1011000000008091670581FF04C080E862E30E94CF
:1011100019058CEC91E00197F1F700C00000809177
:10112000670582FF04C080E863E30E9419058CEC28
:1011300091E00197F1F700C000008091670583FFFF
:1011400004C080E864E30E9419058CEC91E00197EB
:10115000F1F700C000008091670584FF04C080E8BB
:1011600065E30E9419058CEC91E00197F1F700C04E
:1011700000008091670585FF04C080E866E30E9457
:1011800019058CEC91E00197F1F700C00000809107
:10119000670586FF04C080E867E30E9419058CECB0
:1011A00091E00197F1F700C0000080916705882366
:1011B00024F480E868E30E9419058CEC91E0019723
:1011C000F1F700C000008091330680FF04C080E882
:1011D00069E30E9419058CEC91E00197F1F700C0DA
:1011E00000008091330681FF04C080E86AE30E941A
:1011F00019058CEC91E00197F1F700C00000809197
:10120000330682FF04C080E86BE30E9419058CEC72
:1012100091E00197F1F700C000008091330683FF51
:1012200004C080E86CE30E9419058CEC91E0019702
:10123000F1F700C000008091330684FF04C080E80D
:101240006DE30E9419058CEC91E00197F1F700C065
:1012500000008091330685FF04C080E86EE30E94A1
:1012600019058CEC91E00197F1F700C00000809126
:10127000330686FF04C080E86FE30E9419058CECFA
:1012800091E00197F1F700C00000809133068823B8
:1012900024F480E860E40E9419058CEC91E0019749
:1012A000F1F700C0000008952F923F924F925F9295
:1012B0006F927F928F929F92AF92BF92CF92DF9266
:1012C000EF92FF920F931F93CF93DF930F92CDB7BF
:1012D000DEB780EA60E870E00E94F1038F708983D6
:1012E00080EA60E870E00E94F103E82E80EA60E89E
:1012F00070E00E94F10382958F709E2D9F70582E92
:10130000590E80EA60E870E00E94F103D82E80EA6E
:1013100060E870E00E94F10382958F709D2D9F70B0
:10132000E82EE90E80EA61E870E00E94F1038F7018
:101330007E2C780E80EA60E870E00E94F103D82EDF
:1013400080EA60E870E00E94F103E82EE694E694FB
:10135000E694E6949D2D9F70E90E80EA61E870E0C6
:101360000E94F1038F70E80E80EA61E870E00E944D
:10137000F10382958F709E2C980E80EA60E870E0F1
:101380000E94F103D82E80EA60E870E00E94F10329
:10139000E82EE694E694E694E6949D2D9F70E90E7F
:1013A00080EA61E870E00E94F1038F70E80E80EA45
:1013B00061E870E00E94F10382958F70E80E80EA88
:1013C00062E870E00E94F1038F70AE2CA80E80EAF4
:1013D00060E870E00E94F103D82E80EA60E870E0D7
:1013E0000E94F103E82EE694E694E694E6949D2D9F
:1013F0009F70E90E80EA61E870E00E94F1038F704F
:10140000E80E80EA61E870E00E94F10382958F7037
:10141000E80E80EA62E870E00E94F1038F70E80E47
:1014200080EA62E870E00E94F10382958F708E2C52
:10143000880E80EA60E870E00E94F103D82E80EA0E
:1014400060E870E00E94F103E82EE694E694E694EA
:10145000E6949D2D9F70E90E80EA61E870E00E949D
:10146000F1038F70E80E80EA61E870E00E94F103FA
:1014700082958F70E80E80EA62E870E00E94F103C6
:101480008F70E80E80EA62E870E00E94F1038295B6
:101490008F70E80E80EA63E870E00E94F1038F70BD
:1014A0006E2C680E80EA60E870E00E94F103D82E8E
:1014B00080EA60E870E00E94F103E82EE694E6948A
:1014C000E694E6949D2D9F70E90E80EA61E870E055
:1014D0000E94F1038F70E80E80EA61E870E00E94DC
:1014E000F10382958F70E80E80EA62E870E00E9456
:1014F000F1038F70E80E80EA62E870E00E94F10369
:1015000082958F70E80E80EA63E870E00E94F10334
:101510008F70E80E80EA63E870E00E94F103829524
:101520008F70E80E8091F70585FD2CC080EA68E891
:1015300070E00E94F103B82E80EA69E870E00E9432
:10154000F103C82E80EA6AE870E00E94F103F82EE9
:1015500080EA6BE870E00E94F103282E80EA6CE8D4
:1015600070E00E94F103382E80EA6DE870E00E947E
:10157000F103182F80EA6EE870E00E94F103082F53
:101580000C94CB2F8091F70585FD02C00C94CB2FD6
:1015900080EA65EA70E00E94F103B82E80EA66EA0C
:1015A00070E00E94F103C82E80EA67EA70E00E94B2
:1015B000F103F82E80EA68EA70E00E94F103282E19
:1015C00080EA69EA70E00E94F103382E80EA6AEA54
:1015D00070E00E94F103182F80EA6BEA70E00E942D
:1015E000F103082F0E94D3050C94CB2F40913506B0
:1015F0005091360680EA68E970E00E9455044091F7
:10160000630580EA6DE970E00E94E10440912D06D7
:1016100080EA6EE970E00E94E1044091F30580EAFF
:101620006FE970E00E94E1044091600580EA60EAA1
:1016300070E00E94E1044091380680EA61EA70E0BF
:101640000E94E10440913A0680EA62EA70E00E945A
:10165000E1044091670580EA63EA70E00E94E104DA
:101660004091330680EA64EA70E00E94E10480EA77
:1016700065EA70E04B2D0E94E10480EA66EA70E0C2
:101680004C2D0E94E10480EA67EA70E04F2D0E9431
:10169000E10480EA68EA70E0422D0E94E10480EAF9
:1016A00069EA70E0432D0E94E10480EA6AEA70E092
:1016B000412F0E94E10480EA6BEA70E0402F0E9413
:1016C000E10440912E0680EA6EEA70E00E94E10497
:1016D0004091ED0580EA6DEA70E00E94E10480EA45
:1016E00060EB70E0409132060E94E1044091F70502
:1016F00080EA6FEA70E00E94E10481E00E94F30258
:1017000087E492E00E94FE0280EC0E94F302809146
:10171000ED0590E00E944603A09AA1988091ED0506
:10172000882371F5E9E0F1E086B180FD0CC086B157
:1017300081FD09C086B182FD06C086B183FD03C06C
:10174000808181FDF1CF8FEF9FE9A5E0815090402E
:10175000A040E1F700C000008091090181FD10C0A8
:10176000E9E0F1E0808181FFFDCF80E860E00E9448
:1017700019051092ED0581E08093F1050C94D52FA9
:101780008091ED05882311F40C94CB2FE9E0F1E072
:1017900086B180FD0CC086B181FD09C086B182FD95
:1017A00006C086B183FD03C0808181FDF1CF8FEF3C
:1017B0009FE9A5E081509040A040E1F700C0000003
:1017C00086B180FF41C086B181FD3EC086B182FDF9
:1017D0003BC086B183FD38C083B190E08F709070BC
:1017E000009791F58091EA05882371F18091630556
:1017F00080FD2AC09981992371F0BB2061F080910E
:10180000630581608093630580E090E061E00E9461
:101810003F05BA9419C080916405909165050097C1
:1018200099F480912E06882379F080916305816078
:101830008093630580E090E061E00E943F05809125
:101840002E06815080932E0686B180FF53C086B14C
:1018500081FD50C086B182FD4DC086B183FD4AC076
:1018600083B18F70813009F045C08091EA058230E4
:1018700008F440C08091630581FD3CC0A981A2307D
:1018800070F0BB20E9F0809163058260809363056E
:10189000BA9482E090E062E00E943F052BC0B1E084
:1018A000B51570F4CC2061F080916305826080935F
:1018B000630582E090E062E00E943F05CA941AC08E
:1018C00080916405909165058230910598F480912E
:1018D0002E06882379F080916305826080936305EA
:1018E00082E090E062E00E943F0580912E068150E8
:1018F00080932E0686B180FF53C086B181FD50C013
:1019000086B182FD4DC086B183FD4AC083B18F7020
:10191000823009F045C08091EA05833008F440C068
:101920008091630582FD3CC0E981E33070F0BB200B
:10193000E9F08091630584608093630584E090E022
:1019400063E00E943F05BA942BC0F2E0F51570F4F5
:10195000CC2061F08091630584608093630584E00E
:1019600090E063E00E943F05CA941AC0809164052C
:10197000909165058330910598F480912E06882317
:1019800079F08091630584608093630584E090E042
:1019900063E00E943F0580912E06815080932E06C1
:1019A00086B180FF67C086B181FD64C086B182FDCB
:1019B00061C086B183FD5EC083B18F70833009F052
:1019C00059C08091EA05843008F454C080916305C1
:1019D00083FD50C08981843070F0BB20E9F0809194
:1019E000630588608093630586E090E064E00E9470
:1019F0003F05BA943FC093E0951588F4CC2001F1DF
:101A00008091630588608093630586E090E064E0E0
:101A10000E943F05CA942EC0A3E0A51588F0B3E04C
:101A2000B71570F4FF2061F08091630588608093A2
:101A3000630586E090E064E00E943F05FA941AC0D6
:101A400080916405909165058430910598F48091AA
:101A50002E06882379F08091630588608093630562
:101A600086E090E064E00E943F0580912E06815060
:101A700080932E0686B180FF67C086B181FD64C069
:101A800086B182FD61C086B183FD5EC083B18F7077
:101A9000843009F059C08091EA05853008F454C0BB
:101AA0008091630584FD50C0E981E53070F0BB2072
:101AB000E9F08091630580618093630588E090E0A0
:101AC00065E00E943F05BA943FC0F4E0F51588F444
:101AD000CC2001F18091630580618093630588E0EB
:101AE00090E065E00E943F05CA942EC084E0851511
:101AF00088F094E0971570F4FF2061F08091630501
:101B000080618093630588E090E065E00E943F0576
:101B1000FA941AC08091640590916505853091050D
:101B200098F480912E06882379F080916305806176
:101B30008093630588E090E065E00E943F05809116
:101B40002E06815080932E0686B180FF67C086B135
:101B500081FD64C086B182FD61C086B183FD5EC037
:101B600083B18F70853009F059C08091EA058630C5
:101B700008F454C08091630585FD50C0A981A6304A
:101B800070F0BB20E9F0809163058062809363056B
:101B90008AE090E066E00E943F05BA943FC0B5E05D
:101BA000B51588F4CC2001F18091630580628093A3
:101BB00063058AE090E066E00E943F05CA942EC06B
:101BC000E5E0E51588F0F5E0F71570F4FF2061F029
:101BD000809163058062809363058AE090E066E00F
:101BE0000E943F05FA941AC08091640590916505A2
:101BF0008630910598F480912E06882379F08091A3
:101C000063058062809363058AE090E066E00E944D
:101C10003F0580912E06815080932E0686B180FF6D
:101C20007BC086B181FD78C086B182FD75C086B16A
:101C300083FD72C083B18F70863009F06DC08091D2
:101C4000EA05873008F468C08091630586FD64C0AA
:101C50008981873070F0BB20E9F080916305806452
:101C6000809363058CE090E067E00E943F05BA94A2
:101C700053C096E0951588F4CC2001F1809163055E
:101C80008064809363058CE090E067E00E943F05EC
:101C9000CA9442C0A6E0A51588F0B6E0B71588F44E
:101CA000FF2001F1809163058064809363058CE0DF
:101CB00090E067E00E943F05FA942EC0E6E0E71549
:101CC00088F0F6E0F91570F4222061F08091630548
:101CD0008064809363058CE090E067E00E943F059C
:101CE0002A941AC08091640590916505873091050A
:101CF00098F480912E06882379F0809163058064A2
:101D0000809363058CE090E067E00E943F0580913E
:101D10002E06815080932E0686B180FF90C086B13A
:101D200081FD8DC086B182FD8AC086B183FD87C0EA
:101D300083B18F70873009F082C08091EA058830C6
:101D400008F47DC08091630588230CF478C08981F4
:101D5000883070F0BB20E9F0809163058068809343
:101D600063058EE090E068E00E943F05BA9467C08A
:101D700097E0951588F4CC2001F180916305806887
:101D8000809363058EE090E068E00E943F05CA946E
:101D900056C0A7E0A51588F0B7E0B71588F4FF2076
:101DA00001F1809163058068809363058EE090E087
:101DB00068E00E943F05FA9442C0E7E0E71588F02A
:101DC000F7E0F91588F4222001F18091630580681D
:101DD000809363058EE090E068E00E943F052A94BE
:101DE0002EC087E0891588F097E09A1570F43320AB
:101DF00061F0809163058068809363058EE090E0D8
:101E000068E00E943F053A941AC080916405909161
:101E100065058830910598F480912E06882379F025
:101E2000809163058068809363058EE090E068E0B0
:101E30000E943F0580912E06815080932E0686B128
:101E400080FF8FC086B181FD8CC086B182FD89C0C4
:101E500086B183FD86C083B18F70883009F081C060
:101E60008091EA05893008F47CC080912D0680FDC0
:101E700078C0A981A93070F0BB20E9F080912D06CF
:101E8000816080932D0680E190E069E00E943F052B
:101E9000BA9467C0B8E0B51588F4CC2001F1809100
:101EA0002D06816080932D0680E190E069E00E941C
:101EB0003F05CA9456C0E8E0E51588F0F8E0F7154C
:101EC00088F4FF2001F180912D06816080932D061A
:101ED00080E190E069E00E943F05FA9442C088E00A
:101EE000871588F098E0991588F4222001F18091F7
:101EF0002D06816080932D0680E190E069E00E94CC
:101F00003F052A942EC0A8E0A91588F0B8E0BA15BC
:101F100070F4332061F080912D06816080932D064E
:101F200080E190E069E00E943F053A941AC08091F8
:101F30006405909165058930910598F480912E068D
:101F4000882379F080912D06816080932D0680E1B1
:101F500090E069E00E943F0580912E0681508093B9
:101F60002E0686B180FF8FC086B181FD8CC086B100
:101F700082FD89C086B183FD86C083B18F708930B0
:101F800009F081C08091EA058A3008F47CC0809114
:101F90002D0681FD78C0E981EA3070F0BB20E9F0C0
:101FA00080912D06826080932D0682E190E06AE0A8
:101FB0000E943F05BA9467C0F9E0F51588F4CC207B
:101FC00001F180912D06826080932D0682E190E0E0
:101FD0006AE00E943F05CA9456C089E0851588F0E2
:101FE00099E0971588F4FF2001F180912D06826019
:101FF00080932D0682E190E06AE00E943F05FA940A
:1020000042C0A9E0A71588F0B9E0B91588F42220EC
:1020100001F180912D06826080932D0682E190E08F
:102020006AE00E943F052A942EC0E9E0E91588F095
:10203000F9E0FA1570F4332061F080912D0682608A
:1020400080932D0682E190E06AE00E943F053A9479
:102050001AC080916405909165058A30910598F4C5
:1020600080912E06882379F080912D0682608093DE
:102070002D0682E190E06AE00E943F0580912E06E5
:10208000815080932E0686B180FFA3C086B181FD6A
:10209000A0C086B182FD9DC086B183FD9AC083B188
:1020A0008F708A3009F095C08091EA058B3008F472
:1020B00090C080912D0682FD8CC089818B3070F09C
:1020C000BB20E9F080912D06846080932D0684E189
:1020D00090E06BE00E943F05BA947BC09AE09515B2
:1020E00088F4CC2001F180912D06846080932D0628
:1020F00084E190E06BE00E943F05CA946AC0AAE0C8
:10210000A51588F0BAE0B71588F4FF2001F1809199
:102110002D06846080932D0684E190E06BE00E94A0
:102120003F05FA9456C0EAE0E71588F0FAE0F915A1
:1021300088F4222001F180912D06846080932D0681
:1021400084E190E06BE00E943F052A9442C08AE05F
:10215000891588F09AE09A1588F4332001F180916E
:102160002D06846080932D0684E190E06BE00E9450
:102170003F053A942EC0AAE0AA1588F0BAE0B81537
:1021800070F4112361F080912D06846080932D06F8
:1021900084E190E06BE00E943F0511501AC08091ED
:1021A0006405909165058B30910598F480912E0619
:1021B000882379F080912D06846080932D0684E138
:1021C00090E06BE00E943F0580912E068150809345
:1021D0002E0686B180FFA3C086B181FDA0C086B166
:1021E00082FD9DC086B183FD9AC083B18F708B3014
:1021F00009F095C08091EA058C3008F490C0809178
:102200002D0683FD8CC0E981EC3070F0BB20E9F035
:1022100080912D06886080932D0686E190E06CE029
:102220000E943F05BA947BC0FBE0F51588F4CC20F2
:1022300001F180912D06886080932D0686E190E063
:102240006CE00E943F05CA946AC08BE0851588F057
:102250009BE0971588F4FF2001F180912D0688609E
:1022600080932D0686E190E06CE00E943F05FA9491
:1022700056C0ABE0A71588F0BBE0B91588F4222062
:1022800001F180912D06886080932D0686E190E013
:102290006CE00E943F052A9442C0EBE0E91588F00B
:1022A000FBE0FA1588F4332001F180912D06886057
:1022B00080932D0686E190E06CE00E943F053A9401
:1022C0002EC08BE08A1588F09BE0981570F41123DE
:1022D00061F080912D06886080932D0686E190E064
:1022E0006CE00E943F0511501AC0809164059091E6
:1022F00065058C30910598F480912E06882379F03D
:1023000080912D06886080932D0686E190E06CE038
:102310000E943F0580912E06815080932E0686B143
:1023200080FFB7C086B181FDB4C086B182FDB1C067
:1023300086B183FDAEC083B18F708C3009F0A9C027
:102340008091EA058D3008F4A4C080912D0684FDAB
:10235000A0C0A981AD3070F0BB20E9F080912D06BE
:10236000806180932D0688E190E06DE00E943F053A
:10237000BA948FC0BCE0B51588F4CC2001F18091EF
:102380002D06806180932D0688E190E06DE00E942B
:102390003F05CA947EC0ECE0E51588F0FCE0F71537
:1023A00088F4FF2001F180912D06806180932D0635
:1023B00088E190E06DE00E943F05FA946AC08CE0ED
:1023C000871588F09CE0991588F4222001F180910E
:1023D0002D06806180932D0688E190E06DE00E94DB
:1023E0003F052A9456C0ACE0A91588F0BCE0BA15A8
:1023F00088F4332001F180912D06806180932D06B1
:1024000088E190E06DE00E943F053A9442C0ECE024
:10241000EA1588F0FCE0F81588F4112301F18091A9
:102420002D06806180932D0688E190E06DE00E948A
:102430003F0511502EC08CE0881588F09CE0961561
:1024400070F4002361F080912D06806180932D0649
:1024500088E190E06DE00E943F0501501AC0809134
:102460006405909165058D30910598F480912E0654
:10247000882379F080912D06806180932D0688E174
:1024800090E06DE00E943F0580912E068150809380
:102490002E0686B180FFB7C086B181FDB4C086B17B
:1024A00082FDB1C086B183FDAEC083B18F708D3027
:1024B00009F0A9C08091EA058E3008F4A4C080918B
:1024C0002D0685FDA0C0A981AE3070F0BB20E9F0DB
:1024D00080912D06806280932D068AE190E06EE067
:1024E0000E943F05BA948FC0BDE0B51588F4CC209A
:1024F00001F180912D06806280932D068AE190E0A3
:102500006EE00E943F05CA947EC0EDE0E51588F0BC
:10251000FDE0F71588F4FF2001F180912D0680621F
:1025200080932D068AE190E06EE00E943F05FA94C8
:102530006AC08DE0871588F09DE0991588F4222007
:1025400001F180912D06806280932D068AE190E052
:102550006EE00E943F052A9456C0ADE0A91588F0B0
:10256000BDE0BA1588F4332001F180912D06806218
:1025700080932D068AE190E06EE00E943F053A9438
:1025800042C0EDE0EA1588F0FDE0F81588F411236B
:1025900001F180912D06806280932D068AE190E002
:1025A0006EE00E943F0511502EC08DE0881588F026
:1025B0009DE0961570F4002361F080912D068062F5
:1025C00080932D068AE190E06EE00E943F05015065
:1025D0001AC080916405909165058E30910598F43C
:1025E00080912E06882379F080912D068062809359
:1025F0002D068AE190E06EE00E943F0580912E0654
:10260000815080932E0686B180FFB7C086B181FDD0
:10261000B4C086B182FDB1C086B183FDAEC083B1C6
:102620008F708E3009F0A9C08091EA058F3008F4D0
:10263000A4C080912D0686FDA0C0A981AF3070F0A6
:10264000BB20E9F080912D06806480932D068CE1FB
:1026500090E06FE00E943F05BA948FC0BEE0B515D0
:1026600088F4CC2001F180912D06806480932D06A2
:102670008CE190E06FE00E943F05CA947EC0EEE0DE
:10268000E51588F0FEE0F71588F4FF2001F1809150
:102690002D06806480932D068CE190E06FE00E940F
:1026A0003F05FA946AC08EE0871588F09EE0991580
:1026B00088F4222001F180912D06806480932D06FC
:1026C0008CE190E06FE00E943F052A9456C0AEE096
:1026D000A91588F0BEE0BA1588F4332001F1809185
:1026E0002D06806480932D068CE190E06FE00E94BF
:1026F0003F053A9442C0EEE0EA1588F0FEE0F81596
:1027000088F4112301F180912D06806480932D06B9
:102710008CE190E06FE00E943F0511502EC08EE0EA
:10272000881588F09EE0961570F4002361F0809182
:102730002D06806480932D068CE190E06FE00E946E
:102740003F0501501AC080916405909165058F3056
:10275000910598F480912E06882379F080912D06BA
:10276000806480932D068CE190E06FE00E943F052D
:1027700080912E06815080932E0686B180FFA4C0E2
:1027800086B181FDA1C086B182FD9EC086B183FD68
:102790009BC083B18F708F3009F096C08091EA059D
:1027A000803108F491C080912D0688230CF48CC0F0
:1027B000AFE0A51570F4CC20E9F080912D0680687B
:1027C00080932D068EE190E060E10E943F05CA945F
:1027D0007BC0BFE0B71588F4FF2001F180912D0682
:1027E000806880932D068EE190E060E10E943F05B5
:1027F000FA946AC0EFE0E71588F0FFE0F91588F475
:10280000222001F180912D06806880932D068EE1B3
:1028100090E060E10E943F052A9456C08FE0891540
:1028200088F09FE09A1588F4332001F180912D06FD
:10283000806880932D068EE190E060E10E943F0564
:102840003A9442C0AFE0AA1588F0BFE0B81588F40A
:10285000112301F180912D06806880932D068EE171
:1028600090E060E10E943F0511502EC0EFE0E815B6
:1028700088F0FFE0F61570F4002361F080912D06DA
:10288000806880932D068EE190E060E10E943F0514
:1028900001501AC0809164059091650580319105C1
:1028A00098F480912E06882379F080912D06806817
:1028B00080932D068EE190E060E10E943F058091BB
:1028C0002E06815080932E0686B181FFA5C086B169
:1028D00080FDA2C086B182FD9FC086B183FD9CC0F1
:1028E00083B190E08F709070009709F095C080914F
:1028F000EA05813108F490C08091F30580FD8CC019
:1029000080E1851570F4CC20E9F08091F3058160B9
:102910008093F30580E290E061E10E943F05CA9454
:102920007BC090E1971588F4FF2001F18091F305B9
:1029300081608093F30580E290E061E10E943F05B1
:10294000FA946AC0A0E1A71588F0B0E1B91588F43F
:10295000222001F18091F30581608093F30580E2EC
:1029600090E061E10E943F052A9456C0E0E1E9153C
:1029700088F0F0E1FA1588F4332001F18091F30535
:1029800081608093F30580E290E061E10E943F0561
:102990003A9442C080E18A1588F090E1981588F455
:1029A000112301F18091F30581608093F30580E2AA
:1029B00090E061E10E943F0511502EC0A0E1A815F2
:1029C00088F0B0E1B61570F4002361F08091F30552
:1029D00081608093F30580E290E061E10E943F0511
:1029E00001501AC08091640590916505813191056F
:1029F00098F480912E06882379F08091F305816008
:102A00008093F30580E290E061E10E943F058091B0
:102A10002E06815080932E0686B181FFA3C086B119
:102A200080FDA0C086B182FD9DC086B183FD9AC0A5
:102A300083B18F70813009F095C08091EA058231B1
:102A400008F490C08091F30581FD8CC0E1E1E515AB
:102A500070F4CC20E9F08091F30582608093F30557
:102A600082E290E062E10E943F05CA947BC0F1E1FE
:102A7000F71588F4FF2001F18091F30582608093BF
:102A8000F30582E290E062E10E943F05FA946AC099
:102A900081E1871588F091E1991588F4222001F1F0
:102AA0008091F30582608093F30582E290E062E119
:102AB0000E943F052A9456C0A1E1A91588F0B1E112
:102AC000BA1588F4332001F18091F3058260809378
:102AD000F30582E290E062E10E943F053A9442C031
:102AE000E1E1EA1588F0F1E1F81588F4112301F12C
:102AF0008091F30582608093F30582E290E062E1C9
:102B00000E943F0511502EC081E1881588F091E1A7
:102B1000961570F4002361F08091F3058260809334
:102B2000F30582E290E062E10E943F0501501AC085
:102B300080916405909165058231910598F48091AA
:102B40002E06882379F08091F30582608093F30547
:102B500082E290E062E10E943F0580912E06815062
:102B600080932E0686B181FFA3C086B180FDA0C0F0
:102B700086B182FD9DC086B183FD9AC083B18F70FE
:102B8000823009F095C08091EA05833108F490C045
:102B90008091F30582FD8CC0A2E1A51570F4CC20D4
:102BA000E9F08091F30584608093F30584E290E07E
:102BB00063E10E943F05CA947BC0B2E1B71588F477
:102BC000FF2001F18091F30584608093F30584E296
:102BD00090E063E10E943F05FA946AC0E2E1E715E4
:102BE00088F0F2E1F91588F4222001F18091F305D3
:102BF00084608093F30584E290E063E10E943F05E6
:102C00002A9456C082E1891588F092E19A1588F4D9
:102C1000332001F18091F30584608093F30584E211
:102C200090E063E10E943F053A9442C0A2E1AA15F8
:102C300088F0B2E1B81588F4112301F18091F30511
:102C400084608093F30584E290E063E10E943F0595
:102C500011502EC0E2E1E81588F0F2E1F61570F4AB
:102C6000002361F08091F30584608093F30584E292
:102C700090E063E10E943F0501501AC08091640515
:102C8000909165058331910598F480912E068823F3
:102C900079F08091F30584608093F30584E290E0FD
:102CA00063E10E943F0580912E06815080932E069D
:102CB00086B181FFA3C086B180FDA0C086B182FD30
:102CC0009DC086B183FD9AC083B18F70833009F0B7
:102CD00095C08091EA05843108F490C08091F30595
:102CE00083FD8CC083E1851570F4CC20E9F08091E0
:102CF000F30588608093F30586E290E064E10E942A
:102D00003F05CA947BC093E1971588F4FF2001F139
:102D10008091F30588608093F30586E290E064E19A
:102D20000E943F05FA946AC0A3E1A71588F0B3E1B9
:102D3000B91588F4222001F18091F3058860809311
:102D4000F30586E290E064E10E943F052A9456C0B4
:102D5000E3E1E91588F0F3E1FA1588F4332001F195
:102D60008091F30588608093F30586E290E064E14A
:102D70000E943F053A9442C083E18A1588F093E1AE
:102D8000981588F4112301F18091F30588608093F0
:102D9000F30586E290E064E10E943F0511502EC0E9
:102DA000A3E1A81588F0B3E1B61570F4002361F033
:102DB0008091F30588608093F30586E290E064E1FA
:102DC0000E943F0501501AC08091640590916505ED
:102DD0008431910598F480912E06882379F08091B2
:102DE000F30588608093F30586E290E064E10E9439
:102DF0003F0580912E06815080932E0686B181FF7B
:102E0000A3C086B180FDA0C086B182FD9DC086B101
:102E100083FD9AC083B18F70843009F095C0809192
:102E2000EA05853108F490C08091F30584FD8CC0DB
:102E3000E4E1E51570F4CC20E9F08091F3058061C0
:102E40008093F30588E290E065E10E943F05CA9413
:102E50007BC0F4E1F71588F4FF2001F18091F305C0
:102E600080618093F30588E290E065E10E943F0570
:102E7000FA946AC084E1871588F094E1991588F482
:102E8000222001F18091F30580618093F30588E2AF
:102E900090E065E10E943F052A9456C0A4E1A9157F
:102EA00088F0B4E1BA1588F4332001F18091F3057C
:102EB00080618093F30588E290E065E10E943F0520
:102EC0003A9442C0E4E1EA1588F0F4E1F81588F498
:102ED000112301F18091F30580618093F30588E26D
:102EE00090E065E10E943F0511502EC084E18815F5
:102EF00088F094E1961570F4002361F08091F30559
:102F000080618093F30588E290E065E10E943F05CF
:102F100001501AC080916405909165058531910535
:102F200098F480912E06882379F08091F3058061D2
:102F30008093F30588E290E065E10E943F0580916F
:102F40002E06815080932E0686B181FFA3C086B1E4
:102F500080FDA0C086B182FD9DC086B183FD9AC070
:102F600083B18F70853009F095C08091EA05863174
:102F700008F490C08091F30585FD8CC0A5E1A515EE
:102F800070F4CC20E9F08091F30580628093F30522
:102F90008AE290E066E10E943F05CA947BC0B4E1FA
:102FA000B71570F4FF2061F08091F3058062809383
:102FB000F3058AE290E066E10E943F05FA946AC058
:102FC000E5E1E71588F0F4E1F91570F4222061F0ED
:102FD0008091F30580628093F3058AE290E066E1D8
:102FE0000E943F052A9456C085E1891588F094E136
:102FF0009A1570F4332061F08091F305806280931C
:10300000F3058AE290E066E10E943F053A9442C0EF
:10301000A5E1AA1588F0B4E1B81570F4112361F0A8
:103020008091F30580628093F3058AE290E066E187
:103030000E943F0511502EC0E5E1E81588F0F4E14B
:10304000F61570F4002361F08091F305806280939F
:10305000F3058AE290E066E10E943F0501501AC044
:1030600080916405909165058631910598F4809171
:103070002E06882379F08091F30580628093F30512
:103080008AE290E066E10E943F0580912E06815021
:1030900080932E0686B181FFB7C086B180FDB4C093
:1030A00086B182FDB1C086B183FDAEC083B18F70A1
:1030B000863009F0A9C08091EA05873108F4A4C0E0
:1030C0008091F30586FDA0C086E1851570F4CC20C3
:1030D000E9F08091F30580648093F3058CE290E041
:1030E00067E10E943F05CA948FC096E1971588F466
:1030F000FF2001F18091F30580648093F3058CE259
:1031000090E067E10E943F05FA947EC0A6E1A71512
:1031100088F0B6E1B91588F4222001F18091F30519
:1031200080648093F3058CE290E067E10E943F05A4
:103130002A946AC0E6E1E91588F0F6E1FA1588F408
:10314000332001F18091F30580648093F3058CE2D4
:1031500090E067E10E943F053A9456C086E18A15E7
:1031600088F096E1981588F4112301F18091F30518
:1031700080648093F3058CE290E067E10E943F0554
:10318000115042C0A6E1A81588F0B6E1B61588F442
:10319000002301F18091F30580648093F3058CE2B4
:1031A00090E067E10E943F0501502EC0E6E1E61580
:1031B00088F0F6E1FE1570F4442061F08091F3058B
:1031C00080648093F3058CE290E067E10E943F0504
:1031D0004A941AC0809164059091650587319105E4
:1031E00098F480912E06882379F08091F30580640D
:1031F0008093F3058CE290E067E10E943F058091A7
:103200002E06815080932E0686B181FFA4C086B120
:1032100080FDA1C086B182FD9EC086B183FD9BC0AA
:1032200083B18F70873009F096C08091EA058831AC
:1032300008F491C08091F30588230CF48CC087E1D9
:10324000851570F4CC20E9F08091F30580688093B7
:10325000F3058EE290E068E10E943F05CA947BC0CE
:1032600097E1971588F4FF2001F18091F3058068BC
:103270008093F3058EE290E068E10E943F05FA94A6
:103280006AC0A7E1A71588F0B7E1B91588F4222034
:1032900001F18091F30580688093F3058EE290E060
:1032A00068E10E943F052A9456C0E7E1E91588F0DD
:1032B000F7E1FA1588F4332001F18091F305806875
:1032C0008093F3058EE290E068E10E943F053A9416
:1032D00042C087E18A1588F097E1981588F4112398
:1032E00001F18091F30580688093F3058EE290E010
:1032F00068E10E943F0511502EC0A7E1A81588F093
:10330000B7E1B61570F4002361F08091F305806891
:103310008093F3058EE290E068E10E943F05015042
:103320001AC080916405909165058831910598F4E3
:1033300080912E06882379F08091F3058068809330
:10334000F3058EE290E068E10E943F0580912E0631
:10335000815080932E0686B181FFA3C086B180FD87
:10336000A0C086B182FD9DC086B183FD9AC083B1A5
:103370008F70883009F095C08091EA05893108F492
:1033800090C08091600580FD8CC0E8E1E51570F487
:10339000CC20E9F08091600581608093600580E336
:1033A00090E069E10E943F05CA947BC0F8E1F715FF
:1033B00088F4FF2001F180916005816080936005B1
:1033C00080E390E069E10E943F05FA946AC088E1D9
:1033D000871588F098E1991588F4222001F18091F1
:1033E000600581608093600580E390E069E10E9460
:1033F0003F052A9456C0A8E1A91588F0B8E1BA158E
:1034000088F4332001F1809160058160809360052C
:1034100080E390E069E10E943F053A9442C0E8E110
:10342000EA1588F0F8E1F81588F4112301F180918C
:10343000600581608093600580E390E069E10E940F
:103440003F0511502EC088E1881588F098E1961547
:1034500070F4002361F080916005816080936005C5
:1034600080E390E069E10E943F0501501AC080911D
:103470006405909165058931910598F480912E0637
:10348000882379F08091600581608093600580E3F6
:1034900090E069E10E943F0580912E068150809363
:1034A0002E0686B181FFB7C086B180FDB4C086B15B
:1034B00082FDB1C086B183FDAEC083B18F7089300B
:1034C00009F0A9C08091EA058A3108F4A4C080916E
:1034D000600581FDA0C0A9E1A51570F4CC20E9F03C
:1034E0008091600582608093600582E390E06AE1EC
:1034F0000E943F05CA948FC0B9E1B71588F4FF2038
:1035000001F18091600582608093600582E390E024
:103510006AE10E943F05FA947EC0E9E1E71588F070
:10352000F9E1F91588F4222001F1809160058260AB
:103530008093600582E390E06AE10E943F052A944F
:103540006AC089E1891588F099E19A1588F43320D9
:1035500001F18091600582608093600582E390E0D4
:103560006AE10E943F053A9456C0A9E1AA1588F085
:10357000B9E1B81588F4112301F1809160058260EA
:103580008093600582E390E06AE10E943F0511505C
:1035900042C0E9E1E81588F0F9E1F61588F4002366
:1035A00001F18091600582608093600582E390E084
:1035B0006AE10E943F0501502EC089E1861588F01E
:1035C00099E19E1570F4442061F08091600582605D
:1035D0008093600582E390E06AE10E943F054A948F
:1035E0001AC080916405909165058A31910598F41F
:1035F00080912E06882379F0809160058260809307
:10360000600582E390E06AE10E943F0580912E060A
:10361000815080932E0686B181FFA3C086B180FDC4
:10362000A0C086B182FD9DC086B183FD9AC083B1E2
:103630008F708A3009F095C08091EA058B3108F4CB
:1036400090C08091600582FD8CC0AAE1A51570F440
:10365000CC20E9F08091600584608093600584E36C
:1036600090E06BE10E943F05CA947BC0BAE1B715B8
:1036700088F4FF2001F180916005846080936005EB
:1036800084E390E06BE10E943F05FA946AC0EAE1AE
:10369000E71588F0FAE1F91588F4222001F180910C
:1036A000600584608093600584E390E06BE10E9494
:1036B0003F052A9456C08AE1891588F09AE19A1547
:1036C00088F4332001F18091600584608093600567
:1036D00084E390E06BE10E943F053A9442C0AAE186
:1036E000AA1588F0BAE1B81588F4112301F1809188
:1036F000600584608093600584E390E06BE10E9444
:103700003F0511502EC0EAE1E81588F0FAE1F61500
:1037100070F4002361F080916005846080936005FF
:1037200084E390E06BE10E943F0501501AC0809154
:103730006405909165058B31910598F480912E0672
:10374000882379F08091600584608093600584E32C
:1037500090E06BE10E943F0580912E06815080939E
:103760002E0686B181FFA3C086B180FDA0C086B1C0
:1037700082FD9DC086B183FD9AC083B18F708B306E
:1037800009F095C08091EA058C3108F490C08091D1
:10379000600583FD8CC08BE1851570F4CC20E9F0C9
:1037A0008091600588608093600586E390E06CE11D
:1037B0000E943F05CA947BC09BE1971588F4FF20C7
:1037C00001F18091600588608093600586E390E058
:1037D0006CE10E943F05FA946AC0ABE1A71588F03E
:1037E000BBE1B91588F4222001F180916005886061
:1037F0008093600586E390E06CE10E943F052A9487
:1038000056C0EBE1E91588F0FBE1FA1588F43320A6
:1038100001F18091600588608093600586E390E007
:103820006CE10E943F053A9442C08BE18A1588F012
:103830009BE1981588F4112301F18091600588605F
:103840008093600586E390E06CE10E943F05115093
:103850002EC0ABE1A81588F0BBE1B61570F40023CB
:1038600061F08091600588608093600586E390E058
:103870006CE10E943F0501501AC08091640590914F
:1038800065058C31910598F480912E06882379F096
:103890008091600588608093600586E390E06CE12C
:1038A0000E943F0580912E06815080932E0686B19E
:1038B00081FFA3C086B180FDA0C086B182FD9DC0FE
:1038C00086B183FD9AC083B18F708C3009F095C0AA
:1038D0008091EA058D3108F490C08091600584FDE7
:1038E0008CC0ECE1E51570F4CC20E9F08091600526
:1038F00080618093600588E390E06DE10E943F0560
:10390000CA947BC0FCE1F71588F4FF2001F1809197
:10391000600580618093600588E390E06DE10E941E
:103920003F05FA946AC08CE1871588F09CE19915EF
:1039300088F4222001F18091600580618093600508
:1039400088E390E06DE10E943F052A9456C0ACE107
:10395000A91588F0BCE1BA1588F4332001F18091F3
:10396000600580618093600588E390E06DE10E94CE
:103970003F053A9442C0ECE1EA1588F0FCE1F81505
:1039800088F4112301F180916005806180936005C6
:1039900088E390E06DE10E943F0511502EC08CE15C
:1039A000881588F09CE1961570F4002361F08091F1
:1039B000600580618093600588E390E06DE10E947E
:1039C0003F0501501AC080916405909165058D31C5
:1039D000910598F480912E06882379F080916005F6
:1039E00080618093600588E390E06DE10E943F056F
:1039F00080912E06815080932E0686B181FFB7C03C
:103A000086B180FDB4C086B182FDB1C086B183FDB0
:103A1000AEC083B18F708D3009F0A9C08091EA05E6
:103A20008E3108F4A4C08091600585FDA0C0ADE191
:103A3000A51570F4CC20E9F0809160058062809338
:103A400060058AE390E06EE10E943F05CA948FC052
:103A5000BDE1B71588F4FF2001F180916005806217
:103A6000809360058AE390E06EE10E943F05FA943E
:103A70007EC0EDE1E71588F0FDE1F91588F422201C
:103A800001F1809160058062809360058AE390E097
:103A90006EE10E943F052A946AC08DE1891588F085
:103AA0009DE19A1588F4332001F1809160058062D0
:103AB000809360058AE390E06EE10E943F053A94AE
:103AC00056C0ADE1AA1588F0BDE1B81588F4112300
:103AD00001F1809160058062809360058AE390E047
:103AE0006EE10E943F05115042C0EDE1E81588F0FB
:103AF000FDE1F61588F4002301F1809160058062F4
:103B0000809360058AE390E06EE10E943F050150DA
:103B10002EC08DE1861588F09DE19E1570F444203D
:103B200061F0809160058062809360058AE390E097
:103B30006EE10E943F054A941AC0809164059091FD
:103B400065058E31910598F480912E06882379F0D1
:103B5000809160058062809360058AE390E06EE169
:103B60000E943F0580912E06815080932E0686B1DB
:103B700081FF94C086B180FD91C086B182FD8EC068
:103B800086B183FD8BC083B18F708E3009F086C003
:103B90008091EA058F3108F481C08091600586FD2F
:103BA0007DC0AEE1A51580F0A71588F4FF2001F1D6
:103BB000809160058064809360058CE390E06FE104
:103BC0000E943F05FA9414C0BEE1B71588F0EEE1FB
:103BD000E91588F4222001F18091600580648093CA
:103BE00060058CE390E06FE10E943F052A9456C087
:103BF000FEE1F91588F08EE18A1588F4332001F191
:103C0000809160058064809360058CE390E06FE1B3
:103C10000E943F053A9442C09EE19A1588F0AEE1B9
:103C2000A81588F4112301F18091600580648093C8
:103C300060058CE390E06FE10E943F0511502EC0BB
:103C4000BEE1B81588F0EEE1E61570F4002361F0EE
:103C5000809160058064809360058CE390E06FE163
:103C60000E943F0501501AC080916405909165053E
:103C70008F31910598F480912E06882379F08091F8
:103C800060058064809360058CE390E06FE10E94A2
:103C90003F0580912E06815080932E0686B181FFCC
:103CA00090C086B180FD8DC086B182FD8AC086B18C
:103CB00083FD87C083B18F708F3009F082C08091FF
:103CC000EA05803208F47DC08091600588230CF4F9
:103CD00078C0FFE1F71570F4FF20E9F080916005EE
:103CE0008068809360058EE390E060E20E943F056B
:103CF000FA9411C08FE1891588F4222001F1809196
:103D000060058068809360058EE390E060E20E9429
:103D10003F052A9456C09FE1991588F0AFE1AA1596
:103D200088F4332001F180916005806880936005FC
:103D30008EE390E060E20E943F053A9442C0BFE10A
:103D4000BA1588F0EFE1E81588F4112301F18091AC
:103D500060058068809360058EE390E060E20E94D9
:103D60003F0511502EC0FFE1F81588F08FE1861550
:103D700070F4002361F08091600580688093600595
:103D80008EE390E060E20E943F0501501AC08091EE
:103D90006405909165058032910598F480912E0616
:103DA000882379F0809160058068809360058EE3B8
:103DB00090E060E20E943F0580912E068150809342
:103DC0002E0686B180FD91C086B181FD8EC086B180
:103DD00082FF8BC086B183FD88C083B190E08F7075
:103DE0009070009709F081C08091EA05813208F453
:103DF0007CC08091380680FD78C090E2971570F401
:103E0000FF20E9F08091380681608093380680E4D5
:103E100090E061E20E943F05FA9467C0A0E2A91514
:103E200088F4222001F18091380681608093380661
:103E30002A9480E490E061E20E943F0556C0B0E21F
:103E4000B91588F0E0E2EA1588F4332001F1809199
:103E500038068160809338063A9480E490E061E20D
:103E60000E943F0542C0F0E2FA1588F080E2881512
:103E700088F4112301F1809138068160809338061F
:103E8000115080E490E061E20E943F052EC090E274
:103E9000981588F0A0E2A61570F4002361F08091D7
:103EA0003806816080933806015080E490E061E23A
:103EB0000E943F051AC0809164059091650581328A
:103EC000910598F480912E06882379F08091380628
:103ED00081608093380680E490E061E20E943F05B3
:103EE00080912E06815080932E0686B180FD8FC072
:103EF00086B181FD8CC086B182FF89C086B183FD09
:103F000086C083B18F70813009F081C08091EA054D
:103F1000823208F47CC08091380681FD78C0B1E21D
:103F2000B71570F4FF20E9F0809138068260809325
:103F30003806FA9482E490E062E20E943F0567C08E
:103F4000E1E2E91588F4222001F1809138068260CF
:103F5000809338062A9482E490E062E20E943F0552
:103F600056C0F1E2F91588F081E28A1588F4332011
:103F700001F1809138068260809338063A9482E499
:103F800090E062E20E943F0542C091E29A1588F0FB
:103F9000A1E2A81588F4112301F18091380682600E
:103FA00080933806115082E490E062E20E943F055F
:103FB0002EC0B1E2B81588F0E1E2E61570F40023F6
:103FC00061F080913806826080933806015082E467
:103FD00090E062E20E943F051AC0809164059091D2
:103FE00065058232910598F480912E06882379F038
:103FF0008091380682608093380682E490E062E225
:104000000E943F0580912E06815080932E0686B136
:1040100080FD8FC086B181FD8CC086B182FF89C0D2
:1040200086B183FD86C083B18F70823009F081C074
:104030008091EA05833208F47CC08091380682FDC5
:1040400078C0F2E2F71570F4FF20E9F080913806AD
:10405000846080933806FA9484E490E063E20E94DE
:104060003F0567C082E2891588F4222001F1809122
:1040700038068460809338062A9484E490E063E2F2
:104080000E943F0556C092E2991588F0A2E2AA1557
:1040900088F4332001F180913806846080933806DB
:1040A0003A9484E490E063E20E943F0542C0B2E2A9
:1040B000BA1588F0E2E2E81588F4112301F1809145
:1040C0003806846080933806115084E490E063E2FF
:1040D0000E943F052EC0F2E2F81588F082E28615B4
:1040E00070F4002361F08091380684608093380674
:1040F000015084E490E063E20E943F051AC0809181
:104100006405909165058332910598F480912E069F
:10411000882379F08091380684608093380684E49F
:1041200090E063E20E943F0580912E0681508093CB
:104130002E0686B180FD8FC086B181FD8CC086B110
:1041400082FF89C086B183FD86C083B18F708330C2
:1041500009F081C08091EA05843208F47CC0809126
:10416000380683FD78C093E2971570F4FF20E9F0DC
:1041700080913806886080933806FA9486E490E04F
:1041800064E20E943F0567C0A3E2A91588F42220DB
:1041900001F1809138068860809338062A9486E47D
:1041A00090E064E20E943F0556C0B3E2B91588F082
:1041B000E3E2EA1588F4332001F180913806886043
:1041C000809338063A9486E490E064E20E943F05CA
:1041D00042C0F3E2FA1588F083E2881588F41123CF
:1041E00001F180913806886080933806115086E48A
:1041F00090E064E20E943F052EC093E2981588F09B
:10420000A3E2A61570F4002361F08091380688605F
:1042100080933806015086E490E064E20E943F05F6
:104220001AC080916405909165058432910598F4D7
:1042300080912E06882379F08091380688608093DB
:10424000380686E490E064E20E943F0580912E06E5
:10425000815080932E0686B180FD8FC086B181FD8E
:104260008CC086B182FF89C086B183FD86C083B1D0
:104270008F70843009F081C08091EA05853208F49E
:104280007CC08091380684FD78C0B4E2B71570F424
:10429000FF20E9F080913806806180933806FA9417
:1042A00088E490E065E20E943F0567C0E4E2E9151A
:1042B00088F4222001F180913806806180933806CD
:1042C0002A9488E490E065E20E943F0556C0F4E23B
:1042D000F91588F084E28A1588F4332001F1809181
:1042E00038068061809338063A9488E490E065E26D
:1042F0000E943F0542C094E29A1588F0A4E2A815F6
:1043000088F4112301F1809138068061809338068A
:10431000115088E490E065E20E943F052EC0B4E2AF
:10432000B81588F0E4E2E61570F4002361F080919E
:104330003806806180933806015088E490E065E299
:104340000E943F051AC080916405909165058532F1
:10435000910598F480912E06882379F08091380693
:1043600080618093380688E490E065E20E943F0512
:1043700080912E06815080932E0686B180FD8FC0DD
:1043800086B181FD8CC086B182FF89C086B183FD74
:1043900086C083B18F70853009F081C08091EA05B5
:1043A000863208F47CC08091380685FD78C0F5E23D
:1043B000F71570F4FF20E9F0809138068062809351
:1043C0003806FA948AE490E066E20E943F0567C0EE
:1043D00085E2891588F4222001F1809138068062F7
:1043E000809338062A948AE490E066E20E943F05B2
:1043F00056C095E2991588F0A5E2AA1588F43320F5
:1044000001F1809138068062809338063A948AE4FC
:1044100090E066E20E943F0542C0B5E2BA1588F01E
:10442000E5E2E81588F4112301F1809138068062F5
:104430008093380611508AE490E066E20E943F05BE
:104440002EC0F5E2F81588F085E2861570F4002399
:1044500061F08091380680628093380601508AE4CA
:1044600090E066E20E943F051AC080916405909139
:1044700065058632910598F480912E06882379F09F
:10448000809138068062809338068AE490E066E284
:104490000E943F0580912E06815080932E0686B1A2
:1044A00080FD8FC086B181FD8CC086B182FF89C03E
:1044B00086B183FD86C083B18F70863009F081C0DC
:1044C0008091EA05873208F47CC08091380686FD29
:1044D00078C096E2971570F4FF20E9F080913806D5
:1044E000806480933806FA948CE490E067E20E943E
:1044F0003F0567C0A6E2A91588F4222001F180914A
:1045000038068064809338062A948CE490E067E251
:104510000E943F0556C0B6E2B91588F0E6E2EA15FA
:1045200088F4332001F18091380680648093380646
:104530003A948CE490E067E20E943F0542C0F6E2C4
:10454000FA1588F086E2881588F4112301F180912C
:10455000380680648093380611508CE490E067E25E
:104560000E943F052EC096E2981588F0A6E2A61597
:1045700070F4002361F080913806806480933806DF
:1045800001508CE490E067E20E943F051AC08091E0
:104590006405909165058732910598F480912E0607
:1045A000882379F0809138068064809338068CE403
:1045B00090E067E20E943F0580912E068150809333
:1045C0002E0686B180FD90C086B181FD8DC086B17A
:1045D00082FF8AC086B183FD87C083B18F70873028
:1045E00009F082C08091EA05883208F47DC080918C
:1045F000380688230CF478C0B7E2B71570F4FF20B2
:10460000E9F080913806806880933806FA948EE449
:1046100090E068E20E943F0567C0E7E2E91588F490
:10462000222001F1809138068068809338062A9410
:104630008EE490E068E20E943F0556C0F7E2F9156B
:1046400088F087E28A1588F4332001F180913806DA
:104650008068809338063A948EE490E068E20E9485
:104660003F0542C097E29A1588F0A7E2A81588F4A2
:10467000112301F18091380680688093380611502B
:104680008EE490E068E20E943F052EC0B7E2B815C4
:1046900088F0E7E2E61570F4002361F080913806B7
:1046A00080688093380601508EE490E068E20E94B2
:1046B0003F051AC080916405909165058832910587
:1046C00098F480912E06882379F0809138068068CE
:1046D000809338068EE490E068E20E943F05809166
:1046E0002E06815080932E0686B180FD8FC086B144
:1046F00081FD8CC086B182FF89C086B183FD86C0F2
:1047000083B18F70883009F081C08091EA058932C9
:1047100008F47CC080913A0680FD78C0F8E2F71575
:1047200070F4FF20E9F080913A06816080933A06A8
:10473000FA9480E590E069E20E943F0567C088E254
:10474000891588F4222001F180913A0681608093D6
:104750003A062A9480E590E069E20E943F0556C03F
:1047600098E2991588F0A8E2AA1588F4332001F19F
:1047700080913A06816080933A063A9480E590E011
:1047800069E20E943F0542C0B8E2BA1588F0E8E24B
:10479000E81588F4112301F180913A068160809335
:1047A0003A06115080E590E069E20E943F052EC074
:1047B000F8E2F81588F088E2861570F4002361F0BD
:1047C00080913A06816080933A06015080E590E03E
:1047D00069E20E943F051AC08091640590916505C9
:1047E0008932910598F480912E06882379F0809182
:1047F0003A06816080933A0680E590E069E20E9483
:104800003F0580912E06815080932E0686B180FD53
:104810008FC086B181FD8CC086B182FF89C086B110
:1048200083FD86C083B18F70893009F081C080918B
:10483000EA058A3208F47CC080913A0681FD78C08E
:1048400099E2971570F4FF20E9F080913A068260B2
:1048500080933A06FA9482E590E06AE20E943F056E
:1048600067C0A9E2A91588F4222001F180913A06D7
:10487000826080933A062A9482E590E06AE20E9480
:104880003F0556C0B9E2B91588F0E9E2EA1588F4A7
:10489000332001F180913A06826080933A063A947F
:1048A00082E590E06AE20E943F0542C0F9E2FA1513
:1048B00088F089E2881588F4112301F180913A0685
:1048C000826080933A06115082E590E06AE20E948D
:1048D0003F052EC099E2981588F0A9E2A61570F45C
:1048E000002361F080913A06826080933A0601507D
:1048F00082E590E06AE20E943F051AC0809164055B
:10490000909165058A32910598F480912E0688234E
:1049100079F080913A06826080933A0682E590E0D1
:104920006AE20E943F0580912E06815080932E06F8
:1049300086B180FD8FC086B181FD8CC086B182FFBB
:1049400089C086B183FD86C083B18F708A3009F03B
:1049500081C08091EA058B3208F47CC080913A06D0
:1049600082FD78C0BAE2B71570F4FF20E9F08091BB
:104970003A06846080933A06FA9484E590E06BE20C
:104980000E943F0567C0EAE2E91588F4222001F1A0
:1049900080913A06846080933A062A9484E590E0F8
:1049A0006BE20E943F0556C0FAE2F91588F08AE2F0
:1049B0008A1588F4332001F180913A06846080934F
:1049C0003A063A9484E590E06BE20E943F0542C0CB
:1049D0009AE29A1588F0AAE2A81588F4112301F149
:1049E00080913A06846080933A06115084E590E005
:1049F0006BE20E943F052EC0BAE2B81588F0EAE2E9
:104A0000E61570F4002361F080913A06846080938B
:104A10003A06015084E590E06BE20E943F051AC01F
:104A200080916405909165058B32910598F4809191
:104A30002E06882379F080913A06846080933A06A6
:104A400084E590E06BE20E943F0580912E06815044
:104A500080932E0686B180FD8FC086B181FD8CC00B
:104A600086B182FF89C086B183FD86C083B18F7015
:104A70008B3009F081C08091EA058C3208F47CC04B
:104A800080913A0683FD78C0FBE2F71570F4FF20B1
:104A9000E9F080913A06886080933A06FA9486E5B8
:104AA00090E06CE20E943F0567C08BE2891588F4B4
:104AB000222001F180913A06886080933A062A9478
:104AC00086E590E06CE20E943F0556C09BE2991596
:104AD00088F0ABE2AA1588F4332001F180913A0600
:104AE000886080933A063A9486E590E06CE20E94F2
:104AF0003F0542C0BBE2BA1588F0EBE2E81588F446
:104B0000112301F180913A06886080933A06115092
:104B100086E590E06CE20E943F052EC0FBE2F815AE
:104B200088F08BE2861570F4002361F080913A06DC
:104B3000886080933A06015086E590E06CE20E941E
:104B40003F051AC080916405909165058C329105EE
:104B500098F480912E06882379F080913A06886037
:104B600080933A0686E590E06CE20E943F058091D2
:104B70002E06815080932E0686B180FD8FC086B1AF
:104B800081FD8CC086B182FF89C086B183FD86C05D
:104B900083B18F708C3009F081C08091EA058D322D
:104BA00008F47CC080913A0684FD78C09CE2971599
:104BB00070F4FF20E9F080913A06806180933A0614
:104BC000FA9488E590E06DE20E943F0567C0ACE290
:104BD000A91588F4222001F180913A068061809322
:104BE0003A062A9488E590E06DE20E943F0556C09F
:104BF000BCE2B91588F0ECE2EA1588F4332001F143
:104C000080913A06806180933A063A9488E590E074
:104C10006DE20E943F0542C0FCE2FA1588F08CE28A
:104C2000881588F4112301F180913A068061809300
:104C30003A06115088E590E06DE20E943F052EC0D3
:104C40009CE2981588F0ACE2A61570F4002361F0A0
:104C500080913A06806180933A06015088E590E0A1
:104C60006DE20E943F051AC0809164059091650530
:104C70008D32910598F480912E06882379F08091E9
:104C80003A06806180933A0688E590E06DE20E94E2
:104C90003F0580912E06815080932E0686B180FDBF
:104CA00080C086B181FD7DC086B182FF7AC086B1A9
:104CB00083FD77C083B18F708D3009F072C0809111
:104CC000EA058E3208F46DC080913A0685FD69C010
:104CD000BDE2B71580F0B91588F4222001F180916A
:104CE0003A06806280933A062A948AE590E06EE262
:104CF0000E943F0556C0EDE2E91588F0FDE2FA1585
:104D000088F4332001F180913A06806280933A065C
:104D10003A948AE590E06EE20E943F0542C08DE23F
:104D20008A1588F09DE2981588F4112301F180918D
:104D30003A06806280933A0611508AE590E06EE26E
:104D40000E943F052EC0ADE2A81588F0BDE2B61561
:104D500070F4002361F080913A06806280933A06F5
:104D600001508AE590E06EE20E943F051AC08091F2
:104D70006405909165058E32910598F480912E0618
:104D8000882379F080913A06806280933A068AE51A
:104D900090E06EE20E943F0580912E068150809344
:104DA0002E0686B180FD80C086B181FD7DC086B1B2
:104DB00082FF7AC086B183FD77C083B18F708E3059
:104DC00009F072C08091EA058F3208F46DC08091BD
:104DD0003A0686FD69C0EEE2E71580F0E91588F431
:104DE000222001F180913A06806480933A062A9449
:104DF0008CE590E06FE20E943F0556C0FEE2F91597
:104E000088F08EE28A1588F4332001F180913A0609
:104E1000806480933A063A948CE590E06FE20E94B9
:104E20003F0542C09EE29A1588F0AEE2A81588F4CC
:104E3000112301F180913A06806480933A06115063
:104E40008CE590E06FE20E943F052EC0BEE2B815EF
:104E500088F0EEE2E61570F4002361F080913A06E6
:104E6000806480933A0601508CE590E06FE20E94E6
:104E70003F051AC080916405909165058F329105B8
:104E800098F480912E06882379F080913A06806408
:104E900080933A068CE590E06FE20E943F05809196
:104EA0002E06815080932E0686B180FD81C086B18A
:104EB00081FD7EC086B182FF7BC086B183FD78C054
:104EC00083B18F708F3009F073C08091EA05803311
:104ED00008F46EC080913A0688230CF469C0FFE2A2
:104EE000F71580F0F91588F4222001F180913A0637
:104EF000806880933A062A948EE590E060E30E94F1
:104F00003F0556C08FE2891588F09FE29A1588F414
:104F1000332001F180913A06806880933A063A94F2
:104F20008EE590E060E30E943F0542C0AFE2AA1523
:104F300088F0BFE2B81588F4112301F180913A0698
:104F4000806880933A0611508EE590E060E30E94FD
:104F50003F052EC0EFE2E81588F0FFE2F61570F489
:104F6000002361F080913A06806880933A060150F0
:104F70008EE590E060E30E943F051AC080916405D1
:104F8000909165058033910598F480912E068823D1
:104F900079F080913A06806880933A068EE590E039
:104FA00060E30E943F0580912E06815080932E067B
:104FB00086B180FD82C086B181FD7FC086B182FD51
:104FC0007CC086B183FF79C083B190E08F70907010
:104FD000009709F072C08091EA05813308F46DC032
:104FE0008091670580FD69C080E3871580F0891591
:104FF00088F4222001F18091670581608093670524
:105000002A9480E690E061E30E943F0556C090E359
:10501000991588F0A0E3AA1588F4332001F1809156
:1050200067058160809367053A9480E690E061E3CC
:105030000E943F0542C0B0E3BA1588F0E0E3E815EE
:1050400088F4112301F180916705816080936705E1
:10505000115080E690E061E30E943F052EC0F0E32E
:10506000F81588F080E3861570F4002361F08091D4
:105070006705816080936705015080E690E061E3F9
:105080000E943F051AC080916405909165058133A7
:10509000910598F480912E06882379F08091670518
:1050A00081608093670580E690E061E30E943F05A0
:1050B00080912E06815080932E0686B180FD80C09F
:1050C00086B181FD7DC086B182FD7AC086B183FF45
:1050D00077C083B18F70813009F072C08091EA058A
:1050E000823308F46DC08091670581FD69C091E34A
:1050F000971580F0991588F4222001F180916705B9
:105100008260809367052A9482E690E062E30E94C1
:105110003F0556C0A1E3A91588F0B1E3BA1588F49C
:10512000332001F1809167058260809367053A948E
:1051300082E690E062E30E943F0542C0E1E3EA15A7
:1051400088F0F1E3F81588F4112301F180916705E7
:10515000826080936705115082E690E062E30E94CE
:105160003F052EC081E3881588F091E3961570F411
:10517000002361F08091670582608093670501508C
:1051800082E690E062E30E943F051AC080916405C8
:10519000909165058233910598F480912E068823BD
:1051A00079F08091670582608093670582E690E0E0
:1051B00062E30E943F0580912E06815080932E0667
:1051C00086B180FD80C086B181FD7DC086B182FD43
:1051D0007AC086B183FF77C083B18F70823009F0C7
:1051E00072C08091EA05833308F46DC08091670531
:1051F00082FD69C0A2E3A71580F0A91588F42220DA
:1052000001F1809167058460809367052A9484E6A4
:1052100090E063E30E943F0556C0B2E3B91588F001
:10522000E2E3EA1588F4332001F180916705846098
:10523000809367053A9484E690E063E30E943F051B
:1052400042C0F2E3FA1588F082E3881588F411234E
:1052500001F180916705846080936705115084E6B1
:1052600090E063E30E943F052EC092E3981588F01A
:10527000A2E3A61570F4002361F0809167058460B5
:1052800080936705015084E690E063E30E943F0548
:105290001AC080916405909165058333910598F457
:1052A00080912E06882379F0809167058460809331
:1052B000670584E690E063E30E943F0580912E0637
:1052C000815080932E0686B180FD80C086B181FD1D
:1052D0007DC086B182FD7AC086B183FF77C083B17D
:1052E0008F70833009F072C08091EA05843308F42E
:1052F0006DC08091670583FD69C0B3E3B71580F089
:10530000B91588F4222001F18091670588608093A7
:1053100067052A9486E690E064E30E943F0556C044
:10532000E3E3E91588F0F3E3FA1588F4332001F19B
:10533000809167058860809367053A9486E690E0DF
:1053400064E30E943F0542C083E38A1588F093E33B
:10535000981588F4112301F1809167058860809386
:105360006705115086E690E064E30E943F052EC079
:10537000A3E3A81588F0B3E3B61570F4002361F039
:1053800080916705886080936705015086E690E00C
:1053900064E30E943F051AC0809164059091650501
:1053A0008433910598F480912E06882379F08091BA
:1053B000670588608093670586E690E064E30E9455
:1053C0003F0580912E06815080932E0686B180FD88
:1053D00080C086B181FD7DC086B182FD7AC086B174
:1053E00083FF77C083B18F70843009F072C08091E1
:1053F000EA05853308F46DC08091670584FD69C0B6
:10540000E4E3E71580F0E91588F4222001F18091AA
:1054100067058061809367052A9488E690E065E3DC
:105420000E943F0556C0F4E3F91588F084E38A151D
:1054300088F4332001F180916705806180936705CE
:105440003A9488E690E065E30E943F0542C094E309
:105450009A1588F0A4E3A81588F4112301F180912E
:105460006705806180936705115088E690E065E3E9
:105470000E943F052EC0B4E3B81588F0E4E3E615BA
:1054800070F4002361F08091670580618093670567
:10549000015088E690E065E30E943F051AC08091C4
:1054A0006405909165058533910598F480912E06E9
:1054B000882379F08091670580618093670588E68D
:1054C00090E065E30E943F0580912E068150809315
:1054D0002E0686B180FD80C086B181FD7DC086B17B
:1054E00082FD7AC086B183FF77C083B18F7085302B
:1054F00009F072C08091EA05863308F46DC080918E
:10550000670585FD69C0F5E3F71580F0F91588F4A6
:10551000222001F1809167058062809367052A94BB
:105520008AE690E066E30E943F0556C085E3891550
:1055300088F095E39A1588F4332001F1809167058E
:105540008062809367053A948AE690E066E30E9461
:105550003F0542C0A5E3AA1588F0B5E3B81588F465
:10556000112301F1809167058062809367051150D6
:105570008AE690E066E30E943F052EC0E5E3E81569
:1055800088F0F5E3F61570F4002361F0809167056B
:1055900080628093670501508AE690E066E30E948E
:1055A0003F051AC080916405909165058633910589
:1055B00098F480912E06882379F0809167058062A7
:1055C000809367058AE690E066E30E943F0580913C
:1055D0002E06815080932E0686B180FD80C086B154
:1055E00081FD7DC086B182FD7AC086B183FF77C020
:1055F00083B18F70863009F072C08091EA058733DD
:1056000008F46DC08091670586FD69C086E3871543
:1056100080F0891588F4222001F18091670580646B
:10562000809367052A948CE690E067E30E943F052B
:1056300056C096E3991588F0A6E3AA1588F433209E
:1056400001F1809167058064809367053A948CE648
:1056500090E067E30E943F0542C0B6E3BA1588F0C8
:10566000E6E3E81588F4112301F180916705806471
:105670008093670511508CE690E067E30E943F0538
:105680002EC0F6E3F81588F086E3861570F4002343
:1056900061F08091670580648093670501508CE616
:1056A00090E067E30E943F051AC0809164059091E5
:1056B00065058733910598F480912E06882379F04B
:1056C000809167058064809367058CE690E067E3CE
:1056D0000E943F0580912E06815080932E0686B150
:1056E00080FD81C086B181FD7EC086B182FD7BC018
:1056F00086B183FF78C083B18F70873009F073C0A3
:105700008091EA05883308F46EC08091670588238C
:105710000CF469C097E3971580F0991588F422205E
:1057200001F1809167058068809367052A948EE671
:1057300090E068E30E943F0556C0A7E3A91588F0F2
:10574000B7E3BA1588F4332001F1809167058068CA
:10575000809367053A948EE690E068E30E943F05E7
:1057600042C0E7E3EA1588F0F7E3F81588F411235F
:1057700001F18091670580688093670511508EE67E
:1057800090E068E30E943F052EC087E3881588F00B
:1057900097E3961570F4002361F0809167058068A7
:1057A0008093670501508EE690E068E30E943F0514
:1057B0001AC080916405909165058833910598F42D
:1057C00080912E06882379F0809167058068809308
:1057D00067058EE690E068E30E943F0580912E0603
:1057E000815080932E0686B180FD80C086B181FDF8
:1057F0007DC086B182FD7AC086B183FF77C083B158
:105800008F70883009F072C08091EA05893308F4FE
:105810006DC08091330680FD69C0A8E3A71580F0B4
:10582000A91588F4222001F18091330681608093CC
:1058300033062A9480E790E069E30E943F0556C052
:10584000B8E3B91588F0E8E3EA1588F4332001F1EC
:10585000809133068160809333063A9480E790E02C
:1058600069E30E943F0542C0F8E3FA1588F088E337
:10587000881588F4112301F18091330681608093AB
:105880003306115080E790E069E30E943F052EC087
:1058900098E3981588F0A8E3A61570F4002361F04A
:1058A00080913306816080933306015080E790E059
:1058B00069E30E943F051AC08091640590916505D7
:1058C0008933910598F480912E06882379F0809190
:1058D000330681608093330680E790E069E30E949D
:1058E0003F0580912E06815080932E0686B180FD63
:1058F00080C086B181FD7DC086B182FD7AC086B14F
:1059000083FF77C083B18F70893009F072C08091B6
:10591000EA058A3308F46DC08091330681FD69C0C1
:10592000B9E3B71580F0B91588F4222001F1809110
:1059300033068260809333062A9482E790E06AE31C
:105940000E943F0556C0E9E3E91588F0F9E3FA152E
:1059500088F4332001F1809133068260809333060E
:105960003A9482E790E06AE30E943F0542C089E3EF
:105970008A1588F099E3981588F4112301F1809134
:105980003306826080933306115082E790E06AE329
:105990000E943F052EC0A9E3A81588F0B9E3B6150B
:1059A00070F4002361F080913306826080933306A7
:1059B000015082E790E06AE30E943F051AC080919F
:1059C0006405909165058A33910598F480912E06BF
:1059D000882379F08091330682608093330682E7D2
:1059E00090E06AE30E943F0580912E0681508093EB
:1059F0002E0686B180FD80C086B181FD7DC086B156
:105A000082FD7AC086B183FF77C083B18F708A3000
:105A100009F072C08091EA058B3308F46DC0809163
:105A2000330682FD69C0EAE3E71580F0E91588F4E2
:105A3000222001F1809133068460809333062A94FA
:105A400084E790E06BE30E943F0556C0FAE3F91546
:105A500088F08AE38A1588F4332001F180913306B7
:105A60008460809333063A9484E790E06BE30E946D
:105A70003F0542C09AE39A1588F0AAE3A81588F476
:105A8000112301F180913306846080933306115015
:105A900084E790E06BE30E943F052EC0BAE3B8159F
:105AA00088F0EAE3E61570F4002361F08091330694
:105AB000846080933306015084E790E06BE30E949A
:105AC0003F051AC080916405909165058B3391055F
:105AD00098F480912E06882379F0809133068460B3
