S011000053455F45564D5F53442E737265633E
S11300000C9472000C9493000C9493000C94930041
S11300100C9493000C9493000C9493000C94930010
S11300200C9493000C9493000C9493000C94930000
S11300300C9493000C9493000C9493000C949300F0
S11300400C9493000C9493000C9493000C949300E0
S11300500C9493000C9493000C9493000C949300D0
S11300600C9493000C943D300C9493000C949300E6
S11300700C9493000C9493000C9493000C949300B0
S11300800C9493000C9493000C9493000C949300A0
S11300900C9493000C9493000C9493000C94930090
S11300A00C9493000C9493000C9493000C94930080
S11300B00C9493000C9493000C9493000C94930070
S11300C00C9493000C9493000C9493000C94930060
S11300D00C9493000C9493000C9493000C94930050
S11300E00C94930011241FBECFEFD1E2DEBFCDBF2D
S11300F000E00CBF14E0A0E0B2E0E2ECFEE600E0B9
S11301000BBF02C007900D92AA3DB107D9F726E0B4
S1130110AAEDB4E001C01D92A634B207E1F70E9433
S11301203A310C945F370C940000ECEBF0E0108251
S113013094EA908390819923ECF79091B900987F89
S11301409830A1F48093BB0084E88093BC00ECEB6E
S1130150F0E080818823ECF79091B900987F983182
S113016039F081E0903429F480E0089581E0089525
S113017080E008958093BB0084E88093BC00ECEB9E
S1130180F0E080818823ECF79091B900987F81E0BA
S1130190983209F480E0089584EC8093BC00ECEB81
S11301A0F0E080818823ECF78091BB00089584E817
S11301B08093BC00ECEBF0E080818823ECF7809125
S11301C0BB0008958FEF81B9539A549A5B98579A5C
S11301D0569A989A999AEAE0F1E090819D7F9083EB
S11301E090819B7F9083A198A09AEBE0F1E09081AD
S11301F0926090839081946090839D9AA59A17B899
S113020088B98FEE84B9569A5E98F894089587E772
S11302108093C4001092C50088E98093C1000895BA
S1130220E0ECF0E0908195FFFDCF8093C600089547
S1130230CF93DF93EC018881882331F021960E94CB
S1130240100189918111FBCFDF91CF910895E0ECEA
S1130250F0E080818823ECF78091C60008950F9325
S11302601F93CF93DF938C019C01329522952F70BD
S113027023273F702327A7E4B3E00E943A37EC0119
S1130280D695C795D695C795D695C7958C2F806377
S11302900E94100120E137E2C29FC001C39F900D6C
S11302A0D29F900D1124081B190B980136952795A0
S11302B03695279536952795A5ECB0E20E943A37F6
S11302C0EC01D295C295CF70CD27DF70CD278C2F4E
S11302D080630E94100128EE33E0C29FC001C39FD7
S11302E0900DD29F900D1124081B190B980136957F
S11302F0279536952795ABE7B4E10E943A37EC0190
S1130300D695C7958C2F80630E94100124E62C9FFC
S1130310C0012D9F900D1124081B190B9801ADEC01
S1130320BCEC0E943A37EC01D695C795D695C79593
S1130330D695C7958C2F80630E941001CE01880F3B
S1130340991FCC0FDD1FCC0FDD1FCC0FDD1FC80F95
S1130350D91FC8018C1B9D0B80630E941001DF9183
S1130360CF911F910F91089582B95F985E9A8FEF94
S113037093E20197F1F700C000005E980895FC0134
S11303802081222371F0319622B95F9A5E9A8FEF11
S113039093E20197F1F700C000005E9821912111CA
S11303A0F3CF089582B95F9A5E9A8FEF93E2019733
S11303B0F1F700C000005E980895AC019C01ADEC1B
S11303C0BCEC0E943A3796958795969587959695B5
S11303D087959C01220F331F880F991F880F991F3F
S11303E0880F991F820F931F9A01281B390B309392
S11303F03A06209339069A010E943A37AC01569581
S1130400479556954795569547959A010E943A37D0
S11304109695879596958795969587959C01220F35
S1130420331F880F991F880F991F880F991F820FF8
S1130430931F9A01281B390BC90130933806209366
S11304403706805D82B95F9A5E9A8FEF93E20197D7
S1130450F1F700C000005E9880913906805D82B992
S11304605F9A5E9A8FEF93E20197F1F700C0000064
S11304705E980895CF93DF93AC01EFE3F6E0C7E312
S1130480D6E09A01ADECBCEC0E943A37969587957C
S113049096958795969587959C01220F331F880F13
S11304A0991F880F991F880F991F820F931F9A0114
S11304B0281B390B329322939A010E943A37AC01DC
S11304C0569547955695479556954795EC17FD07CC
S11304D0C1F6E7E3F6E08FE396E020813296205DF3
S11304E022B95F9A5E9AAFEFB3E21197F1F700C0B9
S11304F000005E98E817F90781F7DF91CF9108951E
S113050085E08093B80084E08093BC000895ECEB10
S1130510F0E084EA808380818F7D808380818823DA
S1130520ECF708958093BB0084E88093BC00ECEB67
S1130530F0E080818823ECF70895813021F484EC85
S11305408093BC0005C0811103C084E88093BC0083
S1130550ECEBF0E080818823ECF78091BB00809382
S1130560E7050895ECEBF0E08081846980830895C9
S1130570EF92FF920F931F93CF93DF93C62FD72F42
S11305807A0189010E949500811118C08D2F0E9463
S1130590BA008C2F0E94BA000115110559F0E70129
S11305A00E0D1F1D89910E94BA00811109C0C01748
S11305B0D107C1F70E94B20280E003C081E001C00C
S11305C081E0DF91CF911F910F91FF90EF900895FB
S11305D0CF92DF92EF92FF920F931F93CF93DF930B
S11305E0C82FD62F172F6A0179010E949500811117
S11305F028C0812F0E94BA008D2F0E94BA008C2F30
S113060081600E94950081111EC081E0E81AF10802
S1130610E114F10461F08601C0E0D0E00E94CC0056
S1130620F80181938F012196CE15DF05B8F3E60119
S1130630CE0DDF1D0E94D70088830E94B20280E0A5
S113064003C081E001C081E0DF91CF911F910F9140
S1130650FF90EF90DF90CF900895FF920F931F9338
S1130660CF93DF938B01C82FD0E0FE01EE0FFF1F65
S1130670E552FB4F6081718121E030E04FE356E0A9
S113068080EA0E94E802F0903F062FEF8FE995E0A0
S1130690215080409040E1F700C000002F2D30E051
S11306A0CC0FDD1FC552DB4F688179816F5F7F4FAF
S11306B04FE356E080EA0E94E80282E092E00E9462
S11306C018018AE090E00E9410018BE192E00E9400
S11306D01801C8010E942F018AE090E00E941001D5
S11306E087E292E00E9418018AE090E00E941001E3
S11306F0FF2059F00FE316E0E801899190E00E9491
S113070010018C2F801B8F15C0F38AE090E00E94AB
S1130710100182E092E00E9418018AE090E00E94B9
S113072010018AE090E00E9410018AE090E00E94AB
S113073010018AE090E00E941001DF91CF911F9197
S11307400F91FF9008951F93CF93DF93C82FD62F57
S1130750172F0E9487028C2F0E949202812F0E94E1
S113076092028D2F0E9492020E94B2028FEF91E1B9
S11307700197F1F700C000000E94870281E08C0F0E
S11307800E94920280E00E949D020E94B202809127
S1130790E705DF91CF911F910895CF93DF93C82F81
S11307A0D92F0E94870280EA0E9492028D2F0E9414
S11307B092028C2F0E9492020E94B2028FEF91E16A
S11307C00197F1F700C000000E94870281EA0E94AD
S11307D0920281E00E949D028091E70590E0982FAB
S11307E0882790935E0580935D0580E00E949D02BA
S11307F02091E70580915D0590915E05820F911D22
S113080090935E0580935D050E94B202DF91CF91C3
S11308100895FF920F931F93CF93DF93C82F062F52
S1130820F72ED42F152F0E9487028C2F0E9492023C
S11308309091F305992314F40E94B2029091F30568
S113084099238CF38F2D0E949202802F0E94920292
S1130850812F0E9492028D2F0E9492020E94B20266
S11308608FEF93EB0197F1F700C00000DF91CF9178
S11308701F910F91FF900895DF92EF92FF920F93D3
S11308801F93CF93DF93C82FD62F172F7A01022FF0
S11308900E9487028C2F0E9492029091F305992363
S11308A014F40E94B2029091F30599238CF3812FE2
S11308B00E9492028D2F0E94920210E001501109B1
S11308C01123CCF0D12CCD2DD0E0CC0FDD1FCE0DDB
S11308D0DF1D89810E94920288810E9492028FEF1B
S11308E093EB0197F1F700C00000D3948D2D90E0B5
S11308F00817190744F70E94B2028FEF93EB019790
S1130900F1F700C00000DF91CF911F910F91FF908C
S1130910EF90DF900895EF92FF920F931F93CF9380
S1130920DF93FC0180818034C9F58F010E5F1F4F76
S1130930E280F12C2FEFE21AF20AC0910002D0916A
S11309400102E181F0E0EE0FFF1FE552FB4FD1837E
S1130950C0839701A801BE0180EA0E94B8022196D3
S1130960EC0EFD1EF0920102E09200028FEF9FE177
S11309702CE1815090402040E1F700C0000020E4C9
S113098030E04BED54E060E071E080EA90E00E94DA
S11309903C048DEC92E00E941801F80180818F33B1
S11309A0C9F5018110E0F801EE0FFF1FE552FB4F7E
S11309B06081718121E030E04FE356E080EA0E94DB
S11309C0E8028FEF99E50197F1F700C00000C091AC
S11309D03F06D0E0F801EE0FFF1FE552FB4F6081A8
S11309E071816F5F7F4F9E014FE356E080EA0E9462
S11309F0E802209779F010E0E12FF0E0E15CF94F94
S1130A00808190E00E9410011F5F812F90E08C177D
S1130A109D0790F3DF91CF911F910F91FF90EF907D
S1130A200895AF92BF92CF92DF92EF92FF920F930D
S1130A301F93CF93DF936B015A017A01EB01C05CE2
S1130A40DF4F8B01C8010E94CD0380915D05909119
S1130A505E05F701819391937F010E5F1F4F8FEF26
S1130A6093EB0197F1F700C000000C171D0751F735
S1130A709FEFEFE1FCE19150E040F040E1F700C06E
S1130A8000008501005C1F4F22E8C20ED11CCE017C
S1130A900E94CD0380915D0590915E05F8018193DC
S1130AA091938F0122968FEF93EB0197F1F700C09A
S1130AB00000CC15DD0559F7DF91CF911F910F91FF
S1130AC0FF90EF90DF90CF90BF90AF900895EF929A
S1130AD0FF920F931F93CF93DF93182FF62EE72ED9
S1130AE0042FC9EBD0E00E948702812F0E9492025A
S1130AF09881987F903211F40E94B2029881987F75
S1130B00903289F386EE90E00197F1F700008E2D84
S1130B100E9492028F2D0E949202802F0E949202C4
S1130B200E94B2028FEF93EB0197F1F700C000002F
S1130B30DF91CF911F910F91FF90EF9008950F9344
S1130B401F93CF93DF93182F062FC9EBD0E00E9499
S1130B508702812F0E9492029881987F903211F42B
S1130B600E94B2029881987F903289F386EE90E0D9
S1130B700197F1F70000802F0E9492020E94B202B6
S1130B80DF91CF911F910F9108951F93CF93DF931E
S1130B90D82F192FC62F8091F205823409F05FC037
S1130BA081E00E94B4018AE392E00E94BF018D2F8C
S1130BB0912F0E94CD032FEF8FE995E021508040C3
S1130BC09040E1F700C000008091E405843459F4BA
S1130BD020915D0530915E052E5F3F4F30935E0599
S1130BE020935D050AC020915D0530915E052F5F5D
S1130BF03F4F30935E0520935D0540915D05509114
S1130C005E056D2F712F80EA0E9409048091E90529
S1130C1081508093E9058091ED0581110AC02091EE
S1130C203106309132062F5F3F4F309332062093C6
S1130C30310681E08093ED058091F3058062809315
S1130C40F3056C2F80E80E949F05A19AA0986091FB
S1130C503106709132068C2F0E942D032AC0809198
S1130C60ED05811103C081E08093ED058091F305CA
S1130C7080628093F30520912E0630E0C901880F2D
S1130C80991FFC01EC59FA4FD08311836D2F0E94F8
S1130C90513780912E068F5F80932E068091E9054F
S1130CA081508093E9056C2F80E80E949F05A19AEA
S1130CB0A098DF91CF911F91089580915F0580FFE7
S1130CC004C061E080E80E949F058CEC91E00197EC
S1130CD0F1F700C0000080915F0581FF04C062E06D
S1130CE080E80E949F058CEC91E00197F1F700C029
S1130CF0000080915F0582FF04C063E080E80E94E9
S1130D009F058CEC91E00197F1F700C00000809101
S1130D105F0583FF04C064E080E80E949F058CECBB
S1130D2091E00197F1F700C0000080915F0584FF16
S1130D3004C065E080E80E949F058CEC91E0019777
S1130D40F1F700C0000080915F0585FF04C066E0F4
S1130D5080E80E949F058CEC91E00197F1F700C0B8
S1130D60000080915F0586FF04C067E080E80E9470
S1130D709F058CEC91E00197F1F700C00000809191
S1130D805F05882324F468E080E80E949F058CECCA
S1130D9091E00197F1F700C000008091290680FFDF
S1130DA004C069E080E80E949F058CEC91E0019703
S1130DB0F1F700C000008091290681FF04C06AE0B9
S1130DC080E80E949F058CEC91E00197F1F700C048
S1130DD000008091290682FF04C06BE080E80E9435
S1130DE09F058CEC91E00197F1F700C00000809121
S1130DF0290683FF04C06CE080E80E949F058CEC08
S1130E0091E00197F1F700C000008091290684FF6A
S1130E1004C06DE080E80E949F058CEC91E001978E
S1130E20F1F700C000008091290685FF04C06EE040
S1130E3080E80E949F058CEC91E00197F1F700C0D7
S1130E4000008091290686FF04C06FE080E80E94BC
S1130E509F058CEC91E00197F1F700C000008091B0
S1130E602906882324F460E180E80E949F058CEC25
S1130E7091E00197F1F700C000008091EF0580FF39
S1130E8004C061E180E80E949F058CEC91E0019729
S1130E90F1F700C000008091EF0581FF04C062E11A
S1130EA080E80E949F058CEC91E00197F1F700C067
S1130EB000008091EF0582FF04C063E180E80E9496
S1130EC09F058CEC91E00197F1F700C00000809140
S1130ED0EF0583FF04C064E180E80E949F058CEC69
S1130EE091E00197F1F700C000008091EF0584FFC5
S1130EF004C065E180E80E949F058CEC91E00197B5
S1130F00F1F700C000008091EF0585FF04C066E1A1
S1130F1080E80E949F058CEC91E00197F1F700C0F6
S1130F2000008091EF0586FF04C067E180E80E941D
S1130F309F058CEC91E00197F1F700C000008091CF
S1130F40EF05882324F468E180E80E949F058CEC77
S1130F5091E00197F1F700C0000080915C0580FFEB
S1130F6004C069E180E80E949F058CEC91E0019740
S1130F70F1F700C0000080915C0581FF04C06AE1C4
S1130F8080E80E949F058CEC91E00197F1F700C086
S1130F90000080915C0582FF04C06BE180E80E9440
S1130FA09F058CEC91E00197F1F700C0000080915F
S1130FB05C0583FF04C06CE180E80E949F058CEC13
S1130FC091E00197F1F700C0000080915C0584FF77
S1130FD004C06DE180E80E949F058CEC91E00197CC
S1130FE0F1F700C0000080915C0585FF04C06EE14C
S1130FF080E80E949F058CEC91E00197F1F700C016
S1131000000080915C0586FF04C06FE180E80E94C7
S11310109F058CEC91E00197F1F700C000008091EE
S11310205C05882324F460E280E80E949F058CEC30
S113103091E00197F1F700C000008091340680FF31
S113104004C061E280E80E949F058CEC91E0019766
S1131050F1F700C000008091340681FF04C062E211
S113106080E80E949F058CEC91E00197F1F700C0A5
S113107000008091340682FF04C063E280E80E948D
S11310809F058CEC91E00197F1F700C0000080917E
S1131090340683FF04C064E280E80E949F058CEC60
S11310A091E00197F1F700C000008091340684FFBD
S11310B004C065E280E80E949F058CEC91E00197F2
S11310C0F1F700C000008091340685FF04C066E299
S11310D080E80E949F058CEC91E00197F1F700C035
S11310E000008091340686FF04C067E280E80E9415
S11310F09F058CEC91E00197F1F700C0000080910E
S11311003406882324F468E280E80E949F058CEC6E
S113111091E00197F1F700C000008091360680FF4E
S113112004C069E280E80E949F058CEC91E001977D
S1131130F1F700C000008091360681FF04C06AE226
S113114080E80E949F058CEC91E00197F1F700C0C4
S113115000008091360682FF04C06BE280E80E94A2
S11311609F058CEC91E00197F1F700C0000080919D
S1131170360683FF04C06CE280E80E949F058CEC75
S113118091E00197F1F700C000008091360684FFDA
S113119004C06DE280E80E949F058CEC91E0019709
S11311A0F1F700C000008091360685FF04C06EE2AE
S11311B080E80E949F058CEC91E00197F1F700C054
S11311C000008091360686FF04C06FE280E80E942A
S11311D09F058CEC91E00197F1F700C0000080912D
S11311E03606882324F460E380E80E949F058CEC93
S11311F091E00197F1F700C000008091630580FF42
S113120004C061E380E80E949F058CEC91E00197A3
S1131210F1F700C000008091630581FF04C062E320
S113122080E80E949F058CEC91E00197F1F700C0E3
S113123000008091630582FF04C063E380E80E949C
S11312409F058CEC91E00197F1F700C000008091BC
S1131250630583FF04C064E380E80E949F058CEC6F
S113126091E00197F1F700C000008091630584FFCD
S113127004C065E380E80E949F058CEC91E001972F
S1131280F1F700C000008091630585FF04C066E3A8
S113129080E80E949F058CEC91E00197F1F700C073
S11312A000008091630586FF04C067E380E80E9424
S11312B09F058CEC91E00197F1F700C0000080914C
S11312C06305882324F468E380E80E949F058CEC7E
S11312D091E00197F1F700C0000080912F0680FF94
S11312E004C069E380E80E949F058CEC91E00197BB
S11312F0F1F700C0000080912F0681FF04C06AE36B
S113130080E80E949F058CEC91E00197F1F700C002
S1131310000080912F0682FF04C06BE380E80E94E6
S11313209F058CEC91E00197F1F700C000008091DB
S11313302F0683FF04C06CE380E80E949F058CECB9
S113134091E00197F1F700C0000080912F0684FF1F
S113135004C06DE380E80E949F058CEC91E0019746
S1131360F1F700C0000080912F0685FF04C06EE3F2
S113137080E80E949F058CEC91E00197F1F700C092
S1131380000080912F0686FF04C06FE380E80E946E
S11313909F058CEC91E00197F1F700C0000080916B
S11313A02F06882324F460E480E80E949F058CECD7
S11313B091E00197F1F700C0000008952F923F9249
S11313C04F925F926F927F928F929F92AF92BF9251
S11313D0CF92DF92EF92FF920F931F93CF93DF93FD
S11313E060E870E080EA0E94A3038F70282E60E812
S11313F070E080EA0E94A303C82F60E870E080EAEE
S11314000E94A30382958F70CF70582E5C0E60E803
S113141070E080EA0E94A303D82F60E870E080EABD
S11314200E94A30382958F70DF70C82FCD0F61E8EF
S113143070E080EA0E94A3038F707C2E780E60E82F
S113144070E080EA0E94A303D82F60E870E080EA8D
S11314500E94A30382958F70DF70C82FCD0F61E8BF
S113146070E080EA0E94A3038F70C80F61E870E007
S113147080EA0E94A30382958F70AC2EA80E60E8C8
S113148070E080EA0E94A303D82F60E870E080EA4D
S11314900E94A30382958F70DF70C82FCD0F61E87F
S11314A070E080EA0E94A3038F70C80F61E870E0C7
S11314B080EA0E94A30382958F70C80F62E870E0EF
S11314C080EA0E94A3038F709C2E980E60E870E05F
S11314D080EA0E94A303D82F60E870E080EA0E94AB
S11314E0A30382958F70DF70C82FCD0F61E870E081
S11314F080EA0E94A3038F70C80F61E870E080EA5D
S11315000E94A30382958F70C80F62E870E080EA9E
S11315100E94A3038F70C80F62E870E080EA0E9403
S1131520A30382958F708C2E880E60E870E080EAA9
S11315300E94A303D82F60E870E080EA0E94A3030E
S113154082958F70DF70C82FCD0F61E870E080EA5C
S11315500E94A3038F70C80F61E870E080EA0E94C4
S1131560A30382958F70C80F62E870E080EA0E943E
S1131570A3038F70C80F62E870E080EA0E94A3039F
S113158082958F70C80F63E870E080EA0E94A3031D
S11315908F706C2E680E60E870E080EA0E94A303EE
S11315A0D82F60E870E080EA0E94A30382958F70D0
S11315B0DF70C82FCD0F61E870E080EA0E94A303BA
S11315C08F70C80F61E870E080EA0E94A3038295DF
S11315D08F70C80F62E870E080EA0E94A3038F70E6
S11315E0C80F62E870E080EA0E94A30382958F70BE
S11315F0C80F63E870E080EA0E94A3038F70C80FED
S113160063E870E080EA0E94A30382958F703C2E09
S1131610380E8091F30585FD2CC068E870E080EAFF
S11316200E94A303B82E69E870E080EA0E94A30335
S1131630C82E6AE870E080EA0E94A303D82E6BE803
S113164070E080EA0E94A303F82E6CE870E080EA60
S11316500E94A303182F6DE870E080EA0E94A303A0
S1131660082F6EE870E080EA0E94A303E82E0C9431
S1131670062F8091F30585FD02C00C94062F65EAC0
S113168070E080EA0E94A303B82E66EA70E080EA64
S11316900E94A303C82E67EA70E080EA0E94A303B5
S11316A0D82E68EA70E080EA0E94A303F82E69EA63
S11316B070E080EA0E94A303182F6AEA70E080EACF
S11316C00E94A303082F6BEA70E080EA0E94A30340
S11316D0E82E0E945D060C94062F4091310650912D
S11316E0320668E970E080EA0E94090440915F05CF
S11316F06DE970E080EA0E946705409129066EE971
S113170070E080EA0E9467054091EF056FE970E0A0
S113171080EA0E94670540915C0560EA70E080EA17
S11317200E9467054091340661EA70E080EA0E94F5
S113173067054091360662EA70E080EA0E94670518
S11317404091630563EA70E080EA0E946705409176
S11317502F0664EA70E080EA0E9467054B2D65EA73
S113176070E080EA0E9467054C2D66EA70E080EA2A
S11317700E9467054D2D67EA70E080EA0E946705C4
S11317804F2D68EA70E080EA0E946705412F69EAFC
S113179070E080EA0E946705402F6AEA70E080EA00
S11317A00E9467054E2D6BEA70E080EA0E9467058F
S11317B040912A066EEA70E080EA0E946705409133
S11317C0E9056DEA70E080EA0E94670540912E0603
S11317D060EB70E080EA0E9467054091F3056FEAD0
S11317E070E080EA0E94670581E00E94B40186E40B
S11317F092E00E94BF0180EC0E94B4018091E9054F
S113180090E00E943A02A09AA1988091E905811182
S113181027C0349909C0359907C0369905C037994E
S113182003C0888181FDF5CF2FEF8FE995E021502A
S113183080409040E1F700C00000888181FD10C025
S1131840E9E0F1E0808181FFFDCF60E080E80E9463
S11318509F051092E90581E08093ED050C94122F09
S11318608091E905882311F40C94082F34991EC043
S113187035991CC036991AC0379918C0809109014E
S113188081FF14C0C9E0D1E086B190E00E942F012D
S11318908DE00E941001349909C0359907C036992A
S11318A005C0379903C0888181FDEECF2FEF8FE902
S11318B095E0215080409040E1F700C0000086B1DF
S11318C090E00E942F018DE00E941001349B3AC0E9
S11318D0359938C0369936C0379934C086B18F707F
S11318E089F58091E605882369F180915F0580FD83
S11318F029C0222071F0BB2061F080915F058160D6
S113190080935F0561E080E090E00E94C505BA9491
S113191019C08091600590916105892B99F480919B
S11319202A06882379F080915F05816080935F05A2
S113193061E080E090E00E94C50580912A06815014
S113194080932A06349B4FC035994DC036994BC0BD
S1131950379949C086B18F70813009F044C08091B5
S1131960E605823008F43FC080915F0581FD3BC0ED
S113197021E0221570F4BB20E9F080915F058260BC
S113198080935F05BA9462E082E090E00E94C5050E
S11319902AC081E0851570F4CC2061F080915F0548
S11319A0826080935F0562E082E090E00E94C5055A
S11319B0CA9419C08091600590916105029798F4CA
S11319C080912A06882379F080915F058260809354
S11319D05F0562E082E090E00E94C50580912A06DE
S11319E0815080932A06349B4FC035994DC0369957
S11319F04BC0379949C086B18F70823009F044C01A
S1131A008091E605833008F43FC080915F0582FD34
S1131A103BC092E0921570F4BB20E9F080915F0521
S1131A20846080935F0563E084E090E00E94C505D4
S1131A30BA942AC022E0251570F4CC2061F080917C
S1131A405F05846080935F0563E084E090E00E941A
S1131A50C505CA9419C080916005909161050397EA
S1131A6098F480912A06882379F080915F05846038
S1131A7080935F0563E084E090E00E94C505809157
S1131A802A06815080932A06349B63C0359961C02D
S1131A9036995FC037995DC086B18F70833009F085
S1131AA058C08091E605843008F453C080915F05E6
S1131AB083FD4FC083E0821570F4BB20E9F0809170
S1131AC05F05886080935F0564E086E090E00E9493
S1131AD0C505BA943EC093E0951588F4CC2001F175
S1131AE080915F05886080935F0564E086E090E004
S1131AF00E94C505CA942DC023E0251588F083E013
S1131B00871570F4DD2061F080915F058860809313
S1131B105F0564E086E090E00E94C505DA9419C090
S1131B208091600590916105049798F480912A064C
S1131B30882379F080915F05886080935F0564E075
S1131B4086E090E00E94C50580912A06815080932A
S1131B502A06349B63C0359961C036995FC03799B2
S1131B605DC086B18F70843009F058C08091E6055D
S1131B70853008F453C080915F0584FD4FC094E024
S1131B80921570F4BB20E9F080915F058061809329
S1131B905F0565E088E090E00E94C505BA943EC008
S1131BA024E0251588F4CC2001F180915F05806143
S1131BB080935F0565E088E090E00E94C505CA94C3
S1131BC02DC084E0851588F094E0971570F4DD202D
S1131BD061F080915F05806180935F0565E088E036
S1131BE090E00E94C505DA9419C080916005909137
S1131BF06105059798F480912A06882379F08091ED
S1131C005F05806180935F0565E088E090E00E9455
S1131C10C50580912A06815080932A06349B63C0AF
S1131C20359961C036995FC037995DC086B18F70B0
S1131C30853009F058C08091E605863008F453C019
S1131C4080915F0585FD4FC025E0221570F4BB200F
S1131C50E9F080915F05806280935F0566E08AE029
S1131C6090E00E94C505BA943EC085E0851588F4CD
S1131C70CC2001F180915F05806280935F0566E06E
S1131C808AE090E00E94C505CA942DC095E09515A0
S1131C9088F025E0271570F4DD2061F080915F0560
S1131CA0806280935F0566E08AE090E00E94C5054B
S1131CB0DA9419C08091600590916105069798F4B3
S1131CC080912A06882379F080915F058062809351
S1131CD05F0566E08AE090E00E94C50580912A06CF
S1131CE0815080932A06349B77C0359975C0369904
S1131CF073C0379971C086B18F70863009F06CC09B
S1131D008091E605873008F467C080915F0586FD01
S1131D1063C086E0821570F4BB20E9F080915F0512
S1131D20806480935F0567E08CE090E00E94C505C5
S1131D30BA9452C096E0951588F4CC2001F18091B4
S1131D405F05806480935F0567E08CE090E00E940B
S1131D50C505CA9441C026E0251588F086E087159C
S1131D6088F4DD2001F180915F05806480935F0534
S1131D7067E08CE090E00E94C505DA942DC096E0FF
S1131D80971588F026E02A1570F4FF2061F0809101
S1131D905F05806480935F0567E08CE090E00E94BB
S1131DA0C505FA9419C08091600590916105079763
S1131DB098F480912A06882379F080915F058064E5
S1131DC080935F0567E08CE090E00E94C5058091F8
S1131DD02A06815080932A06349B8CC035998AC088
S1131DE0369988C0379986C086B18F70873009F0DC
S1131DF081C08091E605883008F47CC080915F053D
S1131E0088230CF477C087E0821570F4BB20E9F0D6
S1131E1080915F05806880935F0568E08EE090E0C4
S1131E200E94C505BA9466C097E0951588F4CC2045
S1131E3001F180915F05806880935F0568E08EE022
S1131E4090E00E94C505CA9455C027E0251588F086
S1131E5087E0871588F4DD2001F180915F058068B3
S1131E6080935F0568E08EE090E00E94C505DA94F7
S1131E7041C097E0971588F027E02A1588F4FF20E1
S1131E8001F180915F05806880935F0568E08EE0D2
S1131E9090E00E94C505FA942DC087E08A1588F069
S1131EA097E0991570F4112361F080915F058068C3
S1131EB080935F0568E08EE090E00E94C5051150B4
S1131EC019C08091600590916105089798F48091FC
S1131ED02A06882379F080915F05806880935F05E6
S1131EE068E08EE090E00E94C50580912A0681504A
S1131EF080932A06349B8BC0359989C0369987C054
S1131F00379985C086B18F70883009F080C0809180
S1131F10E605893008F47BC08091290680FD77C0EE
S1131F2028E0221570F4BB20E9F080912906816035
S1131F308093290669E080E190E00E94C505BA9487
S1131F4066C088E0851588F4CC2001F180912906CB
S1131F5081608093290669E080E190E00E94C505D4
S1131F60CA9455C098E0951588F028E0271588F4A0
S1131F70DD2001F18091290681608093290669E0C2
S1131F8080E190E00E94C505DA9441C088E087159D
S1131F9088F098E09A1588F4FF2001F180912906D1
S1131FA081608093290669E080E190E00E94C50584
S1131FB0FA942DC028E02A1588F088E0891570F479
S1131FC0112361F08091290681608093290669E0DC
S1131FD080E190E00E94C505115019C08091600510
S1131FE090916105099798F480912A06882379F0E5
S1131FF08091290681608093290669E080E190E060
S11320000E94C50580912A06815080932A06349B3C
S11320108BC0359989C0369987C0379985C086B1F8
S11320208F70893009F080C08091E6058A3008F409
S11320307BC08091290681FD77C099E0921570F4E8
S1132040BB20E9F0809129068260809329066AE02A
S113205082E190E00E94C505BA9466C029E0251586
S113206088F4CC2001F180912906826080932906AE
S11320706AE082E190E00E94C505CA9455C089E0F7
S1132080851588F099E0971588F4DD2001F1809199
S113209029068260809329066AE082E190E00E942A
S11320A0C505DA9441C029E0271588F089E08A152E
S11320B088F4FF2001F1809129068260809329062B
S11320C06AE082E190E00E94C505FA942DC099E08F
S11320D09A1588F029E0291570F4112361F0809194
S11320E029068260809329066AE082E190E00E94DA
S11320F0C505115019C080916005909161050A973A
S113210098F480912A06882379F0809129068260C8
S1132110809329066AE082E190E00E94C5058091DF
S11321202A06815080932A06349B9FC035999DC00E
S113213036999BC0379999C086B18F708A3009F05F
S113214094C08091E6058B3008F48FC080912906F5
S113215082FD8BC08AE0821570F4BB20E9F0809187
S113216029068460809329066BE084E190E00E9454
S1132170C505BA947AC09AE0951588F4CC2001F18B
S1132180809129068460809329066BE084E190E0C5
S11321900E94C505CA9469C02AE0251588F08AE022
S11321A0871588F4DD2001F18091290684608093ED
S11321B029066BE084E190E00E94C505DA9455C0DD
S11321C09AE0971588F02AE02A1588F4FF2001F197
S11321D0809129068460809329066BE084E190E075
S11321E00E94C505FA9441C08AE08A1588F09AE0F5
S11321F0991588F4112301F1809129068460809354
S113220029066BE084E190E00E94C50511502DC0C1
S11322102AE0291588F08AE0881570F4002361F01B
S1132220809129068460809329066BE084E190E024
S11322300E94C505015019C0809160059091610507
S11322400B9798F480912A06882379F080912906C7
S11322508460809329066BE084E190E00E94C505C8
S113226080912A06815080932A06349B9FC0359919
S11322709DC036999BC0379999C086B18F708B30B9
S113228009F094C08091E6058C3008F48FC08091E9
S1132290290683FD8BC09BE0921570F4BB20E9F006
S11322A0809129068860809329066CE086E190E09D
S11322B00E94C505BA947AC02BE0251588F4CC2079
S11322C001F1809129068860809329066CE086E1FB
S11322D090E00E94C505CA9469C08BE0851588F01A
S11322E09BE0971588F4DD2001F180912906886030
S11322F0809329066CE086E190E00E94C505DA949B
S113230055C02BE0271588F08BE08A1588F4FF2050
S113231001F1809129068860809329066CE086E1AA
S113232090E00E94C505FA9441C09BE09A1588F09C
S11323302BE0291588F4112301F180912906886086
S1132340809329066CE086E190E00E94C505115057
S11323502DC08BE0891588F09BE0981570F400235C
S113236061F0809129068860809329066CE086E1FB
S113237090E00E94C505015019C0809160059091BC
S113238061050C9798F480912A06882379F080914E
S113239029068860809329066CE086E190E00E941B
S11323A0C50580912A06815080932A06349BB3C0C8
S11323B03599B1C03699AFC03799ADC086B18F7029
S11323C08C3009F0A8C08091E6058D3008F4A3C0D4
S11323D08091290684FD9FC02CE0221570F4BB2057
S11323E0E9F0809129068061809329066DE088E1F7
S11323F090E00E94C505BA948EC08CE0851588F4DF
S1132400CC2001F1809129068061809329066DE03A
S113241088E190E00E94C505CA947DC09CE09515B2
S113242088F02CE0271588F4DD2001F1809129063D
S11324308061809329066DE088E190E00E94C505E3
S1132440DA9469C08CE0871588F09CE09A1588F4CA
S1132450FF2001F1809129068061809329066DE0B7
S113246088E190E00E94C505FA9455C02CE02A1535
S113247088F08CE0891588F4112301F180912906F4
S11324808061809329066DE088E190E00E94C50593
S1132490115041C09CE0991588F02CE0281588F46F
S11324A0002301F1809129068061809329066DE063
S11324B088E190E00E94C50501502DC08CE088158C
S11324C088F09CE0961570F4EE2061F08091290666
S11324D08061809329066DE088E190E00E94C50543
S11324E0EA9419C080916005909161050D9798F464
S11324F080912A06882379F080912906806180934F
S113250029066DE088E190E00E94C50580912A06C5
S1132510815080932A06349BB3C03599B1C0369953
S1132520AFC03799ADC086B18F708D3009F0A8C0A7
S11325308091E6058E3008F4A3C08091290685FDBC
S11325409FC02DE0221570F4BB20E9F0809129068C
S11325508062809329066EE08AE190E00E94C505BE
S1132560BA948EC08DE0851588F4CC2001F1809159
S113257029068062809329066EE08AE190E00E9439
S1132580C505CA947DC09DE0951588F02DE02715FA
S113259088F4DD2001F18091290680628093290668
S11325A06EE08AE190E00E94C505DA9469C08DE08E
S11325B0871588F09DE09A1588F4FF2001F1809139
S11325C029068062809329066EE08AE190E00E94E9
S11325D0C505FA9455C02DE02A1588F08DE08915BB
S11325E088F4112301F180912906806280932906E1
S11325F06EE08AE190E00E94C505115041C09DE063
S1132600991588F02DE0281588F4002301F18091B4
S113261029068062809329066EE08AE190E00E9498
S1132620C50501502DC08DE0881588F09DE09615F4
S113263070F4EE2061F0809129068062809329066F
S11326406EE08AE190E00E94C505EA9419C0809189
S11326506005909161050E9798F480912A0688236D
S113266079F0809129068062809329066EE08AE1E0
S113267090E00E94C50580912A06815080932A0625
S1132680349BB3C03599B1C03699AFC03799ADC04A
S113269086B18F708E3009F0A8C08091E6058F3026
S11326A008F4A3C08091290686FD9FC02EE0221560
S11326B070F4BB20E9F08091290680648093290698
S11326C06FE08CE190E00E94C505BA948EC08EE064
S11326D0851588F4CC2001F18091290680648093CB
S11326E029066FE08CE190E00E94C505CA947DC084
S11326F09EE0951588F02EE0271588F4DD2001F181
S1132700809129068064809329066FE08CE190E033
S11327100E94C505DA9469C08EE0871588F09EE0B2
S11327209A1588F4FF2001F1809129068064809332
S113273029066FE08CE190E00E94C505FA9455C02B
S11327402EE02A1588F08EE0891588F4112301F112
S1132750809129068064809329066FE08CE190E0E3
S11327600E94C505115041C09EE0991588F02EE0E5
S1132770281588F4002301F1809129068064809350
S113278029066FE08CE190E00E94C50501502DC040
S11327908EE0881588F09EE0961570F4EE2061F0C6
S11327A0809129068064809329066FE08CE190E093
S11327B00E94C505EA9419C0809160059091610555
S11327C00F9798F480912A06882379F0809129063E
S11327D08064809329066FE08CE190E00E94C50537
S11327E080912A06815080932A06349BA0C0359993
S11327F09EC036999CC037999AC086B18F708F302D
S113280009F095C08091E605803108F490C080916C
S1132810290688230CF48BC02FE0251570F4CC20F6
S1132820E9F08091290680688093290660E18EE1B1
S113283090E00E94C505CA947AC08FE0871588F499
S1132840DD2001F18091290680688093290660E1EA
S11328508EE190E00E94C505DA9469C09FE0971567
S113286088F02FE02A1588F4FF2001F180912906D1
S113287080688093290660E18EE190E00E94C5059E
S1132880FA9455C08FE08A1588F09FE0991588F472
S1132890112301F18091290680688093290660E163
S11328A08EE190E00E94C505115041C02FE029152A
S11328B088F08FE0881588F4002301F180912906BF
S11328C080688093290660E18EE190E00E94C5054E
S11328D001502DC09FE0981588F02FE0261570F464
S11328E0EE2061F08091290680688093290660E1DA
S11328F08EE190E00E94C505EA9419C080916005BC
S113290090916105409798F480912A06882379F084
S11329108091290680688093290660E18EE190E029
S11329200E94C50580912A06815080932A06359B12
S11329309EC034999CC036999AC0379998C086B184
S11329408F7009F094C08091E605813108F48FC03E
S11329508091EF0580FD8BC080E1851570F4CC205B
S1132960E9F08091EF0581608093EF0561E180E2F9
S113297090E00E94C505CA947AC090E1971588F446
S1132980DD2001F18091EF0581608093EF0561E125
S113299080E290E00E94C505DA9469C020E1271521
S11329A088F080E18A1588F4FF2001F18091EF0519
S11329B081608093EF0561E180E290E00E94C505AB
S11329C0FA9455C090E19A1588F020E1291588F40D
S11329D0112301F18091EF0581608093EF0561E19E
S11329E080E290E00E94C505115041C080E1891544
S11329F088F090E1981588F4002301F18091EF05A7
S1132A0081608093EF0561E180E290E00E94C5055A
S1132A1001502DC020E1281588F080E1861570F45E
S1132A20EE2061F08091EF0581608093EF0561E114
S1132A3080E290E00E94C505EA9419C08091600587
S1132A4090916105419798F480912A06882379F042
S1132A508091EF0581608093EF0561E180E290E071
S1132A600E94C50580912A06815080932A06359BD1
S1132A709FC034999DC036999BC0379999C086B13F
S1132A808F70813009F094C08091E605823108F49A
S1132A908FC08091EF0581FD8BC091E1951570F495
S1132AA0CC20E9F08091EF0582608093EF0562E12C
S1132AB082E290E00E94C505CA947AC021E12715FC
S1132AC088F4DD2001F18091EF0582608093EF05A9
S1132AD062E182E290E00E94C505DA9469C081E176
S1132AE0871588F091E19A1588F4FF2001F180910F
S1132AF0EF0582608093EF0562E182E290E00E943C
S1132B00C505FA9455C021E12A1588F081E189159B
S1132B1088F4112301F18091EF0582608093EF0521
S1132B2062E182E290E00E94C505115041C091E14A
S1132B30991588F021E1281588F4002301F180918A
S1132B40EF0582608093EF0562E182E290E00E94EB
S1132B50C50501502DC081E1881588F091E19615D5
S1132B6070F4EE2061F08091EF0582608093EF05B0
S1132B7062E182E290E00E94C505EA9419C0809166
S1132B80600590916105429798F480912A06882304
S1132B9079F08091EF0582608093EF0562E182E233
S1132BA090E00E94C50580912A06815080932A06F0
S1132BB0359B9FC034999DC036999BC0379999C065
S1132BC086B18F70823009F094C08091E60583311C
S1132BD008F48FC08091EF0582FD8BC022E125159A
S1132BE070F4CC20E9F08091EF0584608093EF05C8
S1132BF063E184E290E00E94C505CA947AC082E150
S1132C00871588F4DD2001F18091EF0584608093BD
S1132C10EF0563E184E290E00E94C505DA9469C09F
S1132C2092E1971588F022E12A1588F4FF2001F13A
S1132C308091EF0584608093EF0563E184E290E086
S1132C400E94C505FA9455C082E18A1588F092E184
S1132C50991588F4112301F18091EF058460809324
S1132C60EF0563E184E290E00E94C505115041C084
S1132C7022E1291588F082E1881588F4002301F106
S1132C808091EF0584608093EF0563E184E290E036
S1132C900E94C50501502DC092E1981588F022E1EB
S1132CA0261570F4EE2061F08091EF058460809326
S1132CB0EF0563E184E290E00E94C505EA9419C03F
S1132CC08091600590916105439798F480912A065C
S1132CD0882379F08091EF0584608093EF0563E1A8
S1132CE084E290E00E94C50580912A068150809379
S1132CF02A06359B9FC034999DC036999BC037994D
S1132D0099C086B18F70833009F094C08091E60534
S1132D10843108F48FC08091EF0583FD8BC083E17B
S1132D20851570F4CC20E9F08091EF0588608093DC
S1132D30EF0564E186E290E00E94C505CA947AC07A
S1132D4093E1971588F4DD2001F18091EF05886007
S1132D508093EF0564E186E290E00E94C505DA9471
S1132D6069C023E1271588F083E18A1588F4FF20E0
S1132D7001F18091EF0588608093EF0564E186E2BC
S1132D8090E00E94C505FA9455C093E19A1588F025
S1132D9023E1291588F4112301F18091EF0588605E
S1132DA08093EF0564E186E290E00E94C50511502E
S1132DB041C083E1891588F093E1981588F40023D4
S1132DC001F18091EF0588608093EF0564E186E26C
S1132DD090E00E94C50501502DC023E1281588F01C
S1132DE083E1861570F4EE2061F08091EF05886030
S1132DF08093EF0564E186E290E00E94C505EA94C1
S1132E0019C08091600590916105449798F4809170
S1132E102A06882379F08091EF0588608093EF0576
S1132E2064E186E290E00E94C50580912A06815003
S1132E3080932A06359B9FC034999DC036999BC0C8
S1132E40379999C086B18F70843009F094C080910D
S1132E50E605853108F48FC08091EF0584FD8BC0B1
S1132E6094E1951570F4CC20E9F08091EF05806130
S1132E708093EF0565E188E290E00E94C505CA945D
S1132E807AC024E1271588F4DD2001F18091EF0553
S1132E9080618093EF0565E188E290E00E94C505BA
S1132EA0DA9469C084E1871588F094E19A1588F46E
S1132EB0FF2001F18091EF0580618093EF0565E1CA
S1132EC088E290E00E94C505FA9455C024E12A15D1
S1132ED088F084E1891588F4112301F18091EF05CC
S1132EE080618093EF0565E188E290E00E94C5056A
S1132EF0115041C094E1991588F024E1281588F413
S1132F00002301F18091EF0580618093EF0565E175
S1132F1088E290E00E94C50501502DC084E1881527
S1132F2088F094E1961570F4EE2061F08091EF053D
S1132F3080618093EF0565E188E290E00E94C50519
S1132F40EA9419C08091600590916105459798F4C1
S1132F5080912A06882379F08091EF05806180931F
S1132F60EF0565E188E290E00E94C50580912A069C
S1132F70815080932A06359B9FC034999DC0369911
S1132F809BC0379999C086B18F70853009F094C081
S1132F908091E605863108F48FC08091EF0585FDA8
S1132FA08BC025E1251570F4CC20E9F08091EF0564
S1132FB080628093EF0566E18AE290E00E94C50595
S1132FC0CA947AC084E1871570F4DD2061F08091A1
S1132FD0EF0580628093EF0566E18AE290E00E944B
S1132FE0C505DA9469C095E1971588F024E12A159E
S1132FF070F4FF2061F08091EF0580628093EF050B
S113300066E18AE290E00E94C505FA9455C085E124
S11330108A1588F094E1991570F4112361F0809178
S1133020EF0580628093EF0566E18AE290E00E94FA
S1133030C505115041C025E1291588F084E18815A2
S113304070F4002361F08091EF0580628093EF05B6
S113305066E18AE290E00E94C50501502DC095E129
S1133060981588F024E1261570F4EE2061F0809123
S1133070EF0580628093EF0566E18AE290E00E94AA
S1133080C505EA9419C08091600590916105469741
S113309098F480912A06882379F08091EF05806264
S11330A08093EF0566E18AE290E00E94C505809175
S11330B02A06815080932A06359BB3C03499B1C047
S11330C03699AFC03799ADC086B18F70863009F09C
S11330D0A8C08091E605873108F4A3C08091EF056C
S11330E086FD9FC086E1851570F4CC20E9F08091BF
S11330F0EF0580648093EF0567E18CE290E00E9425
S1133100C505CA948EC096E1971588F4DD2001F1B7
S11331108091EF0580648093EF0567E18CE290E095
S11331200E94C505DA947DC026E1271588F086E162
S11331308A1588F4FF2001F18091EF058064809363
S1133140EF0567E18CE290E00E94C505FA9469C03E
S113315096E19A1588F026E1291588F4112301F1E6
S11331608091EF0580648093EF0567E18CE290E045
S11331700E94C505115055C086E1891588F096E175
S1133180981588F4002301F18091EF058064809301
S1133190EF0567E18CE290E00E94C505015041C053
S11331A026E1281588F086E1861588F4EE2001F1E1
S11331B08091EF0580648093EF0567E18CE290E0F5
S11331C00E94C505EA942DC096E1961588F026E183
S11331D0231570F4442061F08091EF05806480939E
S11331E0EF0567E18CE290E00E94C5054A9419C09E
S11331F08091600590916105479798F480912A0623
S1133200882379F08091EF0580648093EF0567E16E
S11332108CE290E00E94C50580912A06815080933B
S11332202A06359BA0C034999EC036999CC0379914
S11332309AC086B18F70873009F095C08091E605F9
S1133240883108F490C08091EF0588230CF48BC07A
S113325087E1851570F4CC20E9F08091EF05806852
S11332608093EF0568E18EE290E00E94C505CA9460
S11332707AC097E1971588F4DD2001F18091EF057C
S113328080688093EF0568E18EE290E00E94C505B6
S1133290DA9469C027E1271588F087E18A1588F454
S11332A0FF2001F18091EF0580688093EF0568E1CC
S11332B08EE290E00E94C505FA9455C097E19A15F4
S11332C088F027E1291588F4112301F18091EF0595
S11332D080688093EF0568E18EE290E00E94C50566
S11332E0115041C087E1891588F097E1981588F459
S11332F0002301F18091EF0580688093EF0568E178
S11333008EE290E00E94C50501502DC027E12815EA
S113331088F087E1861570F4EE2061F08091EF0566
S113332080688093EF0568E18EE290E00E94C50515
S1133330EA9419C08091600590916105489798F4CA
S113334080912A06882379F08091EF058068809324
S1133350EF0568E18EE290E00E94C50580912A069F
S1133360815080932A06359B9FC034999DC036991D
S11333709BC0379999C086B18F70883009F094C08A
S11333808091E605893108F48FC080915C0580FD49
S11333908BC098E1951570F4CC20E9F080915C0520
S11333A0816080935C0569E180E390E00E94C5053B
S11333B0CA947AC028E1271588F4DD2001F18091B0
S11333C05C05816080935C0569E180E390E00E9484
S11333D0C505DA9469C088E1871588F098E19A15E3
S11333E088F4FF2001F180915C05816080935C0585
S11333F069E180E390E00E94C505FA9455C028E194
S11334002A1588F088E1891588F4112301F1809147
S11334105C05816080935C0569E180E390E00E9433
S1133420C505115041C098E1991588F028E1281587
S113343088F4002301F180915C05816080935C0530
S113344069E180E390E00E94C50501502DC088E148
S1133450881588F098E1961570F4EE2061F080915B
S11334605C05816080935C0569E180E390E00E94E3
S1133470C505EA9419C0809160059091610549974A
S113348098F480912A06882379F080915C05816004
S113349080935C0569E180E390E00E94C50580911A
S11334A02A06815080932A06359BB3C03499B1C053
S11334B03699AFC03799ADC086B18F70893009F0A5
S11334C0A8C08091E6058A3108F4A3C080915C0508
S11334D081FD9FC029E1251570F4CC20E9F080918D
S11334E05C05826080935C056AE182E390E00E945F
S11334F0C505CA948EC089E1871588F4DD2001F1E1
S113350080915C05826080935C056AE182E390E0CF
S11335100E94C505DA947DC099E1971588F029E1E8
S11335202A1588F4FF2001F180915C058260809364
S11335305C056AE182E390E00E94C505FA9469C0E3
S113354089E18A1588F099E1991588F4112301F12C
S113355080915C05826080935C056AE182E390E07F
S11335600E94C505115055C029E1291588F089E14B
S1133570881588F4002301F180915C0582608093B2
S11335805C056AE182E390E00E94C505015041C0F8
S113359099E1981588F029E1261588F4EE2001F1C7
S11335A080915C05826080935C056AE182E390E02F
S11335B00E94C505EA942DC089E1861588F099E139
S11335C0931570F4442061F080915C0582608093CF
S11335D05C056AE182E390E00E94C5054A9419C043
S11335E080916005909161054A9798F480912A062C
S11335F0882379F080915C05826080935C056AE1A0
S113360082E390E00E94C50580912A068150809350
S11336102A06359B9FC034999DC036999BC0379923
S113362099C086B18F708A3009F094C08091E60504
S11336308B3108F48FC080915C0582FD8BC02AE138
S1133640251570F4CC20E9F080915C0584608093AA
S11336505C056BE184E390E00E94C505CA947AC0DE
S11336608AE1871588F4DD2001F180915C0584608E
S113367080935C056BE184E390E00E94C505DA94D5
S113368069C09AE1971588F02AE12A1588F4FF2089
S113369001F180915C05846080935C056BE184E3B7
S11336A090E00E94C505FA9455C08AE18A1588F015
S11336B09AE1991588F4112301F180915C058460E5
S11336C080935C056BE184E390E00E94C505115092
S11336D041C02AE1291588F08AE1881588F400237D
S11336E001F180915C05846080935C056BE184E367
S11336F090E00E94C50501502DC09AE1981588F00C
S11337002AE1261570F4EE2061F080915C05846056
S113371080935C056BE184E390E00E94C505EA9424
S113372019C080916005909161054B9798F4809140
S11337302A06882379F080915C05846080935C0577
S11337406BE184E390E00E94C50580912A068150D4
S113375080932A06359B9FC034999DC036999BC09F
S1133760379999C086B18F708B3009F094C08091DD
S1133770E6058C3108F48FC080915C0583FD8BC015
S11337808BE1851570F4CC20E9F080915C058860AC
S113379080935C056CE186E390E00E94C505CA94C1
S11337A07AC09BE1971588F4DD2001F180915C05D6
S11337B0886080935C056CE186E390E00E94C50517
S11337C0DA9469C02BE1271588F08BE18A1588F417
S11337D0FF2001F180915C05886080935C056CE1B9
S11337E086E390E00E94C505FA9455C09BE19A15C2
S11337F088F02BE1291588F4112301F180915C05EF
S1133800886080935C056CE186E390E00E94C505C6
S1133810115041C08BE1891588F09BE1981588F41B
S1133820002301F180915C05886080935C056CE164
S113383086E390E00E94C50501502DC02BE12815B8
S113384088F08BE1861570F4EE2061F080915C05C0
S1133850886080935C056CE186E390E00E94C50576
S1133860EA9419C080916005909161054C9798F491
S113387080912A06882379F080915C058860809382
S11338805C056CE186E390E00E94C50580912A0600
S1133890815080932A06359B9FC034999DC03699E8
S11338A09BC0379999C086B18F708C3009F094C051
S11338B08091E6058D3108F48FC080915C0584FD0C
S11338C08BC09CE1951570F4CC20E9F080915C05E7
S11338D0806180935C056DE188E390E00E94C505FA
S11338E0CA947AC02CE1271588F4DD2001F1809177
S11338F05C05806180935C056DE188E390E00E9443
S1133900C505DA9469C08CE1871588F09CE19A15A5
S113391088F4FF2001F180915C05806180935C054F
S11339206DE188E390E00E94C505FA9455C02CE14E
S11339302A1588F08CE1891588F4112301F180910E
S11339405C05806180935C056DE188E390E00E94F2
S1133950C505115041C09CE1991588F02CE128154A
S113396088F4002301F180915C05806180935C05FB
S11339706DE188E390E00E94C50501502DC08CE103
S1133980881588F09CE1961570F4EE2061F0809122
S11339905C05806180935C056DE188E390E00E94A2
S11339A0C505EA9419C080916005909161054D9711
S11339B098F480912A06882379F080915C058061CF
S11339C080935C056DE188E390E00E94C5058091D9
S11339D02A06815080932A06359BB3C03499B1C01E
S11339E03699AFC03799ADC086B18F708D3009F06C
S11339F0A8C08091E6058E3108F4A3C080915C05CF
S1133A0085FD9FC02DE1251570F4CC20E9F080914F
S1133A105C05806280935C056EE18AE390E00E941D
S1133A20C505CA948EC08DE1871588F4DD2001F1A7
S1133A3080915C05806280935C056EE18AE390E08E
S1133A400E94C505DA947DC09DE1971588F02DE1AB
S1133A502A1588F4FF2001F180915C05806280932F
S1133A605C056EE18AE390E00E94C505FA9469C0A2
S1133A708DE18A1588F09DE1991588F4112301F1EF
S1133A8080915C05806280935C056EE18AE390E03E
S1133A900E94C505115055C02DE1291588F08DE10E
S1133AA0881588F4002301F180915C05806280937D
S1133AB05C056EE18AE390E00E94C505015041C0B7
S1133AC09DE1981588F02DE1261588F4EE2001F18A
S1133AD080915C05806280935C056EE18AE390E0EE
S1133AE00E94C505EA942DC08DE1861588F09DE1FC
S1133AF0931570F4442061F080915C05806280939A
S1133B005C056EE18AE390E00E94C5054A9419C001
S1133B1080916005909161054E9798F480912A06F2
S1133B20882379F080915C05806280935C056EE166
S1133B308AE390E00E94C50580912A068150809313
S1133B402A06359B90C034998EC036998CC037991B
S1133B508AC086B18F708E3009F085C08091E605E9
S1133B608F3108F480C080915C0586FD7CC02EE115
S1133B70251580F0271588F4DD2001F180915C057E
S1133B80806480935C056FE18CE390E00E94C5053E
S1133B90DA9414C08EE1871588F09EE19A1588F4B2
S1133BA0FF2001F180915C05806480935C056FE1E6
S1133BB08CE390E00E94C505FA9455C02EE12A15C5
S1133BC088F08EE1891588F4112301F180915C0558
S1133BD0806480935C056FE18CE390E00E94C505EE
S1133BE0115041C09EE1991588F02EE1281588F402
S1133BF0002301F180915C05806480935C056FE192
S1133C008CE390E00E94C50501502DC08EE188151B
S1133C1088F09EE1961570F4EE2061F080915C05C9
S1133C20806480935C056FE18CE390E00E94C5059D
S1133C30EA9419C080916005909161054F9798F4BA
S1133C4080912A06882379F080915C0580648093B2
S1133C505C056FE18CE390E00E94C50580912A0623
S1133C60815080932A06359B8CC034998AC036993A
S1133C7088C0379986C086B18F708F3009F081C0B3
S1133C808091E605803208F47CC080915C0588232D
S1133C900CF477C02FE1271570F4DD20E9F0809152
S1133CA05C05806880935C0560E28EE390E00E948E
S1133CB0C505DA9411C08FE18A1588F4FF2001F15B
S1133CC080915C05806880935C0560E28EE390E0FF
S1133CD00E94C505FA9455C09FE19A1588F02FE11A
S1133CE0291588F4112301F180915C058068809383
S1133CF05C0560E28EE390E00E94C505115041C06E
S1133D008FE1891588F09FE1981588F4002301F16B
S1133D1080915C05806880935C0560E28EE390E0AE
S1133D200E94C50501502DC02FE1281588F08FE1B0
S1133D30861570F4EE2061F080915C0580688093B4
S1133D405C0560E28EE390E00E94C505EA9419C028
S1133D508091600590916105809798F480912A067E
S1133D60882379F080915C05806880935C0560E22B
S1133D708EE390E00E94C50580912A0681508093CD
S1133D802A0634998AC0359988C0369B86C03799EB
S1133D9084C086B18F7009F080C08091E6058132BD
S1133DA008F47BC08091340680FD77C090E29715BB
S1133DB070F4DD20E9F0809134068160809334064C
S1133DC061E280E490E00E94C505DA9466C020E2D6
S1133DD02A1588F4FF2001F18091340681608093D4
S1133DE03406FA9461E280E490E00E94C50555C06F
S1133DF080E28A1588F090E2991588F4112301F184
S1133E0080913406816080933406115061E280E42D
S1133E1090E00E94C50541C020E2291588F080E2A7
S1133E20881588F4002301F1809134068160809321
S1133E303406015061E280E490E00E94C5052DC083
S1133E4090E2981588F020E2261570F4EE2061F0D7
S1133E5080913406816080933406EA9461E280E4C0
S1133E6090E00E94C50519C080916005909161059C
S1133E70819798F480912A06882379F080913406FA
S1133E8081608093340661E280E490E00E94C5057D
S1133E9080912A06815080932A0634998BC03599E3
S1133EA089C0369B87C0379985C086B18F708130B1
S1133EB009F080C08091E605823208F47BC08091CD
S1133EC0340681FD77C081E2871570F4DD20E9F0C6
S1133ED080913406826080933406DA9462E282E44C
S1133EE090E00E94C50566C091E29A1588F4FF200F
S1133EF001F180913406826080933406FA9462E280
S1133F0082E490E00E94C50555C021E22A1588F09C
S1133F1081E2891588F4112301F1809134068260CD
S1133F2080933406115062E282E490E00E94C50559
S1133F3041C091E2991588F021E2281588F4002304
S1133F4001F180913406826080933406015062E26C
S1133F5082E490E00E94C5052DC081E2881588F0B6
S1133F6091E2961570F4EE2061F08091340682603F
S1133F7080933406EA9462E282E490E00E94C505EC
S1133F8019C08091600590916105829798F48091A1
S1133F902A06882379F0809134068260809334065F
S1133FA062E282E490E00E94C50580912A06815075
S1133FB080932A0634998BC0359989C0369B87C073
S1133FC0379985C086B18F70823009F080C08091A6
S1133FD0E605833208F47BC08091340682FD77C005
S1133FE022E2271570F4DD20E9F080913406846024
S1133FF080933406DA9463E284E490E00E94C50579
S113400066C082E28A1588F4FF2001F180913406AB
S1134010846080933406FA9463E284E490E00E941E
S1134020C50555C092E29A1588F022E2291588F454
S1134030112301F180913406846080933406115079
S113404063E284E490E00E94C50541C082E28915E0
S113405088F092E2981588F4002301F180913406E7
S1134060846080933406015063E284E490E00E940B
S1134070C5052DC022E2281588F082E2861570F469
S1134080EE2061F080913406846080933406EA94D3
S113409063E284E490E00E94C50519C08091600544
S11340A090916105839798F480912A06882379F08A
S11340B08091340684608093340663E284E490E063
S11340C00E94C50580912A06815080932A0634995E
S11340D08BC0359989C0369B87C0379985C086B116
S11340E08F70833009F080C08091E605843208F433
S11340F07BC08091340683FD77C093E2971570F4FA
S1134100DD20E9F080913406886080933406DA94E7
S113411064E286E490E00E94C50566C023E22A15A5
S113412088F4FF2001F1809134068860809334067E
S1134130FA9464E286E490E00E94C50555C083E2E7
S11341408A1588F093E2991588F4112301F180917E
S11341503406886080933406115064E286E490E06B
S11341600E94C50541C023E2291588F083E2881521
S113417088F4002301F1809134068860809334062A
S1134180015064E286E490E00E94C5052DC093E2EC
S1134190981588F023E2261570F4EE2061F08091E2
S11341A03406886080933406EA9464E286E490E0FE
S11341B00E94C50519C0809160059091610584979E
S11341C098F480912A06882379F0809134068860D7
S11341D08093340664E286E490E00E94C5058091F1
S11341E02A06815080932A0634998BC0359989C058
S11341F0369B87C0379985C086B18F70843009F0AB
S113420080C08091E605853208F47BC08091340635
S113421084FD77C084E2871570F4DD20E9F0809195
S11342203406806180933406DA9465E288E490E091
S11342300E94C50566C094E29A1588F4FF2001F136
S113424080913406806180933406FA9465E288E4B0
S113425090E00E94C50555C024E22A1588F084E246
S1134260891588F4112301F18091340680618093CB
S11342703406115065E288E490E00E94C50541C00F
S113428094E2991588F024E2281588F4002301F1BA
S113429080913406806180933406015065E288E49D
S11342A090E00E94C5052DC084E2881588F094E250
S11342B0961570F4EE2061F080913406806180934D
S11342C03406EA9465E288E490E00E94C50519C0CA
S11342D08091600590916105859798F480912A06F4
S11342E0882379F08091340680618093340665E2F6
S11342F088E490E00E94C50580912A06815080934D
S11343002A0634998BC0359989C0369B87C0379962
S113431085C086B18F70853009F080C08091E60534
S1134320863208F47BC08091340685FD77C025E28F
S1134330271570F4DD20E9F08091340680628093C3
S11343403406DA9466E28AE490E00E94C50566C009
S113435085E28A1588F4FF2001F180913406806299
S113436080933406FA9466E28AE490E00E94C505DC
S113437055C095E29A1588F025E2291588F4112391
S113438001F180913406806280933406115066E214
S11343908AE490E00E94C50541C085E2891588F051
S11343A095E2981588F4002301F180913406806227
S11343B080933406015066E28AE490E00E94C505C9
S11343C02DC025E2281588F085E2861570F4EE20CC
S11343D061F080913406806280933406EA9466E248
S11343E08AE490E00E94C50519C08091600590910F
S11343F06105869798F480912A06882379F0809144
S1134400340680628093340666E28AE490E00E9477
S1134410C50580912A06815080932A0634998BC061
S1134420359989C0369B87C0379985C086B18F700E
S1134430863009F080C08091E605873208F47BC09D
S11344408091340686FD77C096E2971570F4DD20DE
S1134450E9F080913406806480933406DA9467E24C
S11344608CE490E00E94C50566C026E22A1588F413
S1134470FF2001F180913406806480933406FA941D
S113448067E28CE490E00E94C50555C086E28A1577
S113449088F096E2991588F4112301F1809134068D
S11344A0806480933406115067E28CE490E00E94AB
S11344B0C50541C026E2291588F086E2881588F4EE
S11344C0002301F180913406806480933406015006
S11344D067E28CE490E00E94C5052DC096E2981531
S11344E088F026E2261570F4EE2061F080913406FF
S11344F0806480933406EA9467E28CE490E00E943E
S1134500C50519C08091600590916105879798F45D
S113451080912A06882379F0809134068064809300
S1134520340667E28CE490E00E94C50580912A0677
S1134530815080932A0634998CC035998AC0369B61
S113454088C0379986C086B18F70873009F081C0E2
S11345508091E605883208F47CC080913406882373
S11345600CF477C087E2871570F4DD20E9F08091C0
S11345703406806880933406DA9468E28EE490E02E
S11345800E94C50566C097E29A1588F4FF2001F1E0
S113459080913406806880933406FA9468E28EE44D
S11345A090E00E94C50555C027E22A1588F087E2ED
S11345B0891588F4112301F1809134068068809371
S11345C03406115068E28EE490E00E94C50541C0B3
S11345D097E2991588F027E2281588F4002301F161
S11345E080913406806880933406015068E28EE43A
S11345F090E00E94C5052DC087E2881588F097E2F7
S1134600961570F4EE2061F08091340680688093F2
S11346103406EA9468E28EE490E00E94C50519C06D
S11346208091600590916105889798F480912A069D
S1134630882379F08091340680688093340668E298
S11346408EE490E00E94C50580912A0681508093F3
S11346502A0634998BC0359989C0369B87C037990F
S113466085C086B18F70883009F080C08091E605DE
S1134670893208F47BC08091360680FD77C028E239
S1134680271570F4DD20E9F080913606816080936F
S11346903606DA9469E280E590E00E94C50566C0BA
S11346A088E28A1588F4FF2001F180913606816042
S11346B080933606FA9469E280E590E00E94C5058D
S11346C055C098E29A1588F028E2291588F4112338
S11346D001F180913606816080933606115069E2BB
S11346E080E590E00E94C50541C088E2891588F004
S11346F098E2981588F4002301F1809136068160D0
S113470080933606015069E280E590E00E94C50579
S11347102DC028E2281588F088E2861570F4EE2072
S113472061F080913606816080933606EA9469E2EE
S113473080E590E00E94C50519C0809160059091C4
S11347406105899798F480912A06882379F08091ED
S1134750360681608093360669E280E590E00E9427
S1134760C50580912A06815080932A0634998BC00E
S1134770359989C0369B87C0379985C086B18F70BB
S1134780893009F080C08091E6058A3208F47BC044
S11347908091360681FD77C099E2971570F4DD208B
S11347A0E9F080913606826080933606DA946AE2F4
S11347B082E590E00E94C50566C029E22A1588F4C6
S11347C0FF2001F180913606826080933606FA94C8
S11347D06AE282E590E00E94C50555C089E28A1527
S11347E088F099E2991588F4112301F18091360635
S11347F082608093360611506AE282E590E00E945E
S1134800C50541C029E2291588F089E2881588F494
S1134810002301F1809136068260809336060150B0
S11348206AE282E590E00E94C5052DC099E29815E0
S113483088F029E2261570F4EE2061F080913606A6
S1134840826080933606EA946AE282E590E00E94F0
S1134850C50519C080916005909161058A9798F407
S113486080912A06882379F08091360682608093AD
S113487036066AE282E590E00E94C50580912A0628
S1134880815080932A0634998BC0359989C0369B10
S113489087C0379985C086B18F708A3009F080C08F
S11348A08091E6058B3208F47BC08091360682FD48
S11348B077C08AE2871570F4DD20E9F0809136062E
S11348C0846080933606DA946BE284E590E00E947B
S11348D0C50566C09AE29A1588F4FF2001F180911B
S11348E03606846080933606FA946BE284E590E0A1
S11348F00E94C50555C02AE22A1588F08AE2891566
S113490088F4112301F18091360684608093360681
S113491011506BE284E590E00E94C50541C09AE223
S1134920991588F02AE2281588F4002301F1809172
S1134930360684608093360601506BE284E590E08D
S11349400E94C5052DC08AE2881588F09AE2961562
S113495070F4EE2061F08091360684608093360610
S1134960EA946BE284E590E00E94C50519C0809149
S11349706005909161058B9798F480912A068823AD
S113498079F0809136068460809336066BE284E584
S113499090E00E94C50580912A06815080932A06E2
S11349A034998BC0359989C0369B87C0379985C0A7
S11349B086B18F708B3009F080C08091E6058C320F
S11349C008F47BC08091360683FD77C02BE227155F
S11349D070F4DD20E9F08091360688608093360615
S11349E0DA946CE286E590E00E94C50566C08BE22D
S11349F08A1588F4FF2001F180913606886080933F
S1134A003606FA946CE286E590E00E94C50555C02E
S1134A109BE29A1588F02BE2291588F4112301F101
S1134A208091360688608093360611506CE286E5E4
S1134A3090E00E94C50541C08BE2891588F09BE295
S1134A40981588F4002301F18091360688608093DC
S1134A50360601506CE286E590E00E94C5052DC043
S1134A602BE2281588F08BE2861570F4EE2061F0B5
S1134A7080913606886080933606EA946CE286E577
S1134A8090E00E94C50519C0809160059091610570
S1134A908C9798F480912A06882379F080913606C1
S1134AA08860809336066CE286E590E00E94C50536
S1134AB080912A06815080932A0634998BC03599B7
S1134AC089C0369B87C0379985C086B18F708C307A
S1134AD009F080C08091E6058D3208F47BC0809196
S1134AE0360684FD77C09CE2971570F4DD20E9F06A
S1134AF080913606806180933606DA946DE288E50B
S1134B0090E00E94C50566C02CE22A1588F4FF20B7
S1134B1001F180913606806180933606FA946DE245
S1134B2088E590E00E94C50555C08CE28A1588F09E
S1134B309CE2991588F4112301F180913606806175
S1134B408093360611506DE288E590E00E94C50519
S1134B5041C02CE2291588F08CE2881588F40023E2
S1134B6001F18091360680618093360601506DE232
S1134B7088E590E00E94C5052DC09CE2981588F058
S1134B802CE2261570F4EE2061F0809136068061E7
S1134B9080933606EA946DE288E590E00E94C505AC
S1134BA019C080916005909161058D9798F480916A
S1134BB02A06882379F08091360680618093360630
S1134BC06DE288E590E00E94C50580912A06815037
S1134BD080932A0634997CC035997AC0369B78C074
S1134BE0379976C086B18F708D3009F071C080918D
S1134BF0E6058E3208F46CC08091360685FD68C0E7
S1134C008DE2871580F08A1588F4FF2001F18091E8
S1134C103606806280933606FA946EE28AE590E066
S1134C200E94C50555C09DE29A1588F02DE229150C
S1134C3088F4112301F18091360680628093360650
S1134C4011506EE28AE590E00E94C50541C08DE2F4
S1134C50891588F09DE2981588F4002301F180916C
S1134C60360680628093360601506EE28AE590E053
S1134C700E94C5052DC02DE2281588F08DE2861509
S1134C8070F4EE2061F080913606806280933606DF
S1134C90EA946EE28AE590E00E94C50519C080910D
S1134CA06005909161058E9798F480912A06882377
S1134CB079F0809136068062809336066EE28AE54A
S1134CC090E00E94C50580912A06815080932A06AF
S1134CD034997CC035997AC0369B78C0379976C0B0
S1134CE086B18F708E3009F071C08091E6058F32E5
S1134CF008F46CC08091360686FD68C09EE2971564
S1134D0080F09A1588F4FF2001F1809136068064C2
S1134D1080933606FA946FE28CE590E00E94C50514
S1134D2055C02EE22A1588F08EE2891588F41123E5
S1134D3001F18091360680648093360611506FE24B
S1134D408CE590E00E94C50541C09EE2991588F06B
S1134D502EE2281588F4002301F180913606806440
S1134D608093360601506FE28CE590E00E94C50501
S1134D702DC08EE2881588F09EE2961570F4EE2020
S1134D8061F080913606806480933606EA946FE27F
S1134D908CE590E00E94C50519C080916005909152
S1134DA061058F9798F480912A06882379F0809181
S1134DB036068064809336066FE28CE590E00E94AC
S1134DC0C50580912A06815080932A0634997DC0B6
S1134DD035997BC0369B79C0379977C086B18F707F
S1134DE08F3009F072C08091E605803308F46DC0FD
S1134DF08091360688230CF468C02FE2271580F0D2
S1134E002A1588F4FF2001F180913606806880938A
S1134E103606FA9460E38EE590E00E94C50555C01D
S1134E208FE28A1588F09FE2991588F4112301F125
S1134E3080913606806880933606115060E38EE5D3
S1134E4090E00E94C50541C02FE2291588F08FE249
S1134E50881588F4002301F18091360680688093D8
S1134E603606015060E38EE590E00E94C5052DC032
S1134E709FE2981588F02FE2261570F4EE2061F079
S1134E8080913606806880933606EA9460E38EE566
S1134E9090E00E94C50519C080916005909161055C
S1134EA0C09798F480912A06882379F08091360679
S1134EB080688093360660E38EE590E00E94C50525
S1134EC080912A06815080932A0634997BC03599B3
S1134ED079C0369977C0379B75C086B18F7009F059
S1134EE071C08091E605813308F46CC0809163053C
S1134EF080FD68C080E3871580F08A1588F4FF2060
S1134F0001F180916305816080936305FA9461E304
S1134F1080E690E00E94C50555C090E39A1588F09C
S1134F2020E3291588F4112301F180916305816040
S1134F3080936305115061E380E690E00E94C5050B
S1134F4041C080E3891588F090E3981588F4002324
S1134F5001F180916305816080936305015061E3F1
S1134F6080E690E00E94C5052DC020E3281588F056
S1134F7080E3861570F4EE2061F080916305816012
S1134F8080936305EA9461E380E690E00E94C5059E
S1134F9019C08091600590916105C19798F4809142
S1134FA02A06882379F080916305816080936305E4
S1134FB061E380E690E00E94C50580912A06815055
S1134FC080932A0634997CC035997AC0369978C082
S1134FD0379B76C086B18F70813009F071C08091A3
S1134FE0E605823308F46CC08091630581FD68C0D6
S1134FF091E3971580F09A1588F4FF2001F18091D0
S11350006305826080936305FA9462E382E690E02C
S11350100E94C50555C021E32A1588F081E389154E
S113502088F4112301F18091630582608093630504
S1135030115062E382E690E00E94C50541C091E30D
S1135040991588F021E3281588F4002301F1809153
S11350506305826080936305015062E382E690E019
S11350600E94C5052DC081E3881588F091E396154B
S113507070F4EE2061F08091630582608093630593
S1135080EA9462E382E690E00E94C50519C080912B
S1135090600590916105C29798F480912A0688234F
S11350A079F08091630582608093630562E382E610
S11350B090E00E94C50580912A06815080932A06BB
S11350C034997CC035997AC0369978C0379B76C0BC
S11350D086B18F70823009F071C08091E605833308
S11350E008F46CC08091630582FD68C022E3271533
S11350F080F02A1588F4FF2001F180916305846013
S113510080936305FA9463E384E690E00E94C50506
S113511055C082E38A1588F092E3991588F4112327
S113512001F180916305846080936305115063E30A
S113513084E690E00E94C50541C022E3291588F069
S113514082E3881588F4002301F18091630584606B
S113515080936305015063E384E690E00E94C505F3
S11351602DC092E3981588F022E3261570F4EE2002
S113517061F080916305846080936305EA9463E33E
S113518084E690E00E94C50519C080916005909165
S11351906105C39798F480912A06882379F0809159
S11351A0630584608093630563E384E690E00E9472
S11351B0C50580912A06815080932A0634997CC0C3
S11351C035997AC0369978C0379B76C086B18F708E
S11351D0833009F071C08091E605843308F46CC013
S11351E08091630583FD68C083E3871580F08A1589
S11351F088F4FF2001F18091630588608093630542
S1135200FA9464E386E690E00E94C50555C093E3F2
S11352109A1588F023E3291588F4112301F180916C
S11352206305886080936305115064E386E690E02B
S11352300E94C50541C083E3891588F093E398155E
S113524088F4002301F180916305886080936305ED
S1135250015064E386E690E00E94C5052DC023E377
S1135260281588F083E3861570F4EE2061F08091B0
S11352706305886080936305EA9464E386E690E0BE
S11352800E94C50519C08091600590916105C4977D
S113529098F480912A06882379F0809163058860C8
S11352A08093630564E386E690E00E94C5058091DF
S11352B02A06815080932A0634997CC035997AC095
S11352C0369978C0379B76C086B18F70843009F0E8
S11352D071C08091E605853308F46CC08091630544
S11352E084FD68C094E3971580F09A1588F4FF2034
S11352F001F180916305806180936305FA9465E30D
S113530088E690E00E94C50555C024E32A1588F07C
S113531084E3891588F4112301F180916305806188
S113532080936305115065E388E690E00E94C5050B
S113533041C094E3991588F024E3281588F40023E8
S113534001F180916305806180936305015065E3F9
S113535088E690E00E94C5052DC084E3881588F096
S113536094E3961570F4EE2061F0809163058061FA
S113537080936305EA9465E388E690E00E94C5059E
S113538019C08091600590916105C59798F480914A
S11353902A06882379F080916305806180936305F0
S11353A065E388E690E00E94C50580912A06815055
S11353B080932A0634997CC035997AC0369978C08E
S11353C0379B76C086B18F70853009F071C08091AB
S11353D0E605863308F46CC08091630585FD68C0DA
S11353E025E3271580F02A1588F4FF2001F1809128
S11353F06305806280936305FA9466E38AE690E02D
S11354000E94C50555C085E38A1588F095E3991572
S113541088F4112301F18091630580628093630510
S1135420115066E38AE690E00E94C50541C025E379
S1135430291588F085E3881588F4002301F180910B
S11354406305806280936305015066E38AE690E019
S11354500E94C5052DC095E3981588F025E326150F
S113546070F4EE2061F0809163058062809363059F
S1135470EA9466E38AE690E00E94C50519C080912B
S1135480600590916105C69798F480912A06882357
S113549079F08091630580628093630566E38AE610
S11354A090E00E94C50580912A06815080932A06C7
S11354B034997CC035997AC0369978C0379B76C0C8
S11354C086B18F70863009F071C08091E60587330C
S11354D008F46CC08091630586FD68C086E3871577
S11354E080F08A1588F4FF2001F1809163058064BF
S11354F080936305FA9467E38CE690E00E94C50507
S113550055C096E39A1588F026E3291588F41123EB
S113551001F180916305806480936305115067E312
S11355208CE690E00E94C50541C086E3891588F0A9
S113553096E3981588F4002301F180916305806453
S113554080936305015067E38CE690E00E94C505F3
S11355502DC026E3281588F086E3861570F4EE2026
S113556061F080916305806480936305EA9467E346
S11355708CE690E00E94C50519C080916005909169
S11355806105C79798F480912A06882379F0809161
S1135590630580648093630567E38CE690E00E9472
S11355A0C50580912A06815080932A0634997DC0CE
S11355B035997BC0369979C0379B77C086B18F7097
S11355C0873009F072C08091E605883308F46DC015
S11355D08091630588230CF468C097E3971580F0E5
S11355E09A1588F4FF2001F1809163058068809307
S11355F06305FA9468E38EE690E00E94C50555C001
S113560027E32A1588F087E3891588F4112301F12B
S113561080916305806880936305115068E38EE68A
S113562090E00E94C50541C097E3991588F027E3EF
S1135630281588F4002301F1809163058068809324
S11356406305015068E38EE690E00E94C5052DC015
S113565087E3881588F097E3961570F4EE2061F0DF
S113566080916305806880936305EA9468E38EE61D
S113567090E00E94C50519C0809160059091610574
S1135680C89798F480912A06882379F0809163055D
S113569080688093630568E38EE690E00E94C50508
S11356A080912A06815080932A0634997CC03599CA
S11356B07AC0369978C0379B76C086B18F708830AF
S11356C009F071C08091E605893308F46CC08091BB
S11356D02F0680FD68C028E3271580F02A1588F47A
S11356E0FF2001F180912F06816080932F06FA94A8
S11356F069E380E790E00E94C50555C088E38A15F8
S113570088F098E3991588F4112301F180912F060C
S1135710816080932F06115069E380E790E00E9436
S1135720C50541C028E3291588F088E3881588F465
S1135730002301F180912F06816080932F06015090
S113574069E380E790E00E94C5052DC098E39815B1
S113575088F028E3261570F4EE2061F080912F067E
S1135760816080932F06EA9469E380E790E00E94C9
S1135770C50519C08091600590916105C99798F499
S113578080912A06882379F080912F068160809386
S11357902F0669E380E790E00E94C50580912A0600
S11357A0815080932A0634997CC035997AC0369901
S11357B078C0379B76C086B18F70893009F071C08C
S11357C08091E6058A3308F46CC080912F0681FD30
S11357D068C089E3871580F08A1588F4FF2001F1F9
S11357E080912F06826080932F06FA946AE382E701
S11357F090E00E94C50555C099E39A1588F029E305
S1135800291588F4112301F180912F068260809379
S11358102F0611506AE382E790E00E94C50541C05B
S113582089E3891588F099E3981588F4002301F138
S113583080912F06826080932F0601506AE382E7ED
S113584090E00E94C5052DC029E3281588F089E35E
S1135850861570F4EE2061F080912F0682608093AB
S11358602F06EA946AE382E790E00E94C50519C016
S11358708091600590916105CA9798F480912A06F9
S1135880882379F080912F06826080932F066AE343
S113589082E790E00E94C50580912A06815080939A
S11358A02A0634997CC035997AC0369978C0379BDA
S11358B076C086B18F708A3009F071C08091E60598
S11358C08B3308F46CC080912F0682FD68C09AE384
S11358D0971580F09A1588F4FF2001F180912F0626
S11358E0846080932F06FA946BE384E790E00E942F
S11358F0C50555C02AE32A1588F08AE3891588F47A
S1135900112301F180912F06846080932F0611509A
S11359106BE384E790E00E94C50541C09AE39915C2
S113592088F02AE3281588F4002301F180912F06DA
S1135930846080932F0601506BE384E790E00E941B
S1135940C5052DC08AE3881588F09AE3961570F48E
S1135950EE2061F080912F06846080932F06EA94F4
S11359606BE384E790E00E94C50519C0809160054F
S113597090916105CB9798F480912A06882379F059
S113598080912F06846080932F066BE384E790E078
S11359900E94C50580912A06815080932A06349975
S11359A07CC035997AC0369978C0379B76C086B169
S11359B08F708B3009F071C08091E6058C3308F448
S11359C06CC080912F0683FD68C02BE3271580F0FF
S11359D02A1588F4FF2001F180912F0688608093B6
S11359E02F06FA946CE386E790E00E94C50555C043
S11359F08BE38A1588F09BE3991588F4112301F150
S1135A0080912F06886080932F0611506CE386E7FF
S1135A1090E00E94C50541C02BE3291588F08BE373
S1135A20881588F4002301F180912F068860809303
S1135A302F0601506CE386E790E00E94C5052DC057
S1135A409BE3981588F02BE3261570F4EE2061F0A3
S1135A5080912F06886080932F06EA946CE386E792
S1135A6090E00E94C50519C0809160059091610580
S1135A70CC9798F480912A06882379F080912F0698
S1135A80886080932F066CE386E790E00E94C5054A
S1135A9080912A06815080932A06349968C03599EA
S1135AA066C0369964C0379B62C086B18F708C30F3
S1135AB009F05DC08091E6058D3308F458C08091EB
S1135AC02F0684FD54C08CE38A1580F0891588F470
S1135AD0112301F180912F06806180932F061150CC
S1135AE06DE388E790E00E94C50541C09CE39915E9
S1135AF088F02CE3281588F4002301F180912F0607
S1135B00806180932F0601506DE388E790E00E9446
S1135B10C5052DC08CE3881588F09CE3961570F4B8
S1135B20EE2061F080912F06806180932F06EA9425
S1135B306DE388E790E00E94C50519C08091600577
S1135B4090916105CD9798F480912A06882379F085
S1135B5080912F06806180932F066DE388E790E0A3
S1135B600E94C50580912A06815080932A063499A3
S1135B7068C0359966C0369964C0379B62C086B1E7
S1135B808F708D3009F05DC08091E6058E3308F486
S1135B9058C080912F0685FD54C02DE32A1580F04E
S1135BA0291588F4112301F180912F0680628093D6
S1135BB02F0611506EE38AE790E00E94C50541C0AC
S1135BC08DE3891588F09DE3981588F4002301F18D
S1135BD080912F06806280932F0601506EE38AE73E
S1135BE090E00E94C5052DC02DE3281588F08DE3B3
S1135BF0861570F4EE2061F080912F068062809308
S1135C002F06EA946EE38AE790E00E94C50519C066
S1135C108091600590916105CE9798F480912A0651
S1135C20882379F080912F06806280932F066EE39B
S1135C308AE790E00E94C50580912A0681508093EE
S1135C402A06349968C0359966C0369964C0379B72
S1135C5062C086B18F708E3009F05DC08091E60518
S1135C608F3308F458C080912F0686FD54C09EE3FC
S1135C709A1580F0991588F4112301F180912F066B
S1135C80806480932F0611506FE38CE790E00E94AC
S1135C90C50541C02EE3291588F08EE3881588F4E4
S1135CA0002301F180912F06806480932F06015018
S1135CB06FE38CE790E00E94C5052DC09EE3981524
S1135CC088F02EE3261570F4EE2061F080912F0603
S1135CD0806480932F06EA946FE38CE790E00E943F
S1135CE0C50519C08091600590916105CF9798F41E
